:1000000090C00000BEC00000BCC00000BAC000002C
:10001000B8C00000B6C00000B4C00000B2C000000C
:10002000B0C00000AEC00000ACC00000AAC000001C
:10003000A8C00000A6C00000A4C00000A2C000002C
:10004000A0C000009EC000009CC000009AC000003C
:1000500098C0000096C0000094C00000B8C0000026
:1000600090C00000F9C60000CEC600008AC00000A3
:1000700088C0000086C0000084C0000082C000006C
:1000800080C000007EC000007CC000007AC000007C
:1000900078C0000076C0000074C0000072C000008C
:1000A00070C000006EC000006CC000006AC000009C
:1000B00068C0000066C0000064C0000062C00000AC
:1000C00060C000005EC000005CC000005AC00000BC
:1000D00058C0000056C0000060C6000035C60000D1
:1000E00050C000004E414E494E495459494E46CDEC
:1000F000CCCC3D0AD7233C17B7D13877CC2B3295DF
:1001000095E6241FB14F0A000020410000C84200BC
:10011000401C4620BCBE4CCA1B0E5AAEC59D740086
:10012000C30D11241FBECFEFD1E2DEBFCDBF00E073
:100130000CBF24E0AEE3B3E001C01D92A838B207C3
:10014000E1F713E0A0E0B2E0E2E5FBE200E00BBF84
:1001500002C007900D92AE33B107D9F710E0C1E9A4
:10016000D0E000E006C021970109802FFE010E9427
:100170005913C039D10780E00807A9F7DBD60C94E2
:10018000A7153ECF3FB7F89480914003909141036B
:10019000A0914203B091430326B5A89B05C02F3F11
:1001A00019F00196A11DB11D3FBFBA2FA92F982F9D
:1001B0008827820F911DA11DB11DBC01CD0142E018
:1001C000660F771F881F991F4A95D1F708951F92D0
:1001D0000F920FB60F9211242F933F938F939F93FB
:1001E000AF93BF938091440390914503A091460340
:1001F000B091470330913F0323E0230F2D3720F4C4
:100200000196A11DB11D05C026E8230F0296A11D70
:10021000B11D20933F038093440390934503A09323
:100220004603B09347038091400390914103A0910E
:100230004203B09143030196A11DB11D8093400379
:1002400090934103A0934203B0934303BF91AF91B6
:100250009F918F913F912F910F900FBE0F901F9004
:100260001895CF92DF92EF92FF920F931F93CF9347
:10027000DF93EC0162E173E0C4D46E0186E0C80E46
:10028000D11C62E173E0C601BCD48E01045D1F4F36
:1002900062E173E0C801B5D47E0186E3E80EF11C8B
:1002A00062E173E0C701ADD468E172E0CE017AD4B7
:1002B00068E172E0C60176D480E090E0A0E8BFEB90
:1002C0008C879D87AE87BF87188A898B9A8BAB8B6B
:1002D000BC8B1D8A8E8B9F8BA88FB98F1A8E8B8FAC
:1002E0009C8FAD8FBE8F8F8F98A3A9A3BAA34FEF1A
:1002F0005FEFBA014BA35CA36DA37EA38FA398A766
:10030000A9A7BAA71BA668E172E0C8014BD40FEFFA
:100310001FEF1BAB0AAB1CAA1DAA68E172E0C70164
:1003200041D41DAE1CAE1FAF0EAFDF91CF911F9118
:100330000F91FF90EF90DF90CF9008950895CF92A6
:10034000DF92EF92FF920F931F93CF93DF936C0195
:100350007A018B01C0E0D0E0CE15DF0581F0D80135
:100360006D918D01D601ED91FC910190F081E02D10
:10037000C6011995892B11F02196EECF7E01C70198
:10038000DF91CF911F910F91FF90EF90DF90CF9071
:10039000089580E090E00895FC01538D448D252F51
:1003A00030E0842F90E0821B930B541710F0CF960F
:1003B000089501970895FC01918D828D981761F041
:1003C000828DDF01A80FB11D5D968C91928D9F5F8C
:1003D0009F73928F90E008958FEF9FEF0895FC0137
:1003E000918D828D981731F0828DE80FF11D858DEA
:1003F00090E008958FEF9FEF0895FC01918D228D7D
:10040000892F90E0805C9F4F821B91098F73992701
:100410000895FC01848DDF01A80FB11DA35ABF4FC1
:100420002C91848D90E001968F739927848FA689F3
:10043000B7892C93A089B1898C91837080648C9347
:10044000938D848D981306C00288F389E02D8081F6
:100450008F7D80830895EF92FF920F931F93CF9328
:10046000DF93EC0181E0888F9B8D8C8D981305C004
:10047000E889F989808185FD25C0F62E0B8D10E075
:100480000F5F1F4F0F731127E02E8C8DE8120BC0EA
:100490000FB607FCFACFE889F989808185FFF5CF8F
:1004A000CE01B7DFF2CF8B8DFE01E80FF11DE35ACD
:1004B000FF4FF0829FB7F8940B8FEA89FB89808108
:1004C00080620AC09FB7F894EE89FF896083E8894B
:1004D000F98980818370806480839FBF81E090E090
:1004E000DF91CF911F910F91FF90EF900895CF93DF
:1004F000DF93EC01888D8823C1F0EA89FB89808134
:1005000085FD05C0A889B9898C9186FD0EC00FB6FE
:1005100007FCF5CF808185FFF2CFA889B9898C913E
:1005200085FFEDCFCE0175DFE8CFDF91CF91089544
:10053000CF93DF93EC0188819981009711F00E949D
:10054000F913198218821D821C821B821A82DF9184
:10055000CF9108950E946215CF92DF92EF92FF92A1
:10056000CF93DF93EC016A017B01E889F98982E08E
:1005700080834115514E61057105B1F060E079E06D
:100580008DE390E0A70196010E941D12DA01C901D6
:100590000197A109B109B695A795979587959C01F3
:1005A000211580E13807A8F0E889F989108260E810
:1005B00074E88EE190E0A70196010E941D12DA0115
:1005C000C9010197A109B109B695A7959795879596
:1005D0009C01EC85FD853083EE85FF852083188E98
:1005E000EC89FD8986E08083EA89FB8980818061CE
:1005F0008083EA89FB89808188608083EA89FB891E
:10060000808180688083EA89FB8980818F7D8083F7
:10061000DF91CF91FF90EF90DF90CF90089561151B
:10062000710549F0FB0101900020E9F73197AF0116
:10063000461B570B84CE80E090E008950F931F93E4
:10064000CF93DF93EC01EBDF8C0160E173E0CE012F
:10065000E6DF800F911FDF91CF911F910F910895D9
:100660000F931F93CF93DF938C01EB01FC018081EB
:100670009181009739F06881798161157105A1F444
:100680000E94F91388819981F801918380838A817E
:100690009B81938382838C819D819583848319823E
:1006A00018821B821A820FC0F801428153812C816B
:1006B0003D814217530720F30E9483158C819D8151
:1006C000F801958384831D821C82DF91CF911F9155
:1006D0000F910895CF93DF93FC0124813581421758
:1006E000530778F4C081D181062E000C770BCE0120
:1006F000840F951F0E946F15009719F08C1B9D0B9E
:1007000002C08FEF9FEFDF91CF910895FC0124810C
:1007100035816217730748F480819181009729F031
:10072000FC01E60FF71F8081089580E00895FC0129
:1007300080819181009711F00C94410F60E070E08E
:10074000CB010895FC01448155816081718185EE62
:1007500093E0F5DD60E173E085EE93E060DF85EE28
:1007600093E0C5CEFB01DC018D919C91009761F077
:10077000608171816115710539F0448155810E9454
:100780008A1521E0892B09F020E0822F08958F92AD
:100790009F92AF92BF920F931F93CF93DF93CDB7EA
:1007A000DEB7A1970FB6F894DEBF0FBECDBF19A27A
:1007B000423008F44AE08E010F5D1F4F842E912CC9
:1007C000A12CB12CA50194010E941D12E62FB901A4
:1007D000CA0101501109EA3014F4E05D01C0E95C7E
:1007E000D801EC93232B242B252B61F7B80185EE40
:1007F00093E015DFA1960FB6F894DEBF0FBECDBF14
:10080000DF91CF911F910F91BF90AF909F908F90EC
:100810000895CF92DF92EF92FF92CF93DF936B0117
:100820007C016DE285EE93E016DEEC01662777270A
:10083000CB016C197D098E099F094AE0A8DF8C0F56
:100840009D1FDF91CF91FF90EF90DF90CF900895A3
:10085000CF93DF93BC01990F880B990B97FF02C0D0
:10086000D8DF02C04AE093DFEC0160E173E085EE7F
:1008700093E0D5DE8C0F9D1FDF91CF9108958F926D
:100880009F92AF92BF92CF92DF92EF92FF920F931F
:100890001F93CF93DF936B017C01142F9B01AC015D
:1008A0000E945513882319F061E373E027C04601C5
:1008B0005701E894B7F82FEF3FEF4FE75FE7C50127
:1008C000B4010E94551381110DC02FEF3FEF4FE788
:1008D0005FE7C501B4010E94F51018161CF465E32A
:1008E00073E00CC02FEF3FEF4FE75FE4C701B601A5
:1008F0000E94511318168CF469E373E085EE93E0BF
:10090000DF91CF911F910F91FF90EF90DF90CF90EB
:10091000BF90AF909F908F9082CE2FEF3FEF4FE729
:100920005FECC701B6010E94F51087FDE5CF20E01E
:1009300030E0A901C701B6010E94F51087FF0AC087
:100940006DE285EE93E087DDEC01F7FAF094F7F8BD
:10095000F09402C0C0E0D0E000E060E070E080E031
:100960009FE3101741F020E030E040E251E40E94A4
:10097000BD120F5FF6CFA70196010E9459126B01BD
:100980007C010E9425134B015C014AE000DFC80F87
:10099000D91F1123A9F1C501B4010E94F9109B01CF
:1009A000AC01C701B6010E9458126B017C016EE2D6
:1009B00085EE93E050DDC80FD91F20E030E040E223
:1009C00051E4C701B6010E945A114B015C010E941B
:1009D00025136B01E12CF12C4AE0C701B601D7DEEB
:1009E000C80FD91FC701B6010E94F9109B01AC01C5
:1009F000C501B4010E9458126B017C011150E9F647
:100A0000CE01DF91CF911F910F91FF90EF90DF907A
:100A1000CF90BF90AF909F908F90089542E02FDFCE
:100A200060E173E085EE93E0FADD85EE93E05FCD63
:100A3000CF93DF93682F85EE93E00DDDEC0160E14D
:100A400073E085EE93E0EBDD8C0F9D1FDF91CF917E
:100A50000895CF93DF93FC01448155816417750796
:100A6000C8F49B01EC01808191814150510955836B
:100A70004483461B570B6F5F7F4F680F791F820FB0
:100A8000931F0E949815E881F9818C819D81E80F60
:100A9000F91F1082DF91CF9108952FB7F8948091BC
:100AA000440390914503A0914603B09147032FBFA3
:100AB0008093500390935103A0935203B093530338
:100AC00088E493E078DC97FF26C02FB7F8948091F4
:100AD000440390914503A0914603B09147032FBF73
:100AE0004091500350915103609152037091530310
:100AF000841B950BA60BB70B40914C0350914D03F3
:100B000060914E0370914F0384179507A607B707AE
:100B1000B8F28FEF9FEF08950F931F93CF93DF935A
:100B2000EC0188819981009729F02A813B81261761
:100B3000370788F48B016F5F7F4F0E948214009704
:100B400061F0998388831B830A832C813D81232B49
:100B500011F4FC01108281E001C080E0DF91CF91AF
:100B60001F910F910895EF92FF920F931F93CF93D0
:100B7000DF93EC017B018A01BA01CEDF811103C052
:100B8000CE01D6DC07C01D830C83B7018881998113
:100B90000E948315CE01DF91CF911F910F91FF909D
:100BA000EF900895CF93DF93EC016115710551F03B
:100BB000FB0101900020E9F73197AF01461B570B6D
:100BC000D2DF01C0B5DCCE01DF91CF910895CF9384
:100BD000DF93EC01FB018617970751F0608171816B
:100BE0006115710521F044815581BDDF01C0A0DC94
:100BF000CE01DF91CF910895FC01808191810C9409
:100C0000F913FC0111821082138212821582148260
:100C10006115710549F0FB0101900020E9F731975A
:100C2000AF01461B570B9FCF08956F927F928F9213
:100C30009F92AF92BF92CF92DF92EF92FF920F936B
:100C40001F93CF93DF9300D000D0CDB7DEB76C01F8
:100C50008B01642FD801DE968D909C90DF97BFEFBB
:100C60008B1A9B0AF80195AE84AE5401A401C80109
:100C700031DDD801DF969C938E93DE978F3FBFEFD7
:100C80009B0729F468E172E0C601BBDF47C07C0125
:100C90008815990510F45C01740162E173E0FE01AE
:100CA00031964F01CF01ADDFD80114966D907C9045
:100CB0001597A614B704C8F4E614F70408F437012E
:100CC000D801ED91FC911197E60DF71DF08010828F
:100CD0006D917C916A0D7B1DC40164DFF8018081F8
:100CE0009181FC01E60DF71DF0820A5C1F4F801612
:100CF000910619F0B401C801B3DCC4017DDFD6014F
:100D000011961C921E9213961C921E921297159683
:100D10001C921E921497B801C60159DFC60126968F
:100D20000FB6F894DEBF0FBECDBFDF91CF911F91FC
:100D30000F91FF90EF90DF90CF90BF90AF909F907A
:100D40008F907F906F9008951F920F920FB60F9221
:100D500011240BB60F922F933F934F935F936F9392
:100D60007F938F939F93AF93BF93EF93FF9388E409
:100D700093E04FDBFF91EF91BF91AF919F918F91E6
:100D80007F916F915F914F913F912F910F900BBE8B
:100D90000F900FBE0F901F9018951F920F920FB6D5
:100DA0000F9211240BB60F922F938F939F93EF9373
:100DB000FF93E0915803F09159038081E0915E0325
:100DC000F0915F0382FD12C09081809161038F5F7B
:100DD0008F7320916203821751F0E0916103F0E07C
:100DE000E85BFC4F958F8093610301C08081FF9188
:100DF000EF919F918F912F910F900BBE0F900FBE8F
:100E00000F901F9018951F920F920FB60F921124FA
:100E10000BB60F922F933F934F935F936F937F93F4
:100E20008F939F93AF93BF93EF93FF9385EE93E0E0
:100E3000F0DAFF91EF91BF91AF919F918F917F91E8
:100E40006F915F914F913F912F910F900BBE0F903B
:100E50000FBE0F901F9018951F920F920FB60F9212
:100E600011240BB60F922F938F939F93EF93FF93C1
:100E7000E091F503F091F6038081E091FB03F0919E
:100E8000FC0382FD12C090818091FE038F5F8F73FF
:100E90002091FF03821751F0E091FE03F0E0EB5147
:100EA000FC4F958F8093FE0301C08081FF91EF91ED
:100EB0009F918F912F910F900BBE0F900FBE0F90AF
:100EC0001F9018958F929F92AF92BF92CF92DF9210
:100ED000EF92FF926B017C0155D94B015C01C1146B
:100EE000D104E104F104E9F04DD9DC01CB0188190A
:100EF0009909AA09BB09883E9340A105B10578F379
:100F000021E0C21AD108E108F10888EE880E83E0DA
:100F1000981EA11CB11CC114D104E104F10421F7F5
:100F2000DECFFF90EF90DF90CF90BF90AF909F907B
:100F30008F900895CF93DF93CDB7DEB7CF5AD10905
:100F40000FB6F894DEBF0FBECDBF789484B5826033
:100F500084BD84B5816084BD85B5826085BD85B55D
:100F6000816085BD80916E00816080936E001092DB
:100F70008100809181008260809381008091810056
:100F800081608093810080918000816080938000E7
:100F90008091B10084608093B1008091B000816045
:100FA0008093B00080919100826080939100809145
:100FB0009100816080939100809190008160809386
:100FC00090008091A10082608093A1008091A10097
:100FD00081608093A1008091A00081608093A00037
:100FE00080912101826080932101809121018160A3
:100FF0008093210180912001816080932001809164
:101000007A00846080937A0080917A008260809375
:101010007A0080917A00816080937A0080917A00D2
:10102000806880937A001092C10040E052EC61E049
:1010300070E085EE93E090DA6DE172E085EE93E08A
:10104000FDDA60E372E085EE93E0F8DA68EE73E0D3
:1010500080E090E037DF62E173E081E890E08C0FA0
:101060009D1F0896CEDD81E8E82EF12CEC0EFD1ECA
:101070008EE0E80EF11C62E173E0C701C2DD91E889
:10108000292E312C2C0E3D1E94E1290E311C62E1DB
:1010900073E0C101B6DD21E8622E712C6C0E7D1E5D
:1010A000AAE16A0E711C62E173E0C301AADDCF55AB
:1010B000DF4F1882C15AD040CE55DF4F1882C25A36
:1010C000D040CD55DF4F1882C35AD04080E895E21A
:1010D000A0E0B0E0CF57DF4F88839983AA83BB831A
:1010E000C158D04084E690E0CB57DF4F9983888386
:1010F000C558D04080E092E0C957DF4F998388837C
:10110000C758D04062E173E0C7014CDD62E173E093
:10111000C10148DD62E173E0C30144DD40E855E20E
:1011200060E070E088E493E017DA84E690E0A0E005
:10113000B0E080934C0390934D03A0934E03B09383
:101140004F0364E372E088E493E078DA6AE070E0E9
:1011500080E090E0B7DE66E672E088E493E06EDA65
:101160006AE070E080E090E0ADDEC957DF4F688153
:101170007981C758D040C701CFDCC957DF4F68819C
:101180007981C758D040C301C7DCCE01019669D828
:10119000CE018F5B9F4F65D8812C912C30E8A32E18
:1011A0003FEBB32EDD24D394CD55DF4F1882C35AC5
:1011B000D04088E493E021D9181619060CF0CAC073
:1011C00062E173E0CE018C559F4F1BDD66DC97FD1D
:1011D00036C08A30910599F1C655DF4F8883CA5AC7
:1011E000D040C555DF4F1882CB5AD040C855DF4F8D
:1011F00008811981C85AD0400F5F1F4FB801CE0136
:101200008C559F4F89DC882309F3CC55DF4F28810B
:101210003981C45AD040C855DF4F88819981C85A56
:10122000D040BE0166557F4F820F931F0E948315E9
:10123000C855DF4F19830883C85AD040C7CFBE01B5
:101240006C557F4FC7010CDACE018C559F4FD4DC13
:1012500065E772E0CE018C559F4FD3DCCD56DF4F52
:1012600028813981C359D040C855DF4F8881998181
:10127000C85AD0402817390738F0BE016C557F4F47
:10128000C70170DA182F01C010E0CE018C559F4FB6
:10129000B3DC112389F0CD56DF4F68817981C359C2
:1012A000D040C701D6DBB701C10191DCCF55DF4F7C
:1012B000D882C15AD04031C06CE772E0CE018C5563
:1012C0009F4F9FDCCD56DF4F28813981C359D040D5
:1012D000C855DF4F88819981C85AD04028173907EF
:1012E00030F0BE016C557F4FC7013CDA182FCE019C
:1012F0008C559F4F81DC112381F0CD56DF4F6881E3
:101300007981C359D040C701A4DBB701C3015FDCB9
:10131000CE55DF4FD882C25AD040CF55DF4F88819B
:10132000C15AD0408823B1F0CE55DF4F8881C25AD0
:10133000D040882379F0CD55DF4FD882C35AD040B2
:10134000CF55DF4F1882C15AD040CE55DF4F18829B
:10135000C25AD040CD55DF4F8881C35AD040882330
:1013600009F422CFB301CE018F5B9F4F30DC6DE7D4
:1013700072E081E490E08C0F9D1F069613DC2796A7
:101380000EAD1FAD279740E050E06AE2CE018F5BC3
:101390009F4FA0D9081B190B04301105A1F063E879
:1013A00072E0CE018C559F4F2CDCCE018C559F4FA7
:1013B000C9D9CE018C559F4F1FDCE6961FAEE6972C
:1013C0006BEA72E0C2C281E0E6968FAFE6976BEC03
:1013D00072E0CE018C559F4F14DC27962EAD3FADA9
:1013E0002797C855DF4F88819981C85AD040281760
:1013F000390748F0BE016C557F4FCE018F5B9F4F80
:10140000B1D9182F01C010E0CE018C559F4FF4DBED
:10141000111103C06DEC72E013C02796CEACDFACA7
:10142000279740E050E06AE2CE018F5B9F4F52D990
:101430009601281B390B2430310579F063E872E0FE
:10144000CE018C559F4FDDDBCE018C559F4F7AD955
:10145000CE018C559F4FD0DB93C38C010F5F1F4F84
:10146000C016D10628F4902F812F8601C92ED82EC0
:1014700062E173E0CE018C559F4FC3DB27964EACE3
:101480005FAC279704151505F0F4C414D50408F4CF
:1014900026012396EEADFFAD2397E40DF51DD08018
:1014A000108223966EAD7FAD2397600F711FCE0122
:1014B0008C559F4F77DB23968EAD9FAD2397FC0114
:1014C000E40DF51DD082BE016C557F4F81E490E0A4
:1014D0008C0F9D1F8C96C4D8CE018C559F4F8CDBF2
:1014E000E3968EAD9FADE397892B31F0AF968EAD2D
:1014F0009FADAF97009721F410923E038EE393E0E7
:1015000040E150E060E070E091D3C455DF4F798353
:101510006883CC5AD040E5967FAF6EAFE5972796AB
:101520008EAD9FAD2797C255DF4F99838883CE5AE2
:10153000D04023964EAC5FAC239701E010E0C12C65
:10154000D12C40E050E06AE2CE018F5B9F4FC2D8C1
:1015500008171907ECF4C255DF4FA881B981CE5A9C
:10156000D0400A171B0718F44114510429F41092B3
:101570003E03EEE3F3E003C0F201E00FF11F8081D0
:10158000082E000C990BC826D9260F5F1F4FD9CF04
:10159000C455DF4F88819981CC5AD0408C159D0568
:1015A00061F481E0E7968FAFE7972D968EAD9FAD02
:1015B0002D97892B09F4C7C104C0E7961FAEE797A2
:1015C000DFC26DE772E029968EAD9FAD29970E942C
:1015D0007A15892B09F0B7C14CE2BE016F5B7F4FD2
:1015E000CE018C559F4F21DBCE018C559F4F04DBE4
:1015F0004CE2BE016F5B7F4FCE018C559F4F15DBD8
:10160000CE018C559F4FF8DAED968EAD9FADED97DC
:10161000892B69F081E490E08C0F9D1FC69687D8D6
:1016200061966CAF7DAF8EAF9FAF619706C061963C
:101630008CAE9DAEAEAEBFAE61974CE2BE016F5BAD
:101640007F4FCE018C559F4FF0DACE018C559F4FC6
:10165000D3DAED968EAD9FADED97892B61F060E00A
:1016600070E081E490E08C0F9D1FC6964FD8629683
:101670008FAF629703C062961FAE62974CE2BE01C5
:101680006F5B7F4FCE018C559F4FCFDACE018C55CB
:101690009F4FB2DAED968EAD9FADED97892B69F035
:1016A00081E490E08C0F9D1FC69641D866966CAF82
:1016B0007DAF8EAF9FAF669706C066968CAE9DAE2F
:1016C000AEAEBFAE66974CE2BE016F5B7F4FCE0100
:1016D0008C559F4FAADACE018C559F4F8DDAED962F
:1016E0008EAD9FADED97892B61F060E070E081E4F5
:1016F00090E08C0F9D1FC69609D867968FAF6797AD
:1017000003C067961FAE67974CE2BE016F5B7F4FC9
:10171000CE018C559F4F89DACE018C559F4F6CDAE4
:10172000ED968EAD9FADED97892B71F081E490E041
:101730008C0F9D1FC6960E9497036B966CAF7DAF72
:101740008EAF9FAF6B9706C06B968CAE9DAEAEAE64
:10175000BFAE6B974CE2BE016F5B7F4FCE018C55E5
:101760009F4F63DACE018C559F4F46DAED968EADD2
:101770009FADED97892B69F060E070E081E490E027
:101780008C0F9D1FC6960E9486036C968FAF6C9738
:1017900003C06C961FAE6C974CE2BE016F5B7F4F2F
:1017A000CE018C559F4F41DACE018C559F4F24DAE4
:1017B000ED968EAD9FADED97892B71F081E490E0B1
:1017C0008C0F9D1FC6960E949703A0966CAF7DAFAD
:1017D0008EAF9FAFA09706C0A0968CAE9DAEAEAE6A
:1017E000BFAEA0974CE2BE016F5B7F4FCE018C5520
:1017F0009F4F1BDACE018C559F4FFED9ED968EADD3
:101800009FADED97892B71F081E490E08C0F9D1FC7
:10181000C6960E949703A4966CAF7DAF8EAF9FAF24
:10182000A49706C0A4968CAE9DAEAEAEBFAEA497F4
:101830004CE2BE016F5B7F4FCE018C559F4FF5D9B7
:10184000CE018C559F4FD8D9ED968EAD9FADED97BB
:10185000892B91F0E9968EAD9FADE997009711F035
:1018600013D303C060E070E0CB01A8966CAF7DAFEE
:101870008EAF9FAFA89709C08FEF9FEFDC01A896AE
:101880008CAF9DAFAEAFBFAFA8974CE2BE016F5B10
:101890007F4FCE018C559F4FC8D9CE018C559F4F9D
:1018A000ABD9ED968EAD9FADED97892B71F081E4AC
:1018B00090E08C0F9D1FC6960E949703AC966CAF6C
:1018C0007DAF8EAF9FAFAC9706C0AC968CAE9DAE91
:1018D000AEAEBFAEAC974AE2BE016F5B7F4FCE01AA
:1018E0008C559F4FA2D9CE018C559F4F85D9ED962F
:1018F0006EAD7FADED976115710569F061507109AD
:1019000081E490E08C0F9D1FC6960E948603AD96E1
:101910008FAFAD9703C0AD961FAEAD9768E172E093
:1019200081E490E08C0F9D1FC6963CD9EF961FAEC8
:101930001EAEEF978FEF9FEFC158DF4F99838883DB
:10194000CF57D0400FC065EF72E0CE018C559F4F4E
:1019500058D9CE018C559F4F0E94A203CE018C55C1
:101960009F4F4AD9CC55DF4F19821882C45AD040B4
:10197000CA55DF4F19821882C65AD040C855DF4F6A
:1019800019821882C85AD040BE016F5B7F4FCE01CA
:101990008C559F4F1CD9CE018C559F4F0E94A2039E
:1019A000CE018C559F4F28D9CC55DF4F1982188214
:1019B000C45AD040CA55DF4F19821882C65AD04047
:1019C000C855DF4F19821882C85AD04061E470E0D0
:1019D0006C0F7D1F6A5F7F4FCE018C559F4FF7D8EC
:1019E000CE018C559F4F0E94A203CE018C559F4F74
:1019F00003D961966CAD7DAD8EAD9FAD61970ED86C
:101A000062968FAD629714D885EE93E00E947702BC
:101A100066966CAD7DAD8EAD9FAD66970E940E054E
:101A200067968FAD679704D885EE93E00E947702A2
:101A30006B966CAD7DAD8EAD9FAD6B970E940E0524
:101A40006C968FAD6C970E94180585EE93E00E940E
:101A50007702A0966CAD7DAD8EAD9FADA0970E9434
:101A60000E05A4966CAD7DAD8EAD9FADA4970E9482
:101A70000E05A8966CAD7DAD8EAD9FADA89797FF76
:101A800003C00E94090403C04AE00E94C70360E14A
:101A900073E085EE93E00E940F0385EE93E00E94D1
:101AA0007702AC966CAD7DAD8EAD9FADAC9742E04C
:101AB0000E943F0460E173E085EE93E00E940F0313
:101AC00085EE93E00E947702AD968FADAD970E94B0
:101AD000180585EE93E00E947702CC55DF4F1982FE
:101AE0001882C45AD040CA55DF4F19821882C65A8C
:101AF000D040C855DF4F19821882C85AD04061E4DF
:101B000070E06C0F7D1F645D7F4FCE018C559F4F41
:101B10005ED8CE018C559F4F0E94A203CE018C55FA
:101B20009F4F6AD8E5968EAD9FADE5970E94280439
:101B300085EE93E00E947702E6968FADE69790E0FF
:101B40000E94280485EE93E00E947702E7968FAD0D
:101B5000E79790E00E94280485EE93E00E947702C8
:101B600060E372E0CE018C559F4F4BD8CE018C556F
:101B70009F4F0E94A203CE018C559F4F3DD812CBA0
:101B800063E173E0E2CEE8E4F3E01382128248EE10
:101B900053E060E070E044835583668377838AE096
:101BA00092E09183808325E331E03587248724E325
:101BB00031E03787268720E331E0318B208B21E32A
:101BC00031E0338B228B22E331E0358B248B26E30B
:101BD00031E0378B268B118E128E138E148EE5EE2C
:101BE000F3E0138212824483558366837783918363
:101BF000808385EC90E09587848784EC90E09787DC
:101C0000868780EC90E0918B808B81EC90E0938BC9
:101C1000828B82EC90E0958B848B86EC90E0978BA6
:101C2000868B118E128E138E148E08953F924F92D2
:101C30005F926F927F928F929F92AF92BF92CF925C
:101C4000DF92EF92FF920F931F93CF93DF935C018C
:101C50006B017A016115710519F0FB019183808395
:101C6000E114F10429F0C7010297839708F0E2C05C
:101C7000E5012196F5011081812F90E02BD1892B70
:101C800011F05E01F5CF1D3229F42196F501118185
:101C900001E007C01B3221F4E5012296F501118114
:101CA00000E0E114F10409F1F0E1EF16F10429F488
:101CB0003EC010E3E114F10421F128E0E216F10442
:101CC00001F154F4E2E0EE16F10421F5812C912C9F
:101CD000A12CB0E4BB2E3DC0FAE0EF16F10439F0C0
:101CE00020E1E216F104B1F42FC0103311F1FAE053
:101CF000EF2EF12CACEC8A2E982CA82CACE0BA2E4E
:101D000028C078E0E72EF12C812C912CA12CE0E169
:101D1000BE2E1FC060E070E080E090E897010F2CBD
:101D2000000C440B550B89D349015A0112C01033E2
:101D300059F488818F7D883509F0BBCF19812296AF
:101D4000026080E1E82EF12C812C912CA12C68E01E
:101D5000B62E40E060E070E0CB0127010F2C000CB4
:101D600066087708FE0150ED352E310E29E0231567
:101D700070F42FEB210F2A3118F439EC332E06C002
:101D80002FE9210F2A3110F529EA322E310E232DA9
:101D900030E02E153F05D4F447FD15C08616970692
:101DA000A806B90668F0A301920138D3630D711D2E
:101DB000811D911D61307105810520E8920710F0A9
:101DC0004FEF01C041E021961081CCCF202F217030
:101DD000C114D10471F0442329F02197F601D18375
:101DE000C08307C001FF19C02297F601D183C083C9
:101DF00014C047FF12C0222329F060E070E080E0A9
:101E000090E804C06FEF7FEF8FEF9FE722E230E0B2
:101E1000309383042093820409C0222381F090959B
:101E20008095709561957F4F8F4F9F4F462F372F2D
:101E3000282F12C040E030E020E090E00DC097FF76
:101E4000F5CF82E290E090938304809382046FEF59
:101E50007FEF8FEF9FE7EACF642F732F822FDF9101
:101E6000CF911F910F91FF90EF90DF90CF90BF9097
:101E7000AF909F908F907F906F905F904F903F902A
:101E800008956627772743C01F93FC019927882769
:101E9000BC01E89411911032E9F3193010F01E30B2
:101EA000C8F31B3249F01D3241F4689405C01AD0C2
:101EB000610F711D811D911D119110531A30B8F3DE
:101EC0003EF490958095709561957F4F8F4F9F4F11
:101ED0001F91089591116EC1803219F0895085507B
:101EE000D0F70895592F482F372F262F660F771FC9
:101EF000881F991F660F771F881F991F620F731F16
:101F0000841F951F660F771F881F991F08958F9252
:101F10009F92AF92BF92CF92DF92EF92FF920F9378
:101F20001F93CF93DF93EC016B016115710519F0DD
:101F3000FB01918380837E01FFEFEF1AFF0A088186
:101F4000802F90E0C7DF892B11F0E701F4CF0D322D
:101F500039F47E0182E0E80EF11C098111E008C02D
:101F60000B3229F47E0192E0E90EF11C098110E0A8
:101F7000E701219743E050E06CEE70E0CE011DD107
:101F8000892BB9F4239645E050E067EE70E0CE016E
:101F900014D1892B09F42596C114D10419F0F60146
:101FA000D183C0831111F0C060E070E080E89FE74A
:101FB000F4C043E050E064EE70E0CE01FED0892B27
:101FC00059F4C114D10409F4E4C0F2E0EF0EF11C9D
:101FD000F601F182E082DDC020E030E0A901C0E03E
:101FE000D0E0F70160EDA62EA00E89E08A1528F159
:101FF000912F9260B92E812F887012FF04C0811139
:1020000023C0219621C081112197A5E0B0E037D2ED
:10201000DC01CB01880F991FAA1FBB1F9C01AD01DA
:102020002A0D311D411D511D283989E938074807FE
:1020300089E1580748F0166006C09EEFA9120AC051
:1020400013FD40C01860B12E8FEFE81AF80A008126
:102050001B2DC7CF802F8F7D8534A1F580818D32D8
:1020600011F4106106C08B3221F0319661E070E00E
:1020700004C08181329662E070E080538A3018F0AB
:10208000E61BF70B1FC060E070E060389CE079074A
:102090005CF4DB01AA0FBB1FAA0FBB1F6A0F7B1FDB
:1020A000660F771F680F711D3196DF0111978C91B4
:1020B00080538A3050F314FF03C071956195710904
:1020C000C60FD71F11FF08C0C114D10429F0CF01DA
:1020D0000197F60191838083CA01B9018AD0212F2B
:1020E0002370233019F04B015C0106C04B015C01E9
:1020F000B7FAB094B7F8B09420E030E0A901C50178
:10210000B40173D0882309F43CC0D7FF06C0D19531
:10211000C195D10903E011E002C00BE111E06801B3
:10212000F8E1CF1AD10890E2E92EF12CCE15DF05A7
:102130006CF0F8012591359145915491C501B40198
:10214000B9D04B015C01CE19DF09F0CF0450110961
:10215000F594E7940C151D0549F78A2D880F8B2DF2
:10216000881F8F3F41F020E030E0A901C501B40194
:102170003CD0811106C082E290E09093830480936A
:102180008204C501B40109C060E070E080E89FEFFF
:1021900004C060E070E080EC9FE7DF91CF911F9179
:1021A0000F91FF90EF90DF90CF90BF90AF909F90F6
:1021B0008F900895992788270895FB01DC014150ED
:1021C000504088F08D9181341CF08B350CF4805E8A
:1021D000659161341CF06B350CF4605E861B6111F7
:1021E00071F3990B0895881BFCCF40D008F481E06F
:1021F0000895E89409C097FB3EF4909580957095FA
:1022000061957F4F8F4F9F4F9923A9F0F92F96E942
:10221000BB279395F695879577956795B795F111B7
:10222000F8CFFAF4BB0F11F460FF1BC06F5F7F4F54
:102230008F4F9F4F16C0882311F096E911C0772366
:1022400021F09EE8872F762F05C0662371F096E86F
:10225000862F70E060E02AF09A95660F771F881F3E
:10226000DAF7880F9695879597F90895990F0008E2
:10227000550FAA0BE0E8FEEF16161706E807F90758
:10228000C0F012161306E407F50798F0621B730BF3
:10229000840B950B39F40A2661F0232B242B252B74
:1022A00021F408950A2609F4A140A6958FEF811D17
:1022B000811D08950BD078C069D028F06ED018F039
:1022C000952309F05AC05FC01124A2C07ED0A0F3AC
:1022D000959FD1F3950F50E0551F629FF001729FBB
:1022E000BB27F00DB11D639FAA27F00DB11DAA1FDA
:1022F000649F6627B00DA11D661F829F2227B00D27
:10230000A11D621F739FB00DA11D621F839FA00DB1
:10231000611D221F749F3327A00D611D231F849F01
:10232000600D211D822F762F6A2F11249F57504058
:102330008AF0E1F088234AF0EE0FFF1FBB1F661FF3
:10234000771F881F91505040A9F79E3F510570F0AC
:1023500014C05EC05F3FECF3983EDCF38695779542
:102360006795B795F795E7959F5FC1F7FE2B880FA7
:10237000911D9695879597F9089597F99F6780E83D
:1023800070E060E008959FEF80EC089500240A94C7
:102390001616170618060906089500240A94121640
:1023A0001306140605060895092E0394000C11F473
:1023B000882352F0BB0F40F4BF2B11F460FF04C020
:1023C0006F5F7F4F8F4F9F4F089557FD9058440F79
:1023D000551F59F05F3F71F04795880F97FB991F84
:1023E00061F09F3F79F08795089512161306140641
:1023F000551FF2CF4695F1DF08C0161617061806CE
:10240000991FF1CF86957105610508940895E894A8
:10241000BB2766277727CB0197F90895DB018F93B8
:102420009F932DD0BF91AF91A29F800D911DA39F2F
:10243000900DB29F900D11240895A1E21A2EAA1BAF
:10244000BB1BFD010DC0AA1FBB1FEE1FFF1FA21764
:10245000B307E407F50720F0A21BB30BE40BF50B61
:10246000661F771F881F991F1A9469F760957095EA
:10247000809590959B01AC01BD01CF01089509D0D5
:10248000A59F900DB49F900DA49F800D911D1124C8
:102490000895A29FB001B39FC001A39F700D811D3D
:1024A0001124911DB29F700D811D1124911D08955D
:1024B0005058BB27AA270ED077CF68DF30F06DDFEA
:1024C00020F031F49F3F11F41EF45DCF0EF4E0953F
:1024D000E7FB53CFE92F79DF80F3BA176207730761
:1024E0008407950718F071F49EF591CF0EF4E095EE
:1024F0000B2EBA2FA02D0B01B90190010C01CA01BE
:10250000A0011124FF27591B99F0593F50F4503E68
:1025100068F11A16F040A22F232F342F4427585F5A
:10252000F3CF469537952795A795F0405395C9F772
:102530007EF41F16BA0B620B730B840BBAF091502A
:10254000A1F0FF0FBB1F661F771F881FC2F70EC0C9
:10255000BA0F621F731F841F48F48795779567959C
:10256000B795F7959E3F08F0B3CF9395880F08F085
:102570009927EE0F9795879508950CD015CF0DDF0D
:1025800040F004DF30F021F45F3F19F0F6CE511136
:102590003FCFF9CE1ADF98F39923C9F35523B1F34E
:1025A000951B550BBB27AA2762177307840738F0C2
:1025B0009F5F5F4F220F331F441FAA1FA9F333D021
:1025C0000E2E3AF0E0E830D091505040E695001CD5
:1025D000CAF729D0FE2F27D0660F771F881FBB1F91
:1025E000261737074807AB07B0E809F0BB0B802D6B
:1025F000BF01FF2793585F4F2AF09E3F510568F0B7
:10260000BCCE06CF5F3FECF3983EDCF38695779522
:102610006795B795F7959F5FC9F7880F911D9695B8
:10262000879597F90895E1E0660F771F881FBB1F14
:10263000621773078407BA0720F0621B730B840BC1
:10264000BA0BEE1F88F7E0950895C7DE88F09F5714
:1026500090F0B92F9927B751A0F0D1F0660F771FEE
:10266000881F991F1AF0BA95C9F712C0B13081F0CE
:10267000CEDEB1E00895CBCE672F782F8827B85FE4
:1026800039F0B93FCCF3869577956795B395D9F72F
:102690003EF490958095709561957F4F8F4F9F4F39
:1026A0000895E4DD08F48FEF0895E0DD880B990BC1
:1026B0000895EE0FFF1F881F8BBF0790F691E02D46
:1026C00019940F931F93CF93DF938230910510F4E9
:1026D00082E090E0E0918604F091870420E030E011
:1026E000A0E0B0E0309719F140815181028113815F
:1026F00048175907C8F08417950769F4109731F007
:1027000012960C93129713961C9327C0009386047D
:102710001093870422C02115310519F04217530781
:1027200018F49A01BD01EF01DF01F801DBCF21159B
:102730003105F9F0281B390B2430310580F48A81EA
:102740009B816115710521F0FB019383828304C095
:102750009093870480938604FE01329644C0FE0164
:10276000E20FF31F8193919322503109398328831B
:102770003AC02091840430918504232B41F42091A8
:102780000202309103023093850420938404209147
:102790000002309101022115310541F42DB73EB7F9
:1027A0004091040250910502241B350BE0918404F2
:1027B000F0918504E217F307A0F42E1B3F0B2817B6
:1027C000390778F0AC014E5F5F4F2417350748F0AA
:1027D0004E0F5F1F5093850440938404819391931F
:1027E00002C0E0E0F0E0CF01DF91CF911F910F91A7
:1027F0000895CF93DF93009709F481C0FC013297CD
:1028000013821282A0918604B0918704109781F4FC
:1028100020813181820F931F20918404309185049F
:102820002817390751F5F0938504E093840467C0B5
:10283000ED0120E030E0CE17DF0740F44A815B81F4
:102840009E0141155105F1F0EA01F5CFD383C28312
:1028500040815181840F951FC817D90759F4888189
:102860009981840F951F0296918380838A819B8131
:10287000938382832115310529F4F0938704E09333
:1028800086043DC0E901FB83EA8349915991C40F55
:10289000D51FEC17FD0761F480819181840F951F8E
:1028A0000296E90199838883828193819B838A833D
:1028B000E0E0F0E012968D919C911397009719F04B
:1028C000FD01DC01F7CF8D919C9111979D012E5F49
:1028D0003F4F820F931F2091840430918504281765
:1028E000390769F4309729F410928704109286040E
:1028F00002C013821282B0938504A0938404DF91F6
:10290000CF9108956F927F928F929F92AF92BF92D4
:10291000CF92DF92EF92FF920F931F93CF93DF93AB
:10292000009781F4CB01DF91CF911F910F91FF9020
:10293000EF90DF90CF90BF90AF909F908F907F905F
:102940006F90BFCEFC01E60FF71F9C0122503109AA
:10295000E217F30708F4A5C0EC01D9010D911C9111
:10296000119706171707A8F00530110508F497C04E
:10297000C80104978617970708F491C002501109FF
:10298000061B170B019311936D937C93CF0131DFDD
:1029900086C05B01A01AB10A4C01800E911EA09165
:1029A0008604B0918704612C712CE12CF12C1097D6
:1029B00009F446C08D919C911197A815B905B1F500
:1029C0006C0142E0C40ED11CCA14DB0478F14C0146
:1029D0008A189B08640142E0C40ED11C1296BC9078
:1029E00012971396AC91B5E0CB16D10440F0B282A9
:1029F000A38391828082D9016D937C9309C00E5F7D
:102A00001F4F800F911FF90191838083EB2DFA2FC7
:102A1000E114F10431F0D7011396FC93EE93129771
:102A20003EC0F0938704E093860439C068167906A7
:102A300008F43C017D0112960D90BC91A02DB7CFFA
:102A4000809184049091850488169906E1F46616B5
:102A50007706C8F48091000290910102009741F43A
:102A60008DB79EB74091040250910502841B950BCF
:102A7000E817F907B0F4F0938504E0938404F901B2
:102A8000718360830CC0CB011CDE7C01009749F090
:102A9000A801BE011BD0CE01ACDEC70104C0CE012F
:102AA00002C080E090E0DF91CF911F910F91FF90E5
:102AB000EF90DF90CF90BF90AF909F908F907F90DE
:102AC0006F90089581E090E0F89441C0FB01DC0133
:102AD00002C001900D9241505040D8F70895FC017A
:102AE0008191861721F08823D9F799270895319786
:102AF000CF010895FB01DC018D9101908019011037
:102B0000D9F3990B0895FB01DC0101900D9200208F
:102B1000E1F70895FB01DC014150504030F08D9108
:102B20000190801919F40020B9F7881B990B0895BA
:102B3000FB01DC014150504048F001900D92002013
:102B4000C9F701C01D9241505040E0F70895F89434
:022B5000FFCFB5
:102B5200000088048000000000002B029F01CC01CD
:102B62007702FD01DB01EF016E756C6C0050726F34
:102B72006772616D20737461727465642E2E2E000B
:102B82002D2D2D0024504D544B3331342C302C310B
:102B92002C302C312C302C302C302C302C302C3052
:102BA2002C302C302C302C302C302C302C302C3043
:102BB2002C302A323800245047434D442C33332CD6
:102BC200302A364400244750474741002447505298
:102BD2004D43004572726F72212053656E74656EAB
:102BE200636520646F6573206E6F7420656E642068
:102BF2007769746820272A585827004572726F72C5
:102C020021204E4D45412073656E74656E636520CB
:102C12006E6F742076616C69642E002400457272B6
:102C22006F72212053656E74656E636520646F65F3
:102C320073206E6F74207374617274207769746884
:102C420020272427004572726F72212070617273EF
:102C52006520756E7375636365737366756C2E009C
:102C62000D0A004572726F722120436865636B73AF
:102C7200756D7320646F6E2774206D617463682EA6
:0E2C8200006E616E00696E66006F766600007F
:00000001FF
