:1000000090C00000BEC00000BCC00000BAC000002C
:10001000B8C00000B6C00000B4C00000B2C000000C
:10002000B0C0000088C3000086C3000084C3000085
:10003000A8C00000A6C00000A4C00000A2C000002C
:10004000A0C000009EC000009CC000009AC000003C
:1000500098C0000096C0000094C0000022C30000B9
:1000600090C00000DCC20000B1C200008AC00000E5
:1000700088C0000086C0000084C0000082C000006C
:1000800080C000007EC000007CC000007AC000007C
:1000900078C0000076C0000074C0000072C000008C
:1000A00070C000006EC000006CC000006AC000009C
:1000B00068C0000066C0000064C0000062C00000AC
:1000C00060C000005EC000005CC000005AC00000BC
:1000D00058C0000056C0000043C2000018C2000013
:1000E00050C000004E414E494E495459494E46CDEC
:1000F000CCCC3D0AD7233C17B7D13877CC2B3295DF
:1001000095E6241FB14F0A000020410000C84200BC
:10011000401C4620BCBE4CCA1B0E5AAEC59D740086
:10012000B60D11241FBECFEFD1E2DEBFCDBF00E080
:100130000CBF25E0A2E0B3E001C01D92A939B207CF
:10014000E1F713E0A0E0B2E0E4EEF6E200E00BBF7E
:1001500002C007900D92A230B107D9F710E0C1E9B3
:10016000D0E000E006C021970109802FFE010E9427
:100170003013C039D10780E00807A9F7A8D40C9440
:1001800070133ECFCF92DF92EF92FF920F931F93A7
:10019000CF93DF936C017A018B01C0E0D0E0CE15E4
:1001A000DF0581F0D8016D918D01D601ED91FC91B3
:1001B0000190F081E02DC6011995892B11F021964F
:1001C000EECF7E01C701DF91CF911F910F91FF907C
:1001D000EF90DF90CF900895FC01538D448D252F33
:1001E00030E0842F90E0821B930B541710F0CF96D1
:1001F000089501970895FC01918D828D981761F003
:10020000828DDF01A80FB11D5D968C91928D9F5F4D
:100210009F73928F90E008958FEF9FEF0895FC01F8
:10022000918D828D981731F0828DE80FF11D858DAB
:1002300090E008958FEF9FEF0895FC01918D228D3E
:10024000892F90E0805C9F4F821B91098F739927C3
:1002500008958BEA94E0F1DF21E0892B09F420E096
:10026000822F089584E193E0E8DF21E0892B09F4EF
:1002700020E0822F0895FC01848DDF01A80FB11DBD
:10028000A35ABF4F2C91848D90E001968F739927CC
:10029000848FA689B7892C93A089B1898C918370AA
:1002A00080648C93938D848D981306C00288F389A3
:1002B000E02D80818F7D80830895EF92FF920F93D0
:1002C0001F93CF93DF93EC0181E0888F9B8D8C8D02
:1002D000981305C0E889F989808185FD25C0F62E2F
:1002E0000B8D10E00F5F1F4F0F731127E02E8C8DC9
:1002F000E8120BC00FB607FCFACFE889F9898081B4
:1003000085FFF5CFCE01B7DFF2CF8B8DFE01E80F71
:10031000F11DE35AFF4FF0829FB7F8940B8FEA89E3
:10032000FB89808180620AC09FB7F894EE89FF89BB
:100330006083E889F98980818370806480839FBFAE
:1003400081E090E0DF91CF911F910F91FF90EF90AE
:100350000895CF93DF93EC01888D8823C1F0EA895B
:10036000FB89808185FD05C0A889B9898C9186FDAE
:100370000EC00FB607FCF5CF808185FFF2CFA889AC
:10038000B9898C9185FFEDCFCE0175DFE8CFDF9184
:10039000CF91089580E090E0892B19F063DF8111FF
:1003A00020C080E090E0892B41F080E090E0892B34
:1003B00021F00E940000811117C080E090E0892B9D
:1003C00041F080E090E0892B21F00E940000811133
:1003D0000EC080E090E0892B79F03BDF81110AC0EC
:1003E00008950E940000DDCF0E940000E6CF0E9429
:1003F0000000EFCF0C94000008953FB7F89480916F
:10040000080390910903A0910A03B0910B0326B54C
:10041000A89B05C02F3F19F00196A11DB11D3FBF3C
:10042000BA2FA92F982F8827820F911DA11DB11DCA
:10043000BC01CD0142E0660F771F881F991F4A95C6
:10044000D1F708958F929F92AF92BF92CF92DF9291
:10045000EF92FF926B017C01D0DF4B015C01C11474
:10046000D104E104F104E9F0C8DFDC01CB01881913
:100470009909AA09BB09883E9340A105B10578F303
:1004800021E0C21AD108E108F10888EE880E83E065
:10049000981EA11CB11CC114D104E104F10421F780
:1004A000DECFFF90EF90DF90CF90BF90AF909F9006
:1004B0008F900895089580E090E008950E94381389
:1004C0006115710579F0FB0101900020E9F7319782
:1004D000AF01461B570BDC01ED91FC910280F381CB
:1004E000E02D199480E090E008950F931F93CF932F
:1004F000DF93EC01E5DF8C0162E172E0CE01E0DF29
:10050000800F911FDF91CF911F910F9108951F923E
:100510000F920FB60F9211240BB60F922F933F93A9
:100520004F935F936F937F938F939F93AF93BF93FB
:10053000EF93FF938BEA94E09EDEFF91EF91BF91E2
:10054000AF919F918F917F916F915F914F913F916B
:100550002F910F900BBE0F900FBE0F901F9018950C
:100560001F920F920FB60F9211240BB60F922F937A
:100570008F939F93EF93FF93E091BB04F091BC04A2
:100580008081E091C104F091C20482FD12C090818B
:100590008091C4048F5F8F732091C504821751F03E
:1005A000E091C404F0E0E555FB4F958F8093C404BF
:1005B00001C08081FF91EF919F918F912F910F90BA
:1005C0000BBE0F900FBE0F901F9018951F920F92A9
:1005D0000FB60F9211240BB60F922F933F934F93A8
:1005E0005F936F937F938F939F93AF93BF93EF939B
:1005F000FF9384E193E03FDEFF91EF91BF91AF91D4
:100600009F918F917F916F915F914F913F912F912A
:100610000F900BBE0F900FBE0F901F9018951F925A
:100620000F920FB60F9211240BB60F922F938F9348
:100630009F93EF93FF93E0912403F0912503808132
:10064000E0912A03F0912B0382FD12C090818091EA
:100650002D038F5F8F7320912E03821751F0E0914D
:100660002D03F0E0EC5EFC4F958F80932D0301C0CD
:100670008081FF91EF919F918F912F910F900BBEF1
:100680000F900FBE0F901F9018952FB7F8946091A0
:1006900004037091050380910603909107032FBF17
:1006A00008951F920F920FB60F9211242F933F932C
:1006B0008F939F93AF93BF93809104039091050311
:1006C000A0910603B09107033091030323E0230FA9
:1006D0002D3720F40196A11DB11D05C026E8230F7A
:1006E0000296A11DB11D20930303809304039093F0
:1006F0000503A0930603B09307038091080390912C
:100700000903A0910A03B0910B030196A11DB11D2D
:100710008093080390930903A0930A03B0930B03FB
:10072000BF91AF919F918F913F912F910F900FBEED
:100730000F901F9018951F920F920FB60F921124D1
:100740000BB60F922F933F938F939F93AF93BF93CB
:10075000CF93DF93EF93FF93E0910E03F0910F039C
:10076000309709F43FC0968DA685B785858591FFA2
:1007700004C09C91892321F435C09C91892391F573
:10078000A389B4899C918589809589238C938689D6
:1007900097890197F1F7208D318DC685D78588E03F
:1007A000D9011197F1F798818150D1F780910D030C
:1007B00090E001968F73992720910C03281729F058
:1007C00090910D0380930D0303C0868D8160868F09
:1007D000828D938D0197F1F7A389B4899C918589C6
:1007E000892B8C93FF91EF91DF91CF91BF91AF91C6
:1007F0009F918F913F912F910F900BBE0F900FBE45
:100800000F901F901895BC018091930590919405CD
:10081000009721F4809195059091960566CE8F9270
:100820009F92AF92BF920F931F93CF93DF93CDB759
:10083000DEB7A1970FB6F894DEBF0FBECDBF19A2E9
:10084000423008F44AE08E010F5D1F4F842E912C38
:10085000A12CB12CA50194010E94F212E62FB9013E
:10086000CA0101501109EA3014F4E05D01C0E95CED
:10087000D801EC93232B242B252B61F7B80184E1BD
:1008800093E01EDEA1960FB6F894DEBF0FBECDBF7B
:10089000DF91CF911F910F91BF90AF909F908F905C
:1008A0000895682F84E193E008CDCF92DF92EF9214
:1008B000FF92CF93DF936C01990FEE08FF08F7FECC
:1008C0000FC08DE2EEDFEC0166277727CB016C19B4
:1008D0007D098E099F094AE0A2DFC80FD91F05C014
:1008E0004AE0C701B6019BDFEC0162E172E084E1FE
:1008F00093E0E6DD8C0F9D1FDF91CF91FF90EF908D
:10090000DF90CF900895BC0184E193E0D9CD8F9220
:100910009F92AF92BF92CF92DF92EF92FF920F938E
:100920001F93CF93DF936B017C01142F9B01AC01CC
:100930000E94DF12882319F065EF72E027C046019C
:100940005701E894B7F82FEF3FEF4FE75FE7C50196
:10095000B4010E94DF1281110DC02FEF3FEF4FE76E
:100960005FE7C501B4010E944C1018161CF469EF32
:1009700072E00CC02FEF3FEF4FE75FE4C701B60115
:100980000E94DB1218168CF46DEF72E084E193E0A4
:10099000DF91CF911F910F91FF90EF90DF90CF905B
:1009A000BF90AF909F908F908BCD2FEF3FEF4FE791
:1009B0005FECC701B6010E944C1087FDE5CF20E037
:1009C00030E0A901C701B6010E944C1087FF08C0A2
:1009D0008DE267DFEC01F7FAF094F7F8F09402C0CB
:1009E000C0E0D0E000E060E070E080E09FE310173E
:1009F00041F020E030E040E251E40E94E6110F5F58
:100A0000F6CFA70196010E9482116B017C010E9422
:100A100053124B015C014AE002DFC80FD91F1123BA
:100A200099F1C501B4010E9450109B01AC01C701AE
:100A3000B6010E9481116B017C018EE232DFC80F8A
:100A4000D91F20E030E040E251E4C701B6010E9426
:100A5000B1104B015C010E9453126B01E12CF12C8F
:100A60004AE0C701B601DBDEC80FD91FC701B601D6
:100A70000E9450109B01AC01C501B4010E9481117C
:100A80006B017C011150E9F6CE01DF91CF911F91EE
:100A90000F91FF90EF90DF90CF90BF90AF909F901D
:100AA0008F900895CF93DF9342E031DFEC0162E154
:100AB00072E084E193E004DD8C0F9D1FDF91CF9104
:100AC0000895682F70E080E090E04AE0A8CECF93D0
:100AD000DF93CDB7DEB72A970FB6F894DEBF0FBE0F
:100AE000CDBF789484B5826084BD84B5816084BDB7
:100AF00085B5826085BD85B5816085BD80916E00BC
:100B0000816080936E0010928100809181008260EC
:100B10008093810080918100816080938100809129
:100B200080008160809380008091B1008460809318
:100B3000B1008091B00081608093B00080919100FD
:100B400082608093910080919100816080939100F8
:100B5000809190008160809390008091A1008260DC
:100B60008093A1008091A10081608093A100809179
:100B7000A00081608093A000809121018260809319
:100B800021018091210181608093210180912001C8
:100B900081608093200180917A00846080937A0044
:100BA00080917A00826080937A0080917A008160DF
:100BB00080937A0080917A00806880937A00109206
:100BC000C100E0912403F091250302E00083E0914D
:100BD0002003F09121031082E0912203F09123037E
:100BE00080E1808310922C03E0912803F091290387
:100BF00016E01083E0912603F09127038081806145
:100C00008083E0912603F0912703808188608083B0
:100C1000E0912603F0912703808180688083E09132
:100C20002603F091270380818F7D808365E172E048
:100C300084E193E05ADCE0919305F09194053097BC
:100C400009F49FC0138E128E118E108E178A168A89
:100C50008DE991E0958F848F848596EF980F94307D
:100C600048F02EEC280F243028F022EC280F2830F2
:100C700008F057C02DEB30E0378B268B2BE931E0A5
:100C8000318F208F2CE231E0338F228F943058F057
:100C90002EEC280F243038F042EC480F483030F466
:100CA00028E630E005C028E630E05DC720E030E00F
:100CB000483008F458C7A0E0B0E04C91943008F4F4
:100CC00036C79EEC980F943008F431C78E538830A5
:100CD00008F02DC784E0842BD9018C93848596EF8E
:100CE000980F943008F425C72EEC280F243008F410
:100CF00020C722EC280F283008F01EC72DE630E070
:100D0000348B238B943008F01AC79AEF980F81E048
:100D100001C0880F9A95EAF7858B848D958D019790
:100D2000F1F7828D938D892B09F452C040910E0307
:100D300050910F03E417F50709F44AC04115510516
:100D400071F0DA0153962D913C915497D9019C9101
:100D5000DA0155968C9180958923D9018C93868DE3
:100D60008E7F868F10920D0310920C03F0930F0369
:100D7000E0930E03A389B4899C918589892B8C9378
:100D800027C0E0919505F0919605A089B1890C9353
:100D9000A485B5851C92A685B7858FEC8C93108EA3
:100DA000A489B5891C93A289B3898C9180618C93A5
:100DB000A289B3898C9188608C93A289B3898C9124
:100DC00080688C930288F389E02D80818F7D8083F9
:100DD0006AE070E080E090E035DB88E292E013DDCD
:100DE0008AE592E010DD8BE692E00DDD60ED77E0C4
:100DF00080E090E027DB84E6C82ED12CE12CF12C9A
:100E000094E6392E80919205811171C080919305ED
:100E100090919405009779F0DC01ED91FC910084AC
:100E2000F185E02D1995892B09F461C08091930516
:100E30009091940512C08091950590919605DC01E2
:100E4000ED91FC910084F185E02D1995892B09F431
:100E50004EC08091950590919605DC01ED91FC9135
:100E60000284F385E02D19958A3069F59091A504E7
:100E7000E091A304F091A404E90FF11D10822091E8
:100E8000A3043091A404B4E02B323B0759F4E1EB06
:100E9000F3E0F093A404E093A30430932A04209396
:100EA00029040CC02BE234E03093A4042093A30463
:100EB00041EB53E050932A04409329041092A50477
:100EC00051E05093A604E091A304F091A404909102
:100ED000A50421E0290F2093A504E90FF11D8083CB
:100EE0008091A504883718F087E78093A504809146
:100EF000100390911103A0911203B0911303019676
:100F0000A11DB11D8093100390931103A0931203B0
:100F1000B09313032090A604211019C0B6DB0091F2
:100F2000A7041091A8042091A9043091AA04601785
:100F300071078207930708F002C5A7DB6093A70437
:100F40007093A8048093A9049093AA04F8C4109203
:100F5000A6046091290470912A0484E193E0C5DA23
:100F60001092A6040091290410912A04F80101901E
:100F70000020E9F73197E01BF10BAF014450510914
:100F8000D801A40FB51F8C918A32D9F5E00FF11F5B
:100F9000DF0113978C91803354F08A3314F480531B
:100FA00007C09FEB980F963010F4875301C080E084
:100FB000A0E18A9FC001112432972081203354F090
:100FC0002A3314F4205307C03FEB320F363010F4AD
:100FD000275301C020E0820F911D62E0262F30E0F0
:100FE0002417350758F4F801E20FF31F2081022E71
:100FF000000C330B822793276F5FF0CF892B09F00A
:1010000093C56AE772E0C8010E945613892B09F460
:1010100057C26CE270E0C8010E943C138C010F5F64
:101020001F4FC80163D64B015C010E9453122B0174
:101030003C0120E137E240E050E00E94F2122093B0
:101040004805A70196010E94F21220934905C301A9
:10105000B201A70196010E94F21260934A0520E0B6
:1010600030E040E85FE3C501B4010E94861220E051
:1010700030E04AE754E40E94B1100E94531270938A
:101080004C0560934B056CE270E0C8010E943C1374
:101090005C018C010F5F1F4FFC0181818C3209F4D0
:1010A000A2C042E050E0B801CE0101960E94471371
:1010B0001B82CE0101963AD69B01AC0160E876E92D
:1010C00088E990E00E94E3122B013C01B5016D5FBD
:1010D0007F4F42E050E0CE0101960E9447130B5F24
:1010E0001F4F44E050E0B801CE0103960E94471321
:1010F0001F82CE0101961AD69B01AC01A2E3B0E09B
:101100000E94681123E030E040E050E00E94141398
:1011100049015A01D301C201820F931FA41FB51FB9
:101120008093580590935905A0935A05B0935B0599
:10113000C301B20120EA36E841E050E00E941413F6
:10114000CA01B901AFD72B013C01C501B401AAD72F
:101150002CE933E549EC56E30E94B1109B01AC0148
:10116000C301B2010E9482112B013C016093500522
:1011700070935105809352059093530520E030E021
:1011800048EC52E40E94E6110E944E124B015C01B1
:10119000389CB001399C700D1124072E000C880B6F
:1011A000990B80D79B01AC01C301B2010E94811150
:1011B00020E030E040E752E40E94E6112B013C01C0
:1011C000B401990C880B990B6DD79B01AC01C3013D
:1011D000B2010E9482116093600570936105809353
:1011E0006205909363056CE270E0C8010E943C13B5
:1011F000FC019C012F5F3F4F81818C3201F18335CF
:1012000089F48091600590916105A0916205B0918B
:101210006305B0588093600590936105A0936205C3
:10122000B093630591819E3411F0933519F4909336
:10123000800505C09C3209F077C4109280056CE2ED
:1012400070E0C9010E943C135C018C010F5F1F4FCD
:10125000DC0111968C918C3209F49EC043E050E081
:10126000B801CE0101960E9447131C82CE0101965F
:101270005DD59B01AC0160E876E988E990E00E94C9
:10128000E3122B013C01B5016C5F7F4F42E050E05F
:10129000CE0101960E9447130A5F1F4F44E050E0C1
:1012A000B801CE0103960E9447131F82CE0101961A
:1012B0003DD59B01AC01A2E3B0E00E94681123E0A0
:1012C00030E040E050E00E94141349015A01D3017C
:1012D000C201820F931FA41FB51F80935C059093DA
:1012E0005D05A0935E05B0935F05C301B20120EADE
:1012F00036E841E050E00E941413CA01B901D2D689
:101300002B013C01C501B401CDD62CE933E549ECF4
:1013100056E327D79B01AC01C301B201F3D72B01E0
:101320003C01609354057093550580935605909346
:10133000570520E030E048EC52E40E94E6110E949C
:101340004E124B015C01389CB001399C700D112488
:10135000072E000C880B990BA5D69B01AC01C3018D
:10136000B201CFD720E030E040E752E40E94E6111E
:101370002B013C01B401990C880B990B93D69B016E
:10138000AC01C301B201BED76093640570936505DB
:1013900080936605909367056CE270E0C8010E9437
:1013A0003C13FC019C012F5F3F4F81818C3201F186
:1013B000873589F48091640590916505A091660553
:1013C000B0916705B0588093640590936505A0932C
:1013D0006605B09367059181973511F0953419F43E
:1013E0009093810505C09C3209F09EC3109281053F
:1013F0006CE270E0C9010E943C138C010F5F1F4F2B
:10140000FC0181818C3221F0C80173D48093840562
:101410006CE270E0C8010E943C138C010F5F1F4F0B
:10142000DC0111968C918C3221F0C80162D480933A
:1014300085056CE270E0C8010E943C138C010F5FCF
:101440001F4FFC0181818C3251F0C8014FD4609351
:101450007C0570937D0580937E0590937F056CE2FB
:1014600070E0C8010E943C138C010F5F1F4FDC012C
:1014700011968C918C3251F0C80138D460936C0570
:1014800070936D0580936E0590936F056CE270E02C
:10149000C8010E943C136CE270E001960E943C136C
:1014A000FC0121812C3209F447C201961FD46093BC
:1014B00068057093690580936A0590936B053CC23B
:1014C00061E872E0C8010E945613892B09F42CC30D
:1014D0006CE270E0C8010E943C138C010F5F1F4F4B
:1014E000C80104D44B015C01DED72B013C0120E193
:1014F00037E240E050E00E94F21220934805A70135
:1015000096010E94F21220934905C301B201A7017E
:1015100096010E94F21260934A0520E030E040E814
:101520005FE3C501B401F2D720E030E04AE754E4BC
:1015300018D6B9D770934C0560934B056CE270E0F8
:10154000C8010E943C13DC0111962C91213421F436
:10155000B1E0B093830505C0263509F0E5C21092CD
:1015600083056CE270E001960E943C135C018C01E3
:101570000F5F1F4FFC0181818C3209F49AC042E059
:1015800050E0B801CE0101960E9447131B82CE01A4
:101590000196CCD39B01AC0160E876E988E990E044
:1015A0000E94E3122B013C01B5016D5F7F4F42E0C9
:1015B00050E0CE0101960E9447130B5F1F4F44E09D
:1015C00050E0B801CE0103960E9447131F82CE015E
:1015D0000196ACD39B01AC01A2E3B0E079D623E045
:1015E00030E040E050E00E94141349015A01D30159
:1015F000C201820F931FA41FB51F809358059093BB
:101600005905A0935A05B0935B05C301B20120EAC6
:1016100036E841E050E00E941413CA01B90142D5F6
:101620002B013C01C501B4013DD52CE933E549EC62
:1016300056E397D59B01AC01C301B20163D62B01E0
:101640003C0160935005709351058093520590932F
:10165000530520E030E048EC52E4B8D61FD74B01E8
:101660005C01389CB001399C700D1124072E000CD0
:10167000880B990B17D59B01AC01C301B20141D670
:1016800020E030E040E752E4A1D62B013C01B40158
:10169000990C880B990B06D59B01AC01C301B201D3
:1016A00031D66093600570936105809362059093D5
:1016B00063056CE270E0C801DFD7FC019C012F5F7D
:1016C0003F4F81818C3201F1833589F4809160052F
:1016D00090916105A0916205B0916305B058809327
:1016E000600590936105A0936205B09363059181B5
:1016F0009E3411F0933519F49093800505C09C3207
:1017000009F012C2109280056CE270E0C901B4D7F2
:101710005C018C010F5F1F4FDC0111968C918C32A4
:1017200009F494C043E050E0B801CE010196AFD770
:101730001C82CE010196FAD29B01AC0160E876E9E9
:1017400088E990E040D72B013C01B5016C5F7F4FE9
:1017500042E050E0CE0101969AD70A5F1F4F44E065
:1017600050E0B801CE01039692D71F82CE010196B8
:10177000DDD29B01AC01A2E3B0E0AAD523E030E0CA
:1017800040E050E051D749015A01D301C201820F14
:10179000931FA41FB51F80935C0590935D05A093D4
:1017A0005E05B0935F05C301B20120EA36E841E06F
:1017B00050E03AD7CA01B90175D42B013C01C501EB
:1017C000B40170D42CE933E549EC56E3CAD49B014B
:1017D000AC01C301B20196D52B013C0160935405C5
:1017E00070935505809356059093570520E030E09F
:1017F00048EC52E4EBD552D64B015C01389CB00169
:10180000399C700D1124072E000C880B990B4AD4BB
:101810009B01AC01C301B20174D520E030E040E788
:1018200052E4D4D52B013C01B401990C880B990BDF
:1018300039D49B01AC01C301B20164D56093640546
:101840007093650580936605909367056CE270E080
:10185000C80112D7FC019C012F5F3F4F81818C3260
:1018600001F1873589F48091640590916505A09117
:101870006605B0916705B05880936405909365053F
:10188000A0936605B09367059181973511F0953463
:1018900019F49093810505C09C3209F045C110925E
:1018A00081056CE270E0C901E7D68C010F5F1F4F24
:1018B000FC0181818C3251F0C80118D2609370050F
:1018C0007093710580937205909373056CE270E0DC
:1018D000C801D2D68C010F5F1F4FDC0111968C918D
:1018E0008C3251F0C80102D2609374057093750573
:1018F00080937605909377056CE270E0C801BCD6C2
:10190000FC0121812C32C1F00196F0D1CCD54B01E4
:101910005C0120E137E240E050E064D620934F05BF
:10192000A70196015FD620934E05C501B401A7011A
:10193000960158D660934D052110F0CAF5C00E945B
:1019400045030091A7041091A8042091A9043091A7
:10195000AA04DC01CB01801B910BA20BB30B813DD0
:101960009740A105B10508F4DFC00E9445036093CC
:10197000A7047093A8048093A9049093AA0488E80C
:1019800092E00E9483046091100370911103809192
:101990001203909113034AE00E940F0462E172E087
:1019A00084E193E00E9460021092100310921103F0
:1019B000109212031092130383E992E00E948304B1
:1019C000809148057ED88AE30E94510480914905A0
:1019D00078D88AE30E94510480914A0572D88EE239
:1019E0000E94510460914B0570914C0580E090E09D
:1019F0004AE00E940F0462E172E084E193E00E94F9
:101A000060028BE992E00E94830480914F0559D8CF
:101A10008FE20E94510480914E0553D882EA92E0F1
:101A20000E94830480914D054CD862E172E084E10C
:101A300093E00E94600286EA92E00E948304609133
:101A4000830570E080E090E04AE00E940F048CEA99
:101A500092E00E9483048091840590E00E945504E6
:101A600080918305882309F45FC087EB92E00E9490
:101A700083046091500570915105809152059091B9
:101A8000530544E00E948704809180050E94510420
:101A900082EC92E00E948304609154057091550598
:101AA000809156059091570544E00E9487048091EB
:101AB00081050E94510462E172E084E193E00E949A
:101AC000600285EC92E00E94830460917005709141
:101AD000710580917205909173050E94520585ED04
:101AE00092E00E9483046091740570917505809165
:101AF0007605909177050E9452058DED92E00E9447
:101B0000830460916C0570916D0580916E059091D4
:101B10006F050E94520588EE92E00E948304809136
:101B2000850590E00E9455040E94CA016BC981E0BE
:101B3000D2C82BE630E0E4C820E030E0E1C88233D0
:101B400051F0833351F0843351F092EC980F983078
:101B500040F492ECDBC888E0DFC884E0DDC882E0B6
:101B6000DBC881E0D9C8A8E6B0E0A7C8ABEAB4E01A
:101B700013961C921E92129748EE53E060E070E0BC
:101B800014964D935D936D937C93179784E092E048
:101B900011969C938E9325E331E01D963C932E93F2
:101BA0001C9724E331E01F963C932E931E9720E36D
:101BB00031E051963C932E93509721E331E05396B8
:101BC0003C932E93529722E331E055963C932E930B
:101BD000549726E331E057963C932E9356975996A7
:101BE0001C9259975A961C925A975B961C925B9737
:101BF0005C961C925C97E4E1F3E0138212824483CA
:101C00005583668377839183808385EC90E0958705
:101C1000848784EC90E09787868780EC90E0918BB6
:101C2000808B81EC90E0938B828B82EC90E0958BA3
:101C3000848B86EC90E0978B868B118E128E138EA0
:101C4000148EE8E4F5E0109294051092930510923A
:101C5000A604109292051092A5048BE294E0909352
:101C6000A4048093A30481EB93E090932A048093CF
:101C7000290415AE14AE17821682158212821182C3
:101C8000108212AE11AE10AE13AE1482138214AADB
:101C900015AA16AA17AA10AA11AA12AA13AA14A65C
:101CA00015A616A617A610A611A612A613A614A26C
:101CB00015A216A217A210A211A212A213A2148694
:101CC0001586168617861086118612861386B0939F
:101CD0009605A09395050E9445036093A704709311
:101CE000A8048093A9049093AA04089566277727EF
:101CF00060C0FC0188279927E89421912032E9F3FC
:101D0000293010F02E30C8F32B3239F02D3231F457
:101D1000689403C046D0820F911D219120532A3030
:101D2000C8F31EF4909581959F4F08951F93FC0171
:101D300099278827BC01E89411911032E9F31930F2
:101D400010F01E30C8F31B3249F01D3241F4689484
:101D500005C012D0610F711D811D911D119110538D
:101D60001A30B8F33EF490958095709561957F4F49
:101D70008F4F9F4F1F910895592F482F372F262F90
:101D8000660F771F881F991F660F771F881F991F7F
:101D9000620F731F841F951F660F771F881F991F7F
:101DA00008957AE0979F902D879F802D910D1124A3
:101DB00008958F929F92AF92BF92CF92DF92EF924F
:101DC000FF920F931F93CF93DF93EC016B0161158B
:101DD000710519F0FB01918380837E01FFEFEF1AFB
:101DE000FF0A0881802F90E037D1892B11F0E7019D
:101DF000F4CF0D3239F47E0182E0E80EF11C098146
:101E000011E008C00B3229F47E0192E0E90EF11CCA
:101E1000098110E0E701219743E050E06CEE70E0AB
:101E2000CE0122D1892BB9F4239645E050E067EE2C
:101E300070E0CE0119D1892B09F42596C114D10483
:101E400019F0F601D183C0831111F0C060E070E099
:101E500080E89FE7F4C043E050E064EE70E0CE011C
:101E600003D1892B59F4C114D10409F4E4C0F2E080
:101E7000EF0EF11CF601F182E082DDC020E030E0DF
:101E8000A901C0E0D0E0F70160EDA62EA00E89E028
:101E90008A1528F1912F9260B92E812F887012FF38
:101EA00004C0811123C0219621C081112197A5E092
:101EB000B0E00ED2DC01CB01880F991FAA1FBB1F17
:101EC0009C01AD012A0D311D411D511D283989E9A3
:101ED0003807480789E1580748F0166006C09EEFAA
:101EE000A9120AC013FD40C01860B12E8FEFE81A86
:101EF000F80A00811B2DC7CF802F8F7D8534A1F577
:101F000080818D3211F4106106C08B3221F0319640
:101F100061E070E004C08181329662E070E080533D
:101F20008A3018F0E61BF70B1FC060E070E06038E5
:101F30009CE079075CF4DB01AA0FBB1FAA0FBB1F53
:101F40006A0F7B1F660F771F680F711D3196DF01C7
:101F500011978C9180538A3050F314FF03C0719510
:101F600061957109C60FD71F11FF08C0C114D104B4
:101F700029F0CF010197F60191838083CA01B9014D
:101F80008FD0212F2370233019F04B015C0106C044
:101F90004B015C01B7FAB094B7F8B09420E030E0A0
:101FA000A901C501B40178D0882309F43CC0D7FF4A
:101FB00006C0D195C195D10903E011E002C00BE143
:101FC00011E06801F8E1CF1AD10890E2E92EF12C76
:101FD000CE15DF056CF0F8012591359145915491AE
:101FE000C501B401BED04B015C01CE19DF09F0CFB1
:101FF00004501109F594E7940C151D0549F78A2D35
:10200000880F8B2D881F8F3F41F020E030E0A90121
:10201000C501B40141D0811106C082E290E09093E5
:10202000980580939705C501B40109C060E070E090
:1020300080E89FEF04C060E070E080EC9FE7DF91F4
:10204000CF911F910F91FF90EF90DF90CF90BF90B5
:10205000AF909F908F9008959111E6C0803219F053
:1020600089508550D0F70895FB01DC014150504064
:1020700088F08D9181341CF08B350CF4805E659175
:1020800061341CF06B350CF4605E861B611171F3DA
:10209000990B0895881BFCCF40D008F481E0089587
:1020A000E89409C097FB3EF49095809570956195F2
:1020B0007F4F8F4F9F4F9923A9F0F92F96E9BB27A8
:1020C0009395F695879577956795B795F111F8CF24
:1020D000FAF4BB0F11F460FF1BC06F5F7F4F8F4F8F
:1020E0009F4F16C0882311F096E911C0772321F085
:1020F0009EE8872F762F05C0662371F096E8862F1D
:1021000070E060E02AF09A95660F771F881FDAF773
:10211000880F9695879597F90895990F0008550FA0
:10212000AA0BE0E8FEEF16161706E807F907C0F05D
:1021300012161306E407F50798F0621B730B840B65
:10214000950B39F40A2661F0232B242B252B21F43F
:1021500008950A2609F4A140A6958FEF811D811DDF
:1021600008950BD07BC06CD028F071D018F0952367
:1021700009F05DC062C01124A5C081D0A0F3959F75
:10218000D1F3950F50E0551F629FF001729FBB275E
:10219000F00DB11D639FAA27F00DB11DAA1F649F0A
:1021A0006627B00DA11D661F829F2227B00DA11DBD
:1021B000621F739FB00DA11D621F839FA00D611D43
:1021C000221F749F3327A00D611D231F849F600D64
:1021D000211D822F762F6A2F11249F5750408AF09D
:1021E000E1F088234AF0EE0FFF1FBB1F661F771F29
:1021F000881F91505040A9F79E3F510570F017C0BD
:1022000061C05F3FECF3983EDCF386957795679568
:10221000B795F795E7959F5FC1F7FE2B880F911D46
:102220009695879597F9089599278827089597F99E
:102230009F6780E870E060E008959FEF80EC08956C
:1022400000240A9416161706180609060895002495
:102250000A9412161306140605060895092E03940F
:10226000000C11F4882352F0BB0F40F4BF2B11F483
:1022700060FF04C06F5F7F4F8F4F9F4F089557FDE2
:102280009058440F551F59F05F3F71F04795880FE4
:1022900097FB991F61F09F3F79F08795089512167B
:1022A00013061406551FF2CF4695F1DF08C0161627
:1022B00017061806991FF1CF8695710561050894D8
:1022C0000895E894BB2766277727CB0197F90895EF
:1022D00009D0A59F900DB49F900DA49F800D911DD6
:1022E00011240895A29FB001B39FC001A39F700D58
:1022F000811D1124911DB29F700D811D1124911D0E
:1023000008955058BB27AA270ED0A8CF99DF30F0E8
:102310009EDF20F031F49F3F11F41EF48ECF0EF4B7
:10232000E095E7FB84CFE92FAADF80F3BA176207B5
:1023300073078407950718F071F49EF5C2CF0EF469
:10234000E0950B2EBA2FA02D0B01B90190010C01C5
:10235000CA01A0011124FF27591B99F0593F50F4DD
:10236000503E68F11A16F040A22F232F342F442735
:10237000585FF3CF469537952795A795F04053952D
:10238000C9F77EF41F16BA0B620B730B840BBAF0FD
:102390009150A1F0FF0FBB1F661F771F881FC2F768
:1023A0000EC0BA0F621F731F841F48F4879577957C
:1023B0006795B795F7959E3F08F0B3CF9395880F33
:1023C00008F09927EE0F9795879508950CD046CF82
:1023D0003EDF40F035DF30F021F45F3F19F027CFCA
:1023E000511170CF2ACF4BDF98F39923C9F35523AE
:1023F000B1F3951B550BBB27AA27621773078407F8
:1024000038F09F5F5F4F220F331F441FAA1FA9F3AD
:1024100033D00E2E3AF0E0E830D091505040E6959F
:10242000001CCAF729D0FE2F27D0660F771F881F00
:10243000BB1F261737074807AB07B0E809F0BB0BEF
:10244000802DBF01FF2793585F4F2AF09E3F510513
:1024500068F0EDCE37CF5F3FECF3983EDCF3869526
:1024600077956795B795F7959F5FC9F7880F911D89
:102470009695879597F90895E1E0660F771F881F75
:10248000BB1F621773078407BA0720F0621B730B28
:10249000840BBA0BEE1F88F7E095089504D068947A
:1024A000B11110CF0895F3DE88F09F5790F0B92F47
:1024B0009927B751A0F0D1F0660F771F881F991F99
:1024C0001AF0BA95C9F712C0B13081F0FADEB1E066
:1024D0000895F7CE672F782F8827B85F39F0B93F76
:1024E000CCF3869577956795B395D9F73EF490959B
:1024F0008095709561957F4F8F4F9F4F0895A0DE17
:1025000018F011F0A4DE38F498CEDCCEE92FB7DE57
:10251000B0F35523C9F3E7FB6217730784079507E8
:10252000A8F199F3E92FFF2788232AF03197660F46
:10253000771F881FDAF7952F5527442332F09150E3
:102540005040220F331F441FD2F7BB27E91BF50B66
:10255000621B730B840BB109C1F222F4620F731F6B
:10256000841FB11D31972AF0660F771F881FBB1F8C
:10257000EFCF915050405AF041F0882332F0660F6F
:10258000771F881F91505040C1F7939506C08695DC
:10259000779567959F5FD9F7F8CF9F3F31F09150BE
:1025A00020F4879577956795B795880F911D969537
:1025B000879597F90895B1DD08F48FEF0895ADDDA3
:1025C000880B990B0895DB018F939F9381DEBF9158
:1025D000AF91A29F800D911DA39F900DB29F900D72
:1025E00011240895A1E21A2EAA1BBB1BFD010DC0E8
:1025F000AA1FBB1FEE1FFF1FA217B307E407F507B3
:1026000020F0A21BB30BE40BF50B661F771F881F8E
:10261000991F1A9469F760957095809590959B0124
:10262000AC01BD01CF010895052E97FB16F400946F
:102630000FD057FD05D0D6DF07FC02D046F408C006
:1026400050954095309521953F4F4F4F5F4F0895DE
:1026500090958095709561957F4F8F4F9F4F08950E
:10266000EE0FFF1F881F8BBF0790F691E02D199486
:1026700081E090E0F89434C0FC018191861721F04C
:102680008823D9F7992708953197CF010895FB0141
:10269000DC014150504048F001900D920020C9F7F4
:1026A00001C01D9241505040E0F70895FB01519147
:1026B0005523A9F0BF01DC014D9145174111E1F708
:1026C00059F4CD010190002049F04D914015411180
:1026D000C9F3FB014111EFCF81E090E0019708952C
:0426E000F894FFCF9C
:1026E400000000005D01C200EC00A9011D01FB0017
:1026F4000F010D0A0050726F6772616D207374616F
:10270400727465642E2E2E0024504D544B33313494
:102714002C302C312C302C312C302C302C302C30D3
:102724002C302C302C302C302C302C302C302C30C5
:102734002C302C302C302A32380024504D544B325B
:1027440032302C313030302A314600245047434D4A
:10275400442C33332C302A36440024475047474115
:1027640000244750524D4300436F756E74657220C8
:102774003D20000A54696D653A2000446174653A4D
:1027840020002F3230004669783A200020717561AC
:102794006C6974793A20004C6F636174696F6E3AA6
:1027A40020002C2000537065656420286B6E6F74C4
:1027B40073293A2000416E676C653A2000416C74BD
:1027C40069747564653A2000536174656C6C69744E
:1027D40065733A20006E616E00696E66006F7666FE
:0227E4000000F3
:00000001FF
