:1000000072C00000A0C000009EC000009CC00000A4
:100010009AC0000098C0000096C0000094C0000084
:1000200092C0000090C000008EC000008CC0000094
:100030008AC0000088C0000086C0000084C00000A4
:1000400082C0000080C000007EC000007CC00000B4
:100050007AC0000078C0000076C000004EC50000E5
:1000600072C0000014C50000E9C400006CC00000AC
:100070006AC0000068C0000066C0000064C00000E4
:1000800062C0000060C000005EC000005CC00000F4
:100090005AC0000058C0000056C0000054C0000004
:1000A00052C0000050C000004EC000004CC0000014
:1000B0004AC0000048C0000046C0000044C0000024
:1000C00042C0000040C000003EC000003CC0000034
:1000D0003AC0000038C000007BC4000050C40000DB
:1000E00032C00000C70511241FBECFEFD1E2DEBF32
:1000F000CDBF00E00CBF24E0A4E0B3E001C01D923E
:10010000AE34B207E1F713E0A0E0B2E0EAE0FBE1D1
:1001100000E00BBF02C007900D92A430B107D9F7E1
:1001200010E0C3E7D0E000E006C021970109802F6E
:10013000FE010E944D0BC237D10780E00807A9F7E6
:1001400079D50C94830D5CCFCF92DF92EF92FF9222
:10015000CF93DF93EC016A017B01E889F98982E0A2
:1001600080834115514E61057105B1F060E079E081
:100170008DE390E0A70196010E94120BDA01C901FC
:100180000197A109B109B695A795979587959C0107
:10019000211580E13807A8F0E889F989108260E824
:1001A00074E88EE190E0A70196010E94120BDA013B
:1001B000C9010197A109B109B695A79597958795AA
:1001C0009C01EC85FD853083EE85FF852083188EAC
:1001D000EC89FD8986E08083EA89FB8980818061E2
:1001E0008083EA89FB89808188608083EA89FB8932
:1001F000808180688083EA89FB8980818F7D80830C
:10020000DF91CF91FF90EF90DF90CF900895089508
:10021000CF92DF92EF92FF920F931F93CF93DF93D2
:100220006C017A018B01C0E0D0E0CE15DF0581F0D2
:10023000D8016D918D01D601ED91FC910190F08175
:10024000E02DC6011995892B11F02196EECF7E0184
:10025000C701DF91CF911F910F91FF90EF90DF9039
:10026000CF90089580E090E00895FC01538D448D77
:10027000252F30E0842F90E0821B930B541710F051
:10028000CF96089501970895FC01918D828D98175E
:1002900061F0828DDF01A80FB11D5D968C91928D6A
:1002A0009F5F9F73928F90E008958FEF9FEF089567
:1002B0002FB7F89480910A0390910B03A0910C033F
:1002C000B0910D032FBF8093160390931703A09353
:1002D0001803B09319038EE093E0D6DF97FF26C092
:1002E0002FB7F89480910A0390910B03A0910C030F
:1002F000B0910D032FBF40911603509117036091E9
:10030000180370911903841B950BA60BB70B409132
:100310001203509113036091140370911503841715
:100320009507A607B707B8F28FEF9FEF0895FC0176
:10033000918D828D981731F0828DE80FF11D858D9A
:1003400090E008958FEF9FEF0895FC01918D228D2D
:10035000892F90E0805C9F4F821B91098F739927B2
:100360000895FC01848DDF01A80FB11DA35ABF4F72
:100370002C91848D90E001968F739927848FA689A4
:10038000B7892C93A089B1898C91837080648C93F8
:10039000938D848D981306C00288F389E02D8081A7
:1003A0008F7D80830895EF92FF920F931F93CF93D9
:1003B000DF93EC0181E0888F9B8D8C8D981305C0B5
:1003C000E889F989808185FD25C0F62E0B8D10E026
:1003D0000F5F1F4F0F731127E02E8C8DE8120BC09B
:1003E0000FB607FCFACFE889F989808185FFF5CF40
:1003F000CE01B7DFF2CF8B8DFE01E80FF11DE35A7E
:10040000FF4FF0829FB7F8940B8FEA89FB898081B8
:1004100080620AC09FB7F894EE89FF896083E889FB
:10042000F98980818370806480839FBF81E090E040
:10043000DF91CF911F910F91FF90EF900895CF938F
:10044000DF93EC01888D8823C1F0EA89FB898081E4
:1004500085FD05C0A889B9898C9186FD0EC00FB6AF
:1004600007FCF5CF808185FFF2CFA889B9898C91EF
:1004700085FFEDCFCE0175DFE8CFDF91CF910895F5
:100480003FB7F8948091060390910703A091080369
:10049000B091090326B5A89B05C02F3F19F001961E
:1004A000A11DB11D3FBFBA2FA92F982F8827820FFA
:1004B000911DA11DB11DBC01CD0142E0660F771F4A
:1004C000881F991F4A95D1F708958F929F92AF92F6
:1004D000BF92CF92DF92EF92FF926B017C01D0DF4F
:1004E0004B015C01C114D104E104F104E9F0C8DF5F
:1004F000DC01CB0188199909AA09BB09883E934000
:10050000A105B10578F321E0C21AD108E108F1088C
:1005100088EE880E83E0981EA11CB11CC114D10482
:10052000E104F10421F7DECFFF90EF90DF90CF9050
:10053000BF90AF909F908F9008956115710549F01D
:10054000FB0101900020E9F73197AF01461B570BE3
:100550005FCE80E090E008950F931F93CF93DF93D9
:10056000EC01EBDF8C0168E172E0CE01E6DF800F89
:10057000911FDF91CF911F910F910895CF93DF933A
:10058000FC0144815581608171818BEA93E040DEFA
:10059000EC0168E172E08BEA93E0CFDF8C0F9D1FE6
:1005A000DF91CF910895EADF8BEA93E048CF8F92F5
:1005B0009F92AF92BF92CF92DF92EF92FF920F93F2
:1005C0001F93CF93DF93CDB7DEB7A1970FB6F89403
:1005D000DEBF0FBECDBF6C01990FEE08FF08F7FE1E
:1005E0002BC06DE28BEA93E0DEDE8C0122273327FD
:1005F000A9012C193D094E095F0919A2CE01819666
:100600007C019AE0892E912CA12CB12CCA01B90150
:10061000A50194010E94120B605DF70162937F01B6
:10062000211531054105510589F7BF018BEA93E09A
:1006300084DF080F191F1EC0A701960119A28E01A1
:100640000F5D1F4F8AE0C82ED12CE12CF12CCA017E
:10065000B901A7019601E6D7605DF80162938F01A9
:10066000211531054105510591F7BF018BEA93E052
:1006700064DF8C0168E172E08BEA93E05EDF800F5B
:10068000911FA1960FB6F894DEBF0FBECDBFDF91CC
:10069000CF911F910F91FF90EF90DF90CF90BF907F
:1006A000AF909F908F900895CF93DF93EC01888156
:1006B0009981009711F00E94ED0B198218821D821A
:1006C0001C821B821A82DF91CF910895FC018081E8
:1006D00091810C94ED0B0F931F93CF93DF938C01BB
:1006E000EB01FC0180819181009739F0688179816B
:1006F00061157105A1F40E94ED0B88819981F801C3
:10070000918380838A819B81938382838C819D8165
:1007100095838483198218821B821A820FC0F80184
:10072000428153812C813D814217530720F30E945F
:100730006E0D8C819D81F801958384831D821C82BE
:10074000DF91CF911F910F910895CF93DF93FC011B
:1007500024813581232B61F0C081D1816AE270E070
:10076000CE010E94630D009719F08C1B9D0B02C0F7
:100770008FEF9FEFDF91CF910895FB01DC018D9109
:100780009C91009761F0608171816115710539F06C
:10079000448155810E94750D21E0892B09F020E0EC
:1007A000822F08950E94560D0F931F93CF93DF93CE
:1007B000EC0188819981009729F02A813B812617D5
:1007C000370788F48B016F5F7F4F0E94760C00978C
:1007D00061F0998388831B830A832C813D81232BBD
:1007E00011F4FC01108281E001C080E0DF91CF9123
:1007F0001F910F910895EF92FF920F931F93CF9344
:10080000DF93EC017B018A01BA01CEDF811103C0C5
:10081000CE014ADF07C01D830C83B701888199810F
:100820000E946E0DCE01DF91CF911F910F91FF902D
:10083000EF900895CF93DF93EC01FB0186179707A4
:1008400051F0608171816115710521F044815581FC
:10085000D2DF01C029DFCE01DF91CF910895CF9380
:10086000DF93EC016115710551F0FB01019000204F
:10087000E9F73197AF01461B570BBDDF01C014DF0D
:10088000CE01DF91CF910895FC0111821082138275
:100890001282158214826115710549F0FB010190E5
:1008A0000020E9F73197AF01461B570BA4CF0895FD
:1008B000CF92DF92EF92FF920F931F93CF93DF932C
:1008C000EC016AE172E0E0DF6E0186E0C80ED11C47
:1008D0006AE172E0C601D8DF7E018CE2E80EF11C0D
:1008E0006AE172E0C701D0DF8E010C5C1F4F6AE144
:1008F00072E0C801C9DF6BE172E0CE01B0DF6BE1ED
:1009000072E0C601ACDF188A80E090E0A0E8BFEB9F
:10091000898B9A8BAB8BBC8B1D8A8E8B9F8BA88F00
:10092000B98F1A8E8B8F9C8FAD8FBE8F8F8F98A3B0
:10093000A9A3BAA34FEF5FEFBA014BA35CA36DA3CA
:100940007EA38FA398A7A9A7BAA71BA66BE172E005
:10095000C70185DF1AAA1BAA6BE172E0C8017FDF1D
:100960001BAE1AAE8FEF9FEF9DAF8CAFDF91CF9193
:100970001F910F91FF90EF90DF90CF9008951F92FD
:100980000F920FB60F9211240BB60F922F933F9335
:100990004F935F936F937F938F939F93AF93BF9387
:1009A000EF93FF938EE093E0DCDCFF91EF91BF913A
:1009B000AF919F918F917F916F915F914F913F91F7
:1009C0002F910F900BBE0F900FBE0F901F90189598
:1009D0001F920F920FB60F9211240BB60F922F9306
:1009E0008F939F93EF93FF93E0911E03F0911F036A
:1009F0008081E0912403F091250382FD12C0908153
:100A0000809127038F5F8F7320912803821751F005
:100A1000E0912703F0E0E25FFC4F958F809327037E
:100A200001C08081FF91EF919F918F912F910F9045
:100A30000BBE0F900FBE0F901F9018951F920F9234
:100A40000FB60F9211240BB60F922F933F934F9333
:100A50005F936F937F938F939F93AF93BF93EF9326
:100A6000FF938BEA93E07DDCFF91EF91BF91AF9113
:100A70009F918F917F916F915F914F913F912F91B6
:100A80000F900BBE0F900FBE0F901F9018951F92E6
:100A90000F920FB60F9211240BB60F922F938F93D4
:100AA0009F93EF93FF93E091BB03F091BC03808190
:100AB000E091C103F091C20382FD12C09081809148
:100AC000C4038F5F8F732091C503821751F0E091AB
:100AD000C403F0E0E555FC4F958F8093C40301C03B
:100AE0008081FF91EF919F918F912F910F900BBE7D
:100AF0000F900FBE0F901F9018951F920F920FB678
:100B00000F9211242F933F938F939F93AF93BF9393
:100B100080910A0390910B03A0910C03B0910D03F7
:100B20003091050323E0230F2D3720F40196A11DFA
:100B3000B11D05C026E8230F0296A11DB11D20930B
:100B4000050380930A0390930B03A0930C03B093C7
:100B50000D038091060390910703A0910803B091C3
:100B600009030196A11DB11D80930603909307030D
:100B7000A0930803B0930903BF91AF919F918F9108
:100B80003F912F910F900FBE0F901F901895EEE0A0
:100B9000F3E01382128248EE53E060E070E0448399
:100BA0005583668377838AE092E09183808325E38F
:100BB00031E03587248724E331E03787268720E337
:100BC00031E0318B208B21E331E0338B228B22E328
:100BD00031E0358B248B26E331E0378B268B118E69
:100BE000128E138E148EEBEAF3E01382128244838A
:100BF0005583668377839183808385EC90E0958726
:100C0000848784EC90E09787868780EC90E0918BD6
:100C1000808B81EC90E0938B828B82EC90E0958BC3
:100C2000848B86EC90E0978B868B118E128E138EC0
:100C3000148E0895CF93DF93CDB7DEB7CB5AD10989
:100C40000FB6F894DEBF0FBECDBF789484B5826036
:100C500084BD84B5816084BD85B5826085BD85B560
:100C6000816085BD80916E00816080936E001092DE
:100C70008100809181008260809381008091810059
:100C800081608093810080918000816080938000EA
:100C90008091B10084608093B1008091B000816048
:100CA0008093B00080919100826080939100809148
:100CB0009100816080939100809190008160809389
:100CC00090008091A10082608093A1008091A1009A
:100CD00081608093A1008091A00081608093A0003A
:100CE00080912101826080932101809121018160A6
:100CF0008093210180912001816080932001809167
:100D00007A00846080937A0080917A008260809378
:100D10007A0080917A00816080937A0080917A00D5
:100D2000806880937A001092C10040E052EC61E04C
:100D300070E08BEA93E008DA60E272E08BEA93E01D
:100D40000BDC63E372E08BEA93E006DC68EE73E0B1
:100D500080E090E0BADB6AE172E08DE790E08C0F12
:100D60009D1F089691DD2DE7C22ED12CCC0EDD1EE5
:100D70008EE0C80ED11C6AE172E0C60185DD3DE758
:100D8000632E712C6C0E7D1E84E1680E711C6AE16D
:100D900072E0C30179DD4DE7A42EB12CAC0EBD1E6F
:100DA0008AE1A80EB11C6AE172E0C5016DDDC3568F
:100DB000DF4F1882CD59D040C256DF4F1882CE592E
:100DC000D040C156DF4F1882CF59D04080E895E21D
:100DD000A0E0B0E0C358DF4F88839983AA83BB8328
:100DE000CD57D04084E690E0CF57DF4F998388837A
:100DF000C158D04080E092E0CD57DF4F998388837F
:100E0000C358D0406AE172E0C60129DD6AE172E0B0
:100E1000C30125DD6AE172E0C50121DD40E855E24C
:100E200060E070E08EE093E08FD984E690E0A0E08F
:100E3000B0E08093120390931303A0931403B09334
:100E4000150367E372E08EE093E086DB6AE070E012
:100E500080E090E03ADB69E672E08EE093E07CDBD4
:100E60006AE070E080E090E030DBCD57DF4F6881D2
:100E70007981C358D040C60197DCCD57DF4F6881D8
:100E80007981C358D040C5018FDCCE01019610DDB9
:100E9000CE01CF960DDDFF24F394C156DF4F1882AB
:100EA000CF59D0408EE093E050DA181619060CF0B6
:100EB000B9C06AE172E0CE0180569F4FE5DCF8D9F7
:100EC00097FD35C08A30910591F1CA55DF4F88836F
:100ED000C65AD040C955DF4F1882C75AD040CC55AA
:100EE000DF4F08811981C45AD0400F5F1F4FB801EE
:100EF000CE0180569F4F58DC882309F3C056DF4F40
:100F000028813981C05AD040CC55DF4F88819981E2
:100F1000C45AD040BE016A557F4F820F931FDED561
:100F2000CC55DF4F19830883C45AD040C8CFBE01C7
:100F300060567F4FC601CFDBCE0180569F4FC6DB88
:100F400068E772E0CE0180569F4F9EDCC157DF4FAD
:100F500028813981CF58D040CC55DF4F8881998185
:100F6000C45AD0402817390738F0BE0160567F4F69
:100F7000C60103DC182F01C010E0CE0180569F4F40
:100F8000A5DB112349F0B601C30154DCC356DF4F82
:100F9000F882CD59D04029C06FE772E0CE0180566B
:100FA0009F4F72DCC157DF4F28813981CF58D04025
:100FB000CC55DF4F88819981C45AD0402817390712
:100FC00030F0BE0160567F4FC601D7DB182FCE012F
:100FD00080569F4F7BDB112341F0B601C5012ADC0F
:100FE000C256DF4FF882CE59D040C356DF4F8881BA
:100FF000CD59D0408823B1F0C256DF4F8881CE59F9
:10100000D040882379F0C156DF4FF882CF59D040C5
:10101000C356DF4F1882CD59D040C256DF4F1882D9
:10102000CE59D040C156DF4F5880CF59D0405520BF
:1010300009F433CFB501CE01CF96FCDBC5019EDAB2
:101040008BEA93E0FCD9CE01CF9698DA8BEA93E055
:10105000F6D966E872E08BEA93E07EDA8BEA93E0F9
:10106000EED980E090E0A3DA8BEA93E0E8D966E875
:1010700072E08BEA93E070DA8BEA93E0E0D9259690
:101080000EAD1FAD25970115110569F02196EEAC47
:10109000FFAC21976AE270E0C70115D5009719F0FF
:1010A0008E199F0902C08FEF9FEF081B190B0430A8
:1010B000110599F06AE872E0CE0180569F4FE4DB9B
:1010C000CE0180569F4F6FDACE0180569F4FFEDAD9
:1010D000E2961FAEE29780E005C081E0E2968FAF16
:1010E000E297852D90E063DA8BEA93E0A8D9E29647
:1010F0008FADE29790E05BDA8BEA93E0A0D962EBE8
:1011000072E0CE0180569F4FBFDB25962EAD3FADDE
:101110002597CC55DF4F88819981C45AD040281734
:10112000390740F0BE0160567F4FCE01CF9625DBD8
:10113000182F01C010E0CE0180569F4FC7DA111161
:1011400003C064EB72E00FC025968EAC9FAC259770
:10115000CE01CF96FADA9401281B390B24303105E1
:1011600081F06AE872E0CE0180569F4F8DDBCE01A0
:1011700080569F4F18DACE0180569F4FA7DA512C28
:10118000DBC08C010F5F1F4F8016910628F4902F53
:10119000812F8401892E982E6AE172E0CE018A5552
:1011A0009F4F72DB2596EEACFFAC25970E151F0501
:1011B000F0F48E149F0408F474012196EEADFFAD97
:1011C0002197EE0DFF1D9080108221966EAD7FADB0
:1011D0002197600F711FCE018A559F4F40DB2196EA
:1011E0008EAD9FAD2197FC01EE0DFF1D9082C6557F
:1011F000DF4F88819981CA5AD040892B41F0CA5566
:10120000DF4F88819981C65AD040009721F410920F
:10121000040384E093E040E150E060E070E0BDD082
:101220001B01CE01CF9691DA4C01892B31F4E12CD0
:10123000F12C88248394912C03C0EE24E394F12CA8
:101240006AE172E0CE0180569F4F1EDB25960EADFF
:101250001FAD2597E016F106F0F48016910608F40C
:1012600084012196EEADFFAD2197E00FF11F908034
:10127000108221966EAD7FAD21976E0D7F1DCE0140
:1012800080569F4FECDA21968EAD9FAD2197FC01E1
:10129000E00FF11F9082BE0160567F4FCE01CF96C6
:1012A0001ADACE0180569F4F11DA21966EAD7FADCE
:1012B00021972596EEADFFAD259780E090E020E0E8
:1012C00030E08E179F0799F06115710529F410928F
:1012D0000403A4E0B3E003C0DB01A80FB91F4C91E5
:1012E000042E000C550B242735270196EACF221631
:1012F000330679F46CED72E0CE0180569F4FC4DA6C
:10130000CE0180569F4F4FD9CE0180569F4FDED9D8
:101310000FC06CEE72E0CE0180569F4FB5DACE0161
:1013200080569F4F40D9CE0180569F4FCFD9512C28
:10133000CE018A559F4FCAD9852D90E038D98BEAC6
:1013400093E07DD863E372E0CE0180569F4F9CDA34
:10135000CE0180569F4F27D9CE0180569F4FB6D9D8
:1013600063E372E0CE0180569F4F8EDACE01805645
:101370009F4F19D9CE0180569F4FA8D963E372E0E1
:10138000CE0180569F4F80DACE0180569F4F0BD9F9
:10139000CE0180569F4F9AD97ECD3F924F925F9259
:1013A0006F927F928F929F92AF92BF92CF92DF9275
:1013B000EF92FF920F931F93CF93DF935C016B012A
:1013C0007A016115710519F0FB0191838083E114A5
:1013D000F10429F0C7010297839708F0E2C0E50104
:1013E0002196F5011081812F90E002D1892B11F017
:1013F0005E01F5CF1D3229F42196F501118101E03E
:1014000007C01B3221F4E5012296F501118100E0AD
:10141000E114F10409F1F0E1EF16F10429F43EC002
:1014200010E3E114F10421F128E0E216F10401F1E6
:1014300054F4E2E0EE16F10421F5812C912CA12C5C
:10144000B0E4BB2E3DC0FAE0EF16F10439F020E124
:10145000E216F104B1F42FC0103311F1FAE0EF2ECF
:10146000F12CACEC8A2E982CA82CACE0BA2E28C01B
:1014700078E0E72EF12C812C912CA12CE0E1BE2EFE
:101480001FC060E070E080E090E897010F2C000C36
:10149000440B550BC7D049015A0112C0103359F4FF
:1014A00088818F7D883509F0BBCF19812296026033
:1014B00080E1E82EF12C812C912CA12C68E0B62E35
:1014C00040E060E070E0CB0127010F2C000C6608C3
:1014D0007708FE0150ED352E310E29E0231570F40A
:1014E0002FEB210F2A3118F439EC332E06C02FE9E7
:1014F000210F2A3110F529EA322E310E232D30E04A
:101500002E153F05D4F447FD15C086169706A8068C
:10151000B90668F0A301920176D0630D711D811D9B
:10152000911D61307105810520E8920710F04FEFA1
:1015300001C041E021961081CCCF202F2170C11431
:10154000D10471F0442329F02197F601D183C0839F
:1015500007C001FF19C02297F601D183C08314C0D0
:1015600047FF12C0222329F060E070E080E090E89D
:1015700004C06FEF7FEF8FEF9FE722E230E0309300
:1015800049042093480409C0222381F09095809556
:10159000709561957F4F8F4F9F4F462F372F282F84
:1015A00012C040E030E020E090E00DC097FFF5CFA2
:1015B00082E290E090934904809348046FEF7FEFBC
:1015C0008FEF9FE7EACF642F732F822FDF91CF91A8
:1015D0001F910F91FF90EF90DF90CF90BF90AF9051
:1015E0009F908F907F906F905F904F903F90089565
:1015F000911106C0803219F089508550D0F70895B6
:10160000992788270895DB018F939F932DD0BF9151
:10161000AF91A29F800D911DA39F900DB29F900D41
:1016200011240895A1E21A2EAA1BBB1BFD010DC0B7
:10163000AA1FBB1FEE1FFF1FA217B307E407F50782
:1016400020F0A21BB30BE40BF50B661F771F881F5E
:10165000991F1A9469F760957095809590959B01F4
:10166000AC01BD01CF01089509D0A59F900DB49F95
:10167000900DA49F800D911D11240895A29FB0018B
:10168000B39FC001A39F700D811D1124911DB29FB6
:10169000700D811D1124911D0895EE0FFF1F881FED
:1016A0008BBF0790F691E02D19940F931F93CF9362
:1016B000DF938230910510F482E090E0E0914C04D9
:1016C000F0914D0420E030E0A0E0B0E0309719F157
:1016D000408151810281138148175907C8F084174E
:1016E000950769F4109731F012960C9312971396A0
:1016F0001C9327C000934C0410934D0422C0211565
:10170000310519F04217530718F49A01BD01EF0192
:10171000DF01F801DBCF21153105F9F0281B390B6A
:101720002430310580F48A819B816115710521F097
:10173000FB019383828304C090934D0480934C04F7
:10174000FE01329644C0FE01E20FF31F8193919394
:1017500022503109398328833AC020914A043091BC
:101760004B04232B41F42091020230910302309369
:101770004B0420934A04209100023091010221156C
:10178000310541F42DB73EB7409104025091050256
:10179000241B350BE0914A04F0914B04E217F30748
:1017A000A0F42E1B3F0B2817390778F0AC014E5FD1
:1017B0005F4F2417350748F04E0F5F1F50934B04BF
:1017C00040934A048193919302C0E0E0F0E0CF019E
:1017D000DF91CF911F910F910895CF93DF930097E1
:1017E00009F481C0FC01329713821282A0914C044B
:1017F000B0914D04109781F420813181820F931FA5
:1018000020914A0430914B042817390751F5F09381
:101810004B04E0934A0467C0ED0120E030E0CE17AE
:10182000DF0740F44A815B819E0141155105F1F0CB
:10183000EA01F5CFD383C28340815181840F951F84
:10184000C817D90759F488819981840F951F02968A
:10185000918380838A819B819383828321153105C3
:1018600029F4F0934D04E0934C043DC0E901FB835F
:10187000EA8349915991C40FD51FEC17FD0761F414
:1018800080819181840F951F0296E9019983888355
:10189000828193819B838A83E0E0F0E012968D91B0
:1018A0009C911397009719F0FD01DC01F7CF8D9102
:1018B0009C9111979D012E5F3F4F820F931F2091A6
:1018C0004A0430914B042817390769F4309729F4FA
:1018D00010924D0410924C0402C013821282B093F5
:1018E0004B04A0934A04DF91CF9108956F927F92A9
:1018F0008F929F92AF92BF92CF92DF92EF92FF9220
:101900000F931F93CF93DF93009781F4CB01DF9167
:10191000CF911F910F91FF90EF90DF90CF90BF90EC
:10192000AF909F908F907F906F90BFCEFC01E60F9D
:10193000F71F9C0122503109E217F30708F4A5C0F4
:10194000EC01D9010D911C91119706171707A8F00A
:101950000530110508F497C0C8010497861797074A
:1019600008F491C002501109061B170B0193119343
:101970006D937C93CF0131DF86C05B01A01AB10A61
:101980004C01800E911EA0914C04B0914D04612C2D
:10199000712CE12CF12C109709F446C08D919C918B
:1019A0001197A815B905B1F56C0142E0C40ED11C20
:1019B000CA14DB0478F14C018A189B08640142E0E8
:1019C000C40ED11C1296BC9012971396AC91B5E040
:1019D000CB16D10440F0B282A38391828082D901D8
:1019E0006D937C9309C00E5F1F4F800F911FF9010B
:1019F00091838083EB2DFA2FE114F10431F0D701AC
:101A00001396FC93EE9312973EC0F0934D04E0932F
:101A10004C0439C06816790608F43C017D01129621
:101A20000D90BC91A02DB7CF80914A0490914B04AA
:101A300088169906E1F466167706C8F480910002CC
:101A400090910102009741F48DB79EB74091040236
:101A500050910502841B950BE817F907B0F4F09339
:101A60004B04E0934A04F901718360830CC0CB01FD
:101A70001CDE7C01009749F0A801BE011BD0CE01FD
:101A8000ACDEC70104C0CE0102C080E090E0DF916F
:101A9000CF911F910F91FF90EF90DF90CF90BF906B
:101AA000AF909F908F907F906F90089581E090E02D
:101AB000F89429C0FB01DC0102C001900D92415055
:101AC0005040D8F70895FC018191861721F08823B2
:101AD000D9F7992708953197CF010895FB01DC01CB
:101AE00001900D920020E1F70895FB01DC014150C7
:101AF000504030F08D910190801919F40020B9F711
:0A1B0000881B990B0895F894FFCF9D
:101B0A0000004E04800000000000D30108013501E6
:101B1A001F02A501440197010D0A006E756C6C0045
:101B2A0050726F6772616D20737461727465642E8E
:101B3A002E2E002D2D2D0024504D544B3331342C94
:101B4A00302C312C302C312C302C302C302C302CA9
:101B5A00302C302C302C302C302C302C302C302C9B
:101B6A00302C302C302A323800245047434D442C34
:101B7A0033332C302A364400244750474741002447
:101B8A004750524D4300232323004572726F72213E
:101B9A002053656E74656E636520646F6573206E8D
:101BAA006F7420656E64207769746820272A5858F4
:101BBA00270024004572726F72212053656E746586
:101BCA006E636520646F6573206E6F742073746131
:101BDA007274207769746820272427004368656334
:101BEA006B73756D73206D61746368004368656318
:101BFA006B73756D7320646F204E4F54206D617442
:041C0A00636800000B
:00000001FF
