:1000000073C00000A2C00000A0C000009EC000009D
:100010009CC000009AC0000098C0000096C000007C
:1000200094C0000092C0000090C000008EC000008C
:100030008CC000008AC0000088C0000086C000009C
:1000400084C0000082C0000080C000007EC00000AC
:100050007CC000007AC0000078C000000C94BE0A8A
:1000600074C000000C94390E0C94100E6EC0000089
:100070006CC000006AC0000068C0000066C00000DC
:1000800064C0000062C0000060C000005EC00000EC
:100090005CC000005AC0000058C0000056C00000FC
:1000A00054C0000052C0000050C000004EC000000C
:1000B0004CC000004AC0000048C0000046C000001C
:1000C00044C0000042C0000040C000003EC000002C
:1000D0003CC000003AC000000C94DA0D0C94B10D45
:1000E00034C00000E010A70E11241FBECFEFD1E2F4
:1000F000DEBFCDBF00E00CBF2AE0A4E1B4E001C048
:100100001D92AB32B207E1F714E0A0E0B2E0E4E602
:10011000F9E200E00BBF02C007900D92A431B107D5
:10012000D9F710E0C3E7D0E000E006C0219701094D
:10013000802FFE010E946712C237D10780E00807B6
:10014000A9F70E94AC0E0C94A1145ACF8A579B4F6A
:10015000FC0180810895AF92BF92CF92DF92EF921F
:10016000FF920F931F93CF93DF9300D01F921F92A4
:10017000CDB7DEB7643671053CF0FC01EA57FB4FA2
:100180002081222309F477C0DA017B018C01BC01B4
:10019000615E7D4FED91FC910190F081E02DCA01EF
:1001A0001995680128EEC21A2DEFD20A2FEFD60159
:1001B0002C93F801E75EFD4F2EEF2083319680836C
:1001C000319690833196292F280F209520833196E0
:1001D000E0821696FC9245E050E020E030E0DC0141
:1001E0001696A417B50734F06191260F311D4F5FA5
:1001F0005F4FF7CF7C01B8E0EB0EF11C800F911F31
:10020000FC01E15EFD4F20952083E1E0EE16E2E087
:10021000FE06BCF45601C5018C199D098E159F057B
:100220006CF5D80112968D919C911397F50161910F
:100230005F01DC01ED91FC910190F081E02D1995B9
:10024000EACF82E392E09A83898383E08B8386E816
:1002500092E09D838C83D801ED91FC910190F08117
:10026000E02DAE014F5F5F4F67E070E0C801199568
:100270008FEF9FEF04C080E090E001C0C7010F90B6
:100280000F900F900F900F90DF91CF911F910F91D2
:10029000FF90EF90DF90CF90BF90AF900895CF92F6
:1002A000DF92EF92FF92FC01108211821282138280
:1002B000DB0120E030E04D9150E0022E02C0440FFF
:1002C000551F0A94E2F7052E000C660B770BC080D1
:1002D000D180E280F3804C295D296E297F294083FB
:1002E000518362837383285F3F4F2032310519F7B2
:1002F000FF90EF90DF90CF900895CF92DF92EF9232
:10030000FF9220E030E06A017B01022E04C0F694E7
:10031000E794D794C7940A94D2F7FC01C192CF0115
:10032000285F3F4F2032310571F7FF90EF90DF904B
:10033000CF9008958FEB92E0089580EE92E00895BB
:100340004F925F926F927F928F929F92AF92BF92E5
:10035000EF92FF920F931F93CF93DF9300D01F92E2
:10036000CDB7DEB77C018B01CE01019698DF898184
:100370009A81AB81BC814C015D0124E0820E911C0D
:10038000A11CB11CA8014D5F5F4FFA0124E030E0D1
:100390002901612C712C481459046A047B0428F447
:1003A000618161932F5F3F4FF3CFF801E80FF91F91
:1003B0001382F7015383428304960F900F900F909E
:1003C0000F90DF91CF911F910F91FF90EF90BF9011
:1003D000AF909F908F907F906F905F904F90089517
:1003E00080EF92E0089586E092E0089581E193E045
:1003F000089582E393E008954F925F926F927F9207
:100400008F929F92AF92BF92EF92FF920F931F93A2
:10041000CF93DF9300D01F92CDB7DEB77C018B0165
:10042000FB018191BF01F7018283CE01019637DF85
:1004300089819A81AB81BC814C015D01F5E08F0E11
:10044000911CA11CB11CA8014C5F5F4FFA0125E073
:1004500030E02901612C712C481459046A047B0492
:1004600028F4618161932F5F3F4FF3CFF801E80FCC
:10047000F91F1482F7015483438305960F900F9060
:100480000F900F90DF91CF911F910F91FF90EF9000
:10049000BF90AF909F908F907F906F905F904F90A4
:1004A000089585E493E0089586E693E008954F92D9
:1004B0005F926F927F928F929F92AF92BF92CF92F4
:1004C000DF92EF92FF920F931F93CF93DF93CDB7FD
:1004D000DEB72C970FB6F894DEBF0FBECDBF7C0100
:1004E0008B01DB018C9190E0F7019383828311965D
:1004F0002C91922B938382836E5F7F4FCE01019666
:10050000CEDE89809A80AB80BC8024013501F6E084
:100510004F0E511C611C711C98012B5F3F4FF9015C
:1005200086E090E0AC0160E070E04415550566059A
:10053000770520F4418141930196F4CFF801E80D4D
:10054000F91D1582D70115963C932E931497B4018B
:100550006A5F7F4F600F711FCE010596A0DEBAE083
:100560008B0E911C4D805E806F807884A401092CD5
:10057000000C660B770B440D551D661D771DD801C9
:10058000A80DB91DCD01801B910B5C01C12CD12C94
:10059000A416B506C606D70628F48D91FD0132973C
:1005A0008083F0CF5401A40CB51CB8016A0D7B1DEB
:1005B000FB0131971082C4010197800F911FF70151
:1005C00097838683CE0109966ADE95012C5F3F4FA3
:1005D00089859A85AB85BC852901032E000C6608A8
:1005E0007708480E591E6A1E7B1EF5013396E00FF0
:1005F000F11FA9014A01A12CB12C84149504A60471
:10060000B70428F4618161934F5F5F4FF3CF820F8E
:10061000931FF801E80FF91FDF0111971C92215079
:100620003109020F131FD70119961C930E931897C7
:100630002181428150E060E070E0BA0155274427F3
:10064000522B2081422B2381722BF7014287538743
:100650006487758704962C960FB6F894DEBF0FBE9C
:10066000CDBFDF91CF911F910F91FF90EF90DF9061
:10067000CF90BF90AF909F908F907F906F905F9042
:100680004F9008958FE793E0089580EA93E00895EE
:10069000FC01DB014C9150E060E070E04283538349
:1006A0006483758311968C911197582B42835383E1
:1006B0006483758312968C911297682B42835383BF
:1006C0006483758313968C911397782B428353839D
:1006D0006483758314964C91149750E060E070E049
:1006E000468357836087718715968C911597582B91
:1006F000468357836087718716968C911697682B6F
:10070000468357836087718717968C91782B468331
:1007100057836087718788E090E00895DC01FB01D2
:1007200012968C911297808313968C9113978183E4
:1007300014968C911497828315968C9115978383C8
:1007400016968C911697848317968C9117978583AC
:1007500018968C911897868319968C91878388E0D8
:1007600090E00895EF92FF920F931F93CF93DF9342
:100770007C018B01DC011296ED91FC911397EF0146
:1007800009900020E9F72197CE1BDF0BAE0160E056
:1007900070E0C801B2DDF70162817381AE01C8016A
:1007A00004960E947414CE010496DF91CF911F919C
:1007B0000F91FF90EF9008954F925F926F927F920A
:1007C000AF92BF92CF92DF92EF92FF920F931F935F
:1007D000CF93DF93EC018B018A81FB0180838B81B6
:1007E00081838C8182838D818383DB0140E050E0B3
:1007F000BA01E4E0F0E01496CA80DB80EC80FD8072
:10080000CF0104964C155D056E057F05C8F42A8559
:100810003B85E20FF31F3497D080F1803281238132
:10082000DC921196FC92119712963C9312971396B4
:100830002C931397FC014F5F5F4F6F4F7F4FDBCFC0
:100840005F01A00EB11E2C85F50120832D8521832B
:100850002E8522832F852383D50140E050E0BA0105
:10086000CC84DD84EE84FF849C012C5F3F4F4C15CB
:100870005D056E057F05F8F4CD018A199B09EC88AA
:10088000FD888E0D9F1DFC01D080E180F280838168
:100890001496DC9214971596EC9215971696FC9286
:1008A000169717968C931797C9014F5F5F4F6F4F3D
:1008B0007F4F1496D5CFF801E80FF91F8E898083FA
:1008C0008F898183888D8283898D83837901A12C8F
:1008D000B12C412C512C32018E899F89A88DB98D64
:1008E000481659066A067B0678F5EC8DFD8DEA0DF3
:1008F000FB1DA081B181FD0101900020E9F7319736
:100900006F01CA1ADB0AA60160E070E0C8018E0D13
:100910009F1DF3DCF4E0EF0EF11CEC8DFD8DEA0D74
:10092000FB1D60817181A601C8018E0D9F1D0E9473
:100930007414EC0CFD1C8FEF481A580A680A780AE8
:10094000E2E0AE0EB11CC8CFC701DF91CF911F917D
:100950000F91FF90EF90DF90CF90BF90AF907F907E
:100960006F905F904F900895EF92FF920F931F93B7
:10097000CF93DF938C017B01DC0112962C911297AF
:10098000FB012193CF011396ED91FC911497EF0198
:1009900009900020E9F72197CE1BDF0BAE0160E044
:1009A00070E0ABDCD80113966D917C911497AE0189
:1009B000C70105960E947414CE010596DF91CF9170
:1009C0001F910F91FF90EF900895CF92DF92EF92D9
:1009D000FF920F931F93CF93DF937C018B01DC0178
:1009E00012968C911297FB01808313968C9113972A
:1009F00081831496ED91FC911597EF0109900020E9
:100A0000E9F72197CE1BDF0BAE0160E070E0C80173
:100A1000029673DCD70114966D917C911597AE0107
:100A2000C80106960E947414CE010696F701A681AD
:100A3000B781FD0101900020E9F731976F01CA1AD3
:100A4000DB0AA60160E070E0800F911F56DC2A9659
:100A5000D70116966D917C911797A601C8018C0F4E
:100A60009D1F0E947414CC0DDD1DD7011896ED91C9
:100A7000FC911997DF010D900020E9F711976D01A6
:100A8000CE1ADF0AA60160E070E0C8018C0F9D1F3E
:100A900034DC2496F70160857185A601C8018C0FAE
:100AA0009D1F0E947414C6018C0F9D1FD7011A96BA
:100AB0006C911A971B964C911B971C963C911C9716
:100AC0001D962C91F801E80FF91F60834183328352
:100AD00023830496DF91CF911F910F91FF90EF90A8
:100AE000DF90CF9008952F923F924F925F926F9236
:100AF0007F928F929F92AF92BF92CF92DF92EF92AE
:100B0000FF920F931F93CF93DF93CDB7DEB760971C
:100B10000FB6F894DEBF0FBECDBF8C016B01DB01B9
:100B20008D909D90AD90BC90FC0182819381A481B9
:100B3000B58188159905AA05BB0570F4B401660F47
:100B4000771F660F771F828593850E949013D801C7
:100B50001B969C938E931A97F80182829382A482AB
:100B6000B5829601812C912C540144E050E0B801EB
:100B70006A5F7F4F2C5F3F4FF80182819381A48190
:100B8000B581FA0134961F0188169906AA06BB069C
:100B900050F5D9011196FC90119712968C9190E026
:100BA000A0E0B0E0DC01992788279F29F901F080B7
:100BB0008F29F380BF29F80186839783A087B187A7
:100BC000DA01A101149782859385A80FB91F84E0EB
:100BD000FB0101900D928A95E1F7FFEF8F1A9F0AB2
:100BE000AF0ABF0AC7CF4601840E951ED4018C916F
:100BF00011969C91119712964C901297512C612C42
:100C0000712C320155244424592A482A13968C9178
:100C1000782A5F01F80184859585A685B7858415B6
:100C20009505A605B70570F4B201660F771F660F2C
:100C3000771F848995890E949013D80155969C93BB
:100C40008E935497F8014486558666867786C4014C
:100C5000412C512C32019801205F3F4FD8011C9646
:100C60004D915D916D917C911F97F50134964416DD
:100C700055066606770698F5DC011596FC901597E3
:100C800016964C91169750E060E070E0BA01552737
:100C900044275F291496FC9014974F291796FC90CF
:100CA0007F29D80150964D935D936D937C93539714
:100CB0005F01AC014819590954960D90BC91A02DC3
:100CC000A40FB51F44E0F90101900D924A95E1F798
:100CD000BFEF4B1A5B0A6B0A7B0A0496BFCFD601A3
:100CE000AA0DBB1D8C9111969C91119712968C9018
:100CF0001297912CA12CB12C540199248824992A63
:100D0000882A13968C91B82A7F01F80186899789E1
:100D1000A08DB18D88159905AA05BB0560F4B401B5
:100D2000660F771F848D958D0E949013D8015D9674
:100D30009C938E935C97F801868A978AA08EB18ED9
:100D4000212C312C812C912C54019801265E3F4F8F
:100D50003A872987F80186899789A08DB18D8816F1
:100D60009906AA06BB0608F05EC0B6016E0D7F1D8F
:100D7000CE01019694DA97012C5F3F4F388B2F8775
:100D800049815A816B817C81C901330FAA0BBB0B4E
:100D90002C013D01440E551E661E771E4B865C8657
:100DA0006D867E8623E0E20EF11CF601EE0DFF1D3E
:100DB0002F853889C901A0E0B0E04B845C846D8444
:100DC0007E8484159505A605B70528F4A181A19315
:100DD0002F5F3F4FEFCF6F847888460D571DF60188
:100DE000E40FF51F31971082C30101978C0D9D1DF3
:100DF000D8015B969C938E935A977A015C96ED91FD
:100E0000FC915D97E20DF31DA985BA858D919C91AA
:100E100091838083BFEF8B1A9B0AAB0ABB0AE2E087
:100E20002E0E311C97CFC70160960FB6F894DEBF27
:100E30000FBECDBFDF91CF911F910F91FF90EF902B
:100E4000DF90CF90BF90AF909F908F907F906F90EA
:100E50005F904F903F902F9008953FB7F894809106
:100E6000190490911A04A0911B04B0911C0426B59A
:100E7000A89B05C02F3F19F00196A11DB11D3FBFD2
:100E8000BA2FA92F982F8827820F911DA11DB11D60
:100E9000BC01CD0142E0660F771F881F991F4A955C
:100EA000D1F708952FB7F894609115047091160446
:100EB00080911704909118042FBF08952F923F92AC
:100EC0004F925F926F927F928F929F92AF92BF925A
:100ED000CF92DF92EF92FF920F931F93CF93DF9306
:100EE000CDB7DEB7A6970FB6F894DEBF0FBECDBF65
:100EF0008C01D8DF4B015C01980125573B4F3E8B9D
:100F00002D8BF90180819181A281B381A50194018A
:100F1000281B390B4A0B5B0BDA01C901893F9A4246
:100F2000A105B10510F035971082180144E8241A84
:100F30004BEF340AD1018D919C91892B79F0F80106
:100F4000E157FB4F80819181A281B381881599057A
:100F5000AA05BB0518F4F1011182108298012C57E3
:100F60003B4F3A8B298BA80140585B4F5C8B4B8BD6
:100F7000C8014896988F8F8BD801AA57BB4FBC8F5A
:100F8000AB8FF801EC56FB4FFE8FED8F215F3F4F8B
:100F900038A32F8F42505109588B4F8786599B4F4A
:100FA0009A8F898F1996BAA3A9A3A50194012C5EE3
:100FB0003F4F4F4F5F4F2BA33CA34DA35EA3F801C0
:100FC00084899589A689B789892B8A2B8B2B81F4F3
:100FD000D80112968D919C911397DC01ED91FC91B3
:100FE0000284F385E02D19959C0197FF13C082C2FE
:100FF00059DFDC01CB0188199909AA09BB09F8015D
:10100000C488D588E688F788C816D906EA06FB069C
:10101000F8F696C2A989BA898D919C911197820F91
:10102000931F8D939C93F10140815181473051056D
:10103000D9F4A98DBA8D8D919C911197AC014F5F18
:101040005F4F4D935C93F801E80FF91F208FEF85F8
:10105000F88980819181019791838083892B09F0A0
:10106000AECF88E090E031C04115510531F52F3FFA
:10107000310589F481E090E0F101918380832BA117
:101080003CA14DA15EA1A9A1BAA12D933D934D9381
:101090005C93139794CF06DFDC01CB018819990983
:1010A000AA09BB0989389341A105B10508F487CF86
:1010B000F801EA57FB4F108243C241305105A1F4B9
:1010C0002E3F310531F482E090E0D1018D939C9365
:1010D00076CFF10111821082AB8DBC8D8C91811184
:1010E0006ECFC80112D46BCF4230510591F4EF8519
:1010F000F88931832083A98DBA8D1D921C9283E0DB
:1011000090E0F10191838083A989BA892D933C9362
:1011100056CF4330510569F4322F2227EF85F889E5
:1011200080819181280F391F3183208384E090E0F2
:10113000CCCF4430510581F460E071E00E941E1272
:101140008F3F910531F485E090E0F1019183808338
:1011500036CF1182108233CF4530510571F4EB89BF
:10116000FC893183208386E090E0D1018D939C93AC
:10117000E989FA893183208322CF46305105A9F4C9
:10118000322F2227AB89BC898D919C911197280F12
:10119000391F2D933C9387E090E0F1019183808388
:1011A000AF85B8898D919C9159CF4830510509F090
:1011B00006CFF1011182108260E071E00E941E12E0
:1011C0008F3F910509F0FBCEAB89BC898D919C9135
:1011D000009709F0C5C0C80198D386E292E09A83CF
:1011E00089831C821B8283E194E09E838D83988790
:1011F0008F839A8789871B861C861D861E866801B9
:10120000B8EECB1ABBEFDB0A7801E6EBEE1AEBEF98
:10121000FE0A412C22E0522E612C712CD601ED9158
:10122000FC913097A9F1848195819C838B83808187
:1012300091819E838D8382819381DC01ED91FC916C
:101240000480F581E02D199598878F83D601ED9163
:10125000FC9182819381DC01ED91FC910680F78104
:10126000E02D19959A8789874B865C866D867E86E8
:10127000D601ED91FC9160857185D801ED91FC91CD
:101280000190F081E02DAE014F5F5F4FC8011995CD
:10129000B2E0CB0ED11CEC14FD0409F0BFCF412C01
:1012A00092E0592E612C712CF701A081B181109729
:1012B000E1F112968D919C9113979C838B831496E8
:1012C0008D919C9115979E838D83ED91FC91119743
:1012D0000480F581E02DCD01199598878F83D70182
:1012E0008D919C91DC01ED91FC910680F781E02DC0
:1012F00019959A8789874B865C866D867E86D8018C
:10130000ED91FC91C080D180F70180819181DC0159
:10131000ED91FC910280F381E02D1995AE014F5FB4
:101320005F4FBC01C801F6011995F2E0EF0EF11C08
:10133000E214F30409F0B8CFF801EA57FB4F81E05B
:101340008083319680829182A282B382AD89BE89E8
:101350008D929D92AD92BC9213978FEF9FEFF5C047
:101360008A30910509F09CC08EE392E09A838983CC
:101370001B821C821D821E821F82188619861A8675
:1013800091DDF801C084D184E284F3849B01AC0137
:101390002C193D094E095F0969017A016F89788D21
:1013A000CE01019675D9C701B60128EE33E040E0C1
:1013B00050E00E943112CB80DC80ED80FE80C20EB6
:1013C000D31EE41EF51ECB82DC82ED82FE829B01E1
:1013D000AC0160E472E48FE090E00E940F12CF80D5
:1013E000D884E984FA84DC01CB018C0D9D1DAE1DEF
:1013F000BF1D8F839887A987BA8754DDCF80D88493
:10140000E984FA8436E3D31A35E6E30A34ECF30AC6
:1014100028EE33E040E050E00E94311229013A0109
:101420009B01AC0160E472E48FE090E0F8D7A70183
:101430009601261B370B480B590BCA01B901CB800B
:10144000DC80ED80FE8031E0C31AD108E108F108AC
:10145000A7019601241935094609570929013A01BE
:1014600020E03AEC4AE95BE3FCD773016201C20E6B
:10147000D31EE41EF51ED8011C96CD92DD92ED928E
:10148000FC921F97F801608B718B828B938B0ADD26
:10149000AD89BE896D937D938D939C9313978FCD6A
:1014A0008630910551F46F89788D8D8D9E8D1BDB73
:1014B00081E0EF8DF8A1808382CD8B30910521F4FE
:1014C000AB8DBC8D1C927BCDFC01EF53FE4FEE0F1C
:1014D000FF1FE00FF11F80819181009709F46FCD0C
:1014E000DC01ED91FC910190F081E02D6F89788D08
:1014F000199565CDF801EA57FB4F8081882319F1D2
:101500007801B9E7EB1ABBEFFB0AF7018081918103
:10151000A281B381A5019401281B390B4A0B5B0BF7
:10152000DA01C901853C9940A105B10560F0C80107
:10153000ECD1D7018D929D92AD92BC92139703C0CE
:101540008EEF9FEF02C080E090E0A6960FB6F89471
:10155000DEBF0FBECDBFDF91CF911F910F91FF90E6
:10156000EF90DF90CF90BF90AF909F908F907F9043
:101570006F905F904F903F902F9008951F920F9221
:101580000FB60F9211242F933F938F939F93AF9396
:10159000BF938091150490911604A0911704B09107
:1015A00018043091140423E0230F2D3720F4019602
:1015B000A11DB11D05C026E8230F0296A11DB11D76
:1015C000209314048093150490931604A093170499
:1015D000B09318048091190490911A04A0911B04EF
:1015E000B0911C040196A11DB11D80931904909324
:1015F0001A04A0931B04B0931C04BF91AF919F9158
:101600008F913F912F910F900FBE0F901F901895C3
:101610000895CF92DF92EF92FF920F931F93CF9393
:10162000DF936C017A018B01C0E0D0E0CE15DF05BD
:1016300081F0D8016D918D01D601ED91FC91019061
:10164000F081E02DC6011995892B11F02196EECF7E
:101650007E01C701DF91CF911F910F91FF90EF9015
:10166000DF90CF90089580E090E00895FC01538DC5
:10167000448D252F30E0842F90E0821B930B54176C
:1016800010F0CF96089501970895FC01918D828DF9
:10169000981761F0828DDF01A80FB11D5D968C91C6
:1016A000928D9F5F9F73928F90E008958FEF9FEFD1
:1016B0000895FC01918D828D981731F0828DE80F8D
:1016C000F11D858D90E008958FEF9FEF0895FC0147
:1016D000918D228D892F90E0805C9F4F821B910914
:1016E0008F7399270895FC01848DDF01A80FB11D28
:1016F000A35ABF4F2C91848D90E001968F73992748
:10170000848FA689B7892C93A089B1898C91837025
:1017100080648C93938D848D981306C00288F3891E
:10172000E02D80818F7D80830895EF92FF920F934B
:101730001F93CF93DF93EC0181E0888F9B8D8C8D7D
:10174000981305C0E889F989808185FD25C0F62EAA
:101750000B8D10E00F5F1F4F0F731127E02E8C8D44
:10176000E8120BC00FB607FCFACFE889F98980812F
:1017700085FFF5CFCE01B7DFF2CF8B8DFE01E80FED
:10178000F11DE35AFF4FF0829FB7F8940B8FEA895F
:10179000FB89808180620AC09FB7F894EE89FF8937
:1017A0006083E889F98980818370806480839FBF2A
:1017B00081E090E0DF91CF911F910F91FF90EF902A
:1017C0000895CF93DF93EC01888D8823C1F0EA89D7
:1017D000FB89808185FD05C0A889B9898C9186FD2A
:1017E0000EC00FB607FCF5CF808185FFF2CFA88928
:1017F000B9898C9185FFEDCFCE0175DFE8CFDF9100
:10180000CF9108950E947014CF92DF92EF92FF92D1
:10181000CF93DF93EC016A017B01E889F98982E0CB
:1018200080834115514E61057105A9F060E079E0B2
:101830008DE390E0A701960114D6DA01C901019762
:10184000A109B109B695A795979587959C01211592
:1018500080E13807A0F0E889F989108260E874E82F
:101860008EE190E0A7019601FCD5DA01C90101974C
:10187000A109B109B695A795979587959C01EC8527
:10188000FD853083EE85FF852083188EEC89FD89E8
:1018900086E08083EA89FB89808180618083EA8990
:1018A000FB89808188608083EA89FB8980818068E8
:1018B0008083EA89FB8980818F7D8083DF91CF914E
:1018C000FF90EF90DF90CF900895CF93DF93009734
:1018D00071F0FC0101900020E9F73197AF01481B3E
:1018E000590BBC018DE194E094DEEC0102C0C0E034
:1018F000D0E042E050E061E174E08DE194E089DE07
:101900008C0F9D1FDF91CF9108950F931F93CF935D
:10191000DF93CDB7DEB72A970FB6F894DEBF0FBEC0
:10192000CDBF8C018EE392E09A8389831B821C8257
:101930001D821E821F82188619861A86D801ED9193
:10194000FC910190F081E02DAE014F5F5F4F6AE0A6
:1019500070E0C8011995A6DAF8016087718782875F
:1019600093872A960FB6F894DEBF0FBECDBFDF91E6
:10197000CF911F910F910895CF93DF93FC01448184
:10198000558164177507C0F49B01EC01808191813A
:101990004150510955834483461B570B6F5F7F4F5E
:1019A000680F791F820F931FBDD7E881F9818C8161
:1019B0009D81E80FF91F1082DF91CF910895FB01FF
:1019C000DC018D919C91009759F0608171816115C6
:1019D000710531F04481558197D721E0892B09F0B9
:1019E00020E0822F08950F931F935CDA6093250403
:1019F0007093260480932704909328048DE194E04B
:101A000044DE97FF1EC04EDA009125041091260493
:101A10002091270430912804DC01CB01801B910B1D
:101A2000A20BB30B009121041091220420912304F6
:101A30003091240480179107A207B307F8F28FEFC3
:101A40009FEF1F910F9108950F931F93CF93DF93F3
:101A5000EC0188819981009729F02A813B81261722
:101A6000370780F48B016F5F7F4F5AD6009761F084
:101A7000998388831B830A832C813D81232B11F456
:101A8000FC01108281E001C080E0DF91CF911F91C5
:101A90000F910895EF92FF920F931F93CF93DF93CF
:101AA000EC017B018A01BA01CFDF288139818111E4
:101AB0000CC02115310511F0C901A9D51982188270
:101AC0001D821C821B821A8205C01D830C83B701F4
:101AD000C90113D7CE01DF91CF911F910F91FF90D4
:101AE000EF900895CF93DF93EC0140E050E063E185
:101AF00074E0D0DFCE01DF91CF910895CF93DF93D3
:101B0000EC01FB0186179707A1F0608171816115D7
:101B1000710521F044815581BDDF0BC08881998119
:101B2000009709F074D5198218821D821C821B82CD
:101B30001A82CE01DF91CF910895FC0111821082AB
:101B400013821282158214826115710549F0FB011E
:101B500001900020E9F73197AF01461B570B9ACF50
:101B600008951F920F920FB60F9211240BB60F9289
:101B70002F933F934F935F936F937F938F939F9395
:101B8000AF93BF93EF93FF938DE194E0ACDDFF91B2
:101B9000EF91BF91AF919F918F917F916F915F91E5
:101BA0004F913F912F910F900BBE0F900FBE0F9052
:101BB0001F9018951F920F920FB60F9211240BB61B
:101BC0000F922F938F939F93EF93FF93E0912D04A8
:101BD000F0912E048081E0913304F091340482FD71
:101BE00012C09081809136048F5F8F7320913704EB
:101BF000821751F0E0913604F0E0E35EFB4F958FE1
:101C00008093360401C08081FF91EF919F918F9165
:101C10002F910F900BBE0F900FBE0F901F90189535
:101C20001F920F920FB60F9211240BB60F922F93A3
:101C30003F934F935F936F937F938F939F93AF9354
:101C4000BF93EF93FF938AEB94E04DDDFF91EF910B
:101C5000BF91AF919F918F917F916F915F914F91C4
:101C60003F912F910F900BBE0F900FBE0F901F90C2
:101C700018951F920F920FB60F9211240BB60F9268
:101C80002F938F939F93EF93FF93E091CA04F0916A
:101C9000CB048081E091D004F091D10482FD12C088
:101CA00090818091D3048F5F8F732091D404821729
:101CB00051F0E091D304F0E0E654FB4F958F809310
:101CC000D30401C08081FF91EF919F918F912F915B
:101CD0000F900BBE0F900FBE0F901F9018958F9214
:101CE0009F92AF92BF92CF92DF92EF92FF926B01E1
:101CF0007C01B3D84B015C01C114D104E104F104AF
:101D0000E9F0ABD8DC01CB0188199909AA09BB0914
:101D1000883E9340A105B10578F321E0C21AD108AD
:101D2000E108F10888EE880E83E0981EA11CB11C22
:101D3000C114D104E104F10421F7DECFFF90EF904C
:101D4000DF90CF90BF90AF909F908F90089580913B
:101D50005705909158055BC4CF93DF93CDB7DEB79D
:101D6000AB970FB6F894DEBF0FBECDBF789484B5A5
:101D7000826084BD84B5816084BD85B5826085BD87
:101D800085B5816085BD80916E00816080936E0015
:101D90001092810080918100826080938100809107
:101DA00081008160809381008091800081608093B8
:101DB00080008091B10084608093B1008091B00078
:101DC00081608093B0008091910082608093910047
:101DD000809191008160809391008091900081605A
:101DE000809390008091A10082608093A1008091F7
:101DF000A10081608093A1008091A0008160809308
:101E0000A0008091210182608093210180912101B5
:101E10008160809321018091200181608093200165
:101E200080917A00846080937A0080917A00826049
:101E300080937A0080917A00816080937A0080910B
:101E40007A00806880937A001092C10040E051EEE1
:101E500060E070E08AEB94E0D7DC68EE73E080E04D
:101E600090E03DDF4091790550917A0560917B05C6
:101E700070917C058091770590917805C5DC109272
:101E8000F2091092F1091092F4091092F3091092DC
:101E9000F8091092F7091092F6091092F509ADE8C9
:101EA000B9E0FD0180E090E021913191232BB1F464
:101EB000FC01EE0FFF1FE357F64F27E635E03183B5
:101EC000208383589F4F90936C0580936B0585E723
:101ED00095E090936E0580936D0504C0019689315D
:101EE000910511F780E090E02D913D91232BB1F405
:101EF000FC01EE0FFF1FE357F64F2DE535E0318370
:101F0000208383589F4F909362058093610585E7F6
:101F100095E0909364058093630504C00196893130
:101F2000910511F763E174E0CE01099606DE63E1E5
:101F300074E0CE010F9601DE63E174E0CE014596B8
:101F4000FCDD63E174E0CE014B96F7DD19A21AA225
:101F50001BA280E895E2A0E0B0E089839A83AB837E
:101F6000BC8384E690E09E838D8380E092E0988736
:101F70008F83CE010F96B6DDCE014596B3DDCE013F
:101F80004B96B0DD40E855E260E070E08DE194E012
:101F90003BDC84E690E0A0E0B0E0809321049093E5
:101FA0002204A0932304B09324048EEA93E08DDCF2
:101FB0006AE070E080E090E092DE80EE93E085DC05
:101FC0006AE070E080E090E08ADE6F817885CE0183
:101FD0000F963ADD6F817885CE014B9635DDFF2473
:101FE000F3941BA28DE194E072DB181619060CF035
:101FF000A0C063E174E0CE0184969FDDF4DC97FD20
:102000001CC08A309105C9F08AA71BA608A519A58E
:102010000F5F1F4FB801CE01849616DD882371F340
:102020002CA13DA188A599A5BE01665D7F4F820FB9
:10203000931F63D419A708A7E1CF8F8598890097CC
:1020400099F06CA17DA16115710569F049895A89E2
:1020500028A539A54217530730F04FD488A599A574
:102060009C8B8B8B0FC0D3D28CA19DA1988B8F871B
:102070008EA19FA19A8B898B88A599A59C8B8B8B10
:102080001DA21CA28CA19DA1C2D26FEE73E0CE0155
:10209000849653DD2B893C8988A599A52817390793
:1020A00040F0BE016C5D7F4FCE010F9688DC182F8B
:1020B00001C010E08CA19DA1AAD2112369F06B8907
:1020C0007C89CE010F9658DCBE01615F7F4FCE0147
:1020D000459614DDF9A224C066EF73E0CE01849624
:1020E0002CDD2B893C8988A599A52817390738F05C
:1020F000BE016C5D7F4FCE010F9661DC182F8CA165
:102100009DA185D2112361F06B897C89CE010F9648
:1021100033DCBE01615F7F4FCE014B96EFDCFAA24C
:1021200089A1882331F08AA1882319F0FBA219A282
:102130001AA28BA1882309F454CFBE01655E7F4F9C
:1021400087E595E0DBDC80915705909158059093E9
:1021500074058093730580916D0590916E05609173
:102160006B0570916C05DC01ED91FC910190F081A3
:10217000E02D41E755E01995BE016B5E7F4F87E585
:1021800095E0BCDC809157059091580590937405BB
:10219000809373058091630590916405609161055A
:1021A00070916205DC01ED91FC910190F081E02DD0
:1021B00041E755E0199585E795E00E945E0711CF4C
:1021C0001092200410921F0448EE53E060E070E08B
:1021D00040932104509322046093230470932404B9
:1021E0008AE492E090931E0480931D0425E331E07D
:1021F00030932A042093290424E331E030932C0403
:1022000020932B0420E331E030932E0420932D04FF
:1022100021E331E03093300420932F0422E331E0B6
:10222000309332042093310426E331E030933404B8
:10223000209333041092360410923704109238041D
:10224000109239041092BD041092BC044093BE0455
:102250005093BF046093C0047093C1049093BB0477
:102260008093BA0485EC90E09093C7048093C604F1
:1022700084EC90E09093C9048093C80480EC90E0D3
:102280009093CB048093CA0481EC90E09093CD04AA
:102290008093CC0482EC90E09093CF048093CE04A2
:1022A00086EC90E09093D1048093D0041092D304F4
:1022B0001092D4041092D5041092D60488E692E0CD
:1022C00090937605809375058AEB94E0909378055A
:1022D0008093770580E091EEA0E0B0E080937905EF
:1022E00090937A05A0937B05B0937C051092FB092F
:1022F0008CE592E090930A0A8093090A10920B0AE7
:1023000010920C0A10920D0A10920E0A1092140AE2
:102310001092130A1092150A1092160A1092170AB8
:102320001092180A10921E0A10921D0A10921F0A8B
:102330001092200A1092210A1092220A1092260A64
:102340001092250AEFEBF9E0ADE8B9E01D921D927D
:10235000EA17FB07D9F781EF99E0119211928E17D6
:102360009F07D9F7ADE8B5E0EDE8F7E01D92EA1771
:10237000FB07E1F7119289E0ED38F807D9F71092E1
:10238000890510928A0510928B0510928C0581E7C1
:1023900095E022E732E0309372052093710523E146
:1023A00034E030937405209373052DEF33E03093C0
:1023B00068052093670590936A05809369051092DC
:1023C000700510926F0527E034E030935E0520938E
:1023D0005D059093600580935F05109266051092ED
:1023E000650563E174E087E595E0A7CB09D0A59F7B
:1023F000900DB49F900DA49F800D911D1124089500
:10240000A29FB001B39FC001A39F700D811D112435
:10241000911DB29F700D811D1124911D0895DB0146
:102420008F939F93E3DFBF91AF91A29F800D911D8A
:10243000A39F900DB29F900D1124089597FB072E36
:1024400016F4009406D077FD08D02DD007FC05D0F7
:102450003EF4909581959F4F0895709561957F4FBB
:102460000895A1E21A2EAA1BBB1BFD010DC0AA1FD5
:10247000BB1FEE1FFF1FA217B307E407F50720F0ED
:10248000A21BB30BE40BF50B661F771F881F991F68
:102490001A9469F760957095809590959B01AC01B1
:1024A000BD01CF010895AA1BBB1B51E107C0AA1FA4
:1024B000BB1FA617B70710F0A61BB70B881F991FE5
:1024C0005A95A9F780959095BC01CD010895EE0F1E
:1024D000FF1F881F8BBF0790F691E02D19940F9373
:1024E0001F93CF93DF938230910510F482E090E048
:1024F000E091290AF0912A0A20E030E0A0E0B0E063
:10250000309719F140815181028113814817590791
:10251000C8F08417950769F4109731F012960C9360
:10252000129713961C9327C00093290A10932A0A26
:1025300022C02115310519F04217530718F49A01EA
:10254000BD01EF01DF01F801DBCF21153105F9F005
:10255000281B390B2430310580F48A819B81611559
:10256000710521F0FB019383828304C090932A0AB2
:102570008093290AFE01329644C0FE01E20FF31F48
:102580008193919322503109398328833AC0209155
:10259000270A3091280A232B41F42091020230911E
:1025A00003023093280A2093270A209100023091D9
:1025B00001022115310541F42DB73EB740910402C7
:1025C00050910502241B350BE091270AF091280A4F
:1025D000E217F307A0F42E1B3F0B2817390778F0FA
:1025E000AC014E5F5F4F2417350748F04E0F5F1F59
:1025F0005093280A4093270A8193919302C0E0E008
:10260000F0E0CF01DF91CF911F910F910895CF930B
:10261000DF93009709F481C0FC0132971382128284
:10262000A091290AB0912A0A109781F42081318162
:10263000820F931F2091270A3091280A2817390703
:1026400051F5F093280AE093270A67C0ED0120E0D6
:1026500030E0CE17DF0740F44A815B819E014115CF
:102660005105F1F0EA01F5CFD383C2834081518156
:10267000840F951FC817D90759F488819981840F51
:10268000951F0296918380838A819B8193838283A5
:102690002115310529F4F0932A0AE093290A3DC057
:1026A000E901FB83EA8349915991C40FD51FEC17C7
:1026B000FD0761F480819181840F951F0296E901E5
:1026C00099838883828193819B838A83E0E0F0E011
:1026D00012968D919C911397009719F0FD01DC01E2
:1026E000F7CF8D919C9111979D012E5F3F4F820FE7
:1026F000931F2091270A3091280A2817390769F477
:10270000309729F410922A0A1092290A02C01382E3
:102710001282B093280AA093270ADF91CF910895DF
:102720006F927F928F929F92AF92BF92CF92DF92E1
:10273000EF92FF920F931F93CF93DF93009781F453
:10274000CB01DF91CF911F910F91FF90EF90DF9020
:10275000CF90BF90AF909F908F907F906F90BFCEA3
:10276000FC01E60FF71F9C0122503109E217F30725
:1027700008F4A5C0EC01D9010D911C911197061721
:102780001707A8F00530110508F497C0C801049791
:102790008617970708F491C002501109061B170B02
:1027A000019311936D937C93CF0131DF86C05B0160
:1027B000A01AB10A4C01800E911EA091290AB09175
:1027C0002A0A612C712CE12CF12C109709F446C0D7
:1027D0008D919C911197A815B905B1F56C0142E056
:1027E000C40ED11CCA14DB0478F14C018A189B0872
:1027F000640142E0C40ED11C1296BC90129713964D
:10280000AC91B5E0CB16D10440F0B282A3839182A3
:102810008082D9016D937C9309C00E5F1F4F800F9A
:10282000911FF90191838083EB2DFA2FE114F104BC
:1028300031F0D7011396FC93EE9312973EC0F093BC
:102840002A0AE093290A39C06816790608F43C017F
:102850007D0112960D90BC91A02DB7CF8091270AD3
:102860009091280A88169906E1F466167706C8F44E
:102870008091000290910102009741F48DB79EB7BC
:102880004091040250910502841B950BE817F9074B
:10289000B0F4F093280AE093270AF901718360836A
:1028A0000CC0CB011CDE7C01009749F0A801BE01E1
:1028B0001BD0CE01ACDEC70104C0CE0102C080E057
:1028C00090E0DF91CF911F910F91FF90EF90DF90FB
:1028D000CF90BF90AF909F908F907F906F90089512
:1028E00081E090E0F8942DC0FB01DC0102C0019072
:1028F0000D9241505040D8F70895FB01DC01019042
:102900000D920020E1F70895FB01DC014150504099
:1029100030F08D910190801919F40020B9F7881BCF
:10292000990B0895FB01DC014150504048F00190A3
:102930000D920020C9F701C01D9241505040E0F7B0
:10294000089510E0C3E7D0E000E005C0802FFE014D
:10295000BEDD2196011DC437D10780E00807B1F71D
:04296000F894FFCF19
:1029640000002B0A8000726F7373657269616C5F7B
:102974006D7367732F5265717565737450617261FD
:102984006D0000000000E5045702540251020000EB
:102994000000B404FC01F901F601000000008E03FC
:1029A40048034503420300000000950B090B360B56
:1029B400E10B670B450B590B00000000DC037305AA
:1029C400F301F00100000000AB005E07A600000068
:1029D4000000B203A0019D019A0100000000020C56
:1029E400020C020C020C4D657373616765206672FC
:1029F4006F6D206465766963652064726F707065BD
:102A0400643A206D657373616765206C61726765F4
:102A140072207468616E206275666665722E003974
:102A24003932636538613136383763656338633802
:102A34006264383833656337336361343164310039
:102A44007374645F6D7367732F537472696E670078
:102A54003966306539386264613635393831393828
:102A640036646466353361666137613430653439A0
:102A74000031316162643733316332353933333293
:102A84003631636436313833626431326436323914
:102A94003500726F7373657269616C5F6D73677310
:102AA4002F4C6F67003061643531663838666334A3
:102AB4003438393266386331303638343037373663
:102AC400343630303500726F7373657269616C5FD0
:102AD4006D7367732F546F706963496E666F00631B
:102AE40064373136366337346335353263333131E5
:102AF4006662636332666535613762633238390012
:102B04007374645F6D7367732F54696D650024502B
:102B14004D544B3331342C302C312C302C312C305F
:102B24002C302C302C302C302C302C302C302C30C1
:102B34002C302C302C302C302C302C302A323800D5
:102B4400245047434D442C33332C302A364400243C
:102B5400475047474100244750524D430072617724
:102B64005F6770726D63007261775F67706767613A
:042B7400000D0A0046
:00000001FF
