:1000000008C1000081C7000054C7000027C70000D6
:10001000FAC60000CDC60000A0C6000073C60000EE
:1000200046C6000027C1000025C1000023C1000012
:1000300021C100001FC100001DC100001BC1000044
:1000400019C100000C94611415C1000013C1000017
:1000500011C100000FC100000DC10000DEC500008D
:1000600009C100001BC40000F0C3000003C1000070
:1000700001C10000FFC00000FDC00000FBC0000087
:100080000C943414F7C00000F5C00000F3C0000069
:10009000F1C00000EFC00000EDC00000EBC00000A8
:1000A000E9C00000E7C000000C940714E3C00000A2
:1000B000E1C00000DFC00000DDC000000C94DA13D6
:1000C000D9C00000D7C00000D5C00000D3C00000D8
:1000D000D1C00000CFC0000082C3000057C30000A1
:1000E000C9C00000B304B604A504A904AD04ED041E
:1000F000BA04BE04C404C804CC04D204D604DA048E
:10010000ED04E004E404E8040000210024002700DA
:100110002A002D0030003300010100000401070116
:100120000A0100002200250028002B002E003100CB
:10013000340002010000050108010B010505050559
:10014000070508080808020202020A0A080804044F
:10015000040401010101010101010303030303037D
:100160000303040707070C0C0C0C0C0C0C0C02020C
:10017000020206060606060606060B0B0B0B0B0B09
:100180000B0B010210202008081020401020408096
:10019000020102010804020101020408102040804B
:1001A00080402010080402018004020180402010D9
:1001B0000804020108040201010204081020408022
:1001C000010204081020408000000A0B02090C0DF7
:1001D0000E080703040100000000000000000000FA
:1001E000000000000000000000000000000000000F
:1001F00000000000121110000000000000000000CC
:100200000000000000000000000000000000D91401
:10021000961911241FBECFEFD1E2DEBFCDBF00E0A3
:100220000CBF14E0A0E0B2E0E4EDF8E300E00BBFA7
:1002300002C007900D92A03BB107D9F72BE0A0EBCD
:10024000B4E001C01D92A93AB207E1F711E0C8E09D
:10025000D1E000E006C021970109802FFE010E9435
:100260001A1AC730D10780E00807A9F70E94D016F4
:100270000C94591CC5CE0895CF92DF92EF92FF9255
:100280000F931F93CF93DF936C017A018B01C0E032
:10029000D0E0CE15DF0581F0D8016D918D01D6013A
:1002A000ED91FC910190F081E02DC6011995892B0B
:1002B00011F02196EECF7E01C701DF91CF911F9102
:1002C0000F91FF90EF90DF90CF90089580E090E045
:1002D0000895FC01538D448D252F30E0842F90E04C
:1002E000821B930B541710F0CF9608950197089531
:1002F000FC01918D828D981761F0828DDF01A80F2E
:10030000B11D5D968C91928D9F5F9F73928F90E04F
:1003100008958FEF9FEF0895FC01918D828D9817BE
:1003200031F0828DE80FF11D858D90E008958FEFFB
:100330009FEF0895FC01918D228D892F90E0805CC4
:100340009F4F821B91098F7399270895FC01848D1B
:10035000DF01A80FB11DA35ABF4F2C91848D90E0EF
:1003600001968F739927848FA689B7892C93A089CA
:10037000B1898C91837080648C93938D848D981354
:1003800006C00288F389E02D80818F7D80830895E7
:10039000EF92FF920F931F93CF93DF93EC0181E0D5
:1003A000888F9B8D8C8D981305C0E889F989808191
:1003B00085FD25C0F62E0B8D10E00F5F1F4F0F73CC
:1003C0001127E02E8C8DE8120BC00FB607FCFACF78
:1003D000E889F989808185FFF5CFCE01B7DFF2CFBB
:1003E0008B8DFE01E80FF11DE35AFF4FF0829FB79E
:1003F000F8940B8FEA89FB89808180620AC09FB7DD
:10040000F894EE89FF896083E889F9898081837097
:10041000806480839FBF81E090E0DF91CF911F9146
:100420000F91FF90EF900895CF93DF93EC01888DAB
:100430008823C1F0EA89FB89808185FD05C0A889F0
:10044000B9898C9186FD0EC00FB607FCF5CF80816F
:1004500085FFF2CFA889B9898C9185FFEDCFCE01B8
:1004600075DFE8CFDF91CF9108950895CF93DF93A3
:10047000009771F0FC0101900020E9F73197AF017E
:10048000481B590BBC0180E495E0F6DEEC0102C08C
:10049000C0E0D0E042E050E068EB72E080E495E03C
:1004A000EBDE8C0F9D1FDF91CF9108950E94371CCA
:1004B000CF92DF92EF92FF92CF93DF93EC016A012C
:1004C0007B01E889F98982E080834115514E6105FD
:1004D0007105B1F060E079E08DE390E0A70196014D
:1004E0000E94BB19DA01C9010197A109B109B695AA
:1004F000A795979587959C01211580E13807A8F06D
:10050000E889F989108260E874E88EE190E0A7013B
:1005100096010E94BB19DA01C9010197A109B1092D
:10052000B695A795979587959C01EC85FD853083B9
:10053000EE85FF852083188EEC89FD8986E0808317
:10054000EA89FB89808180618083EA89FB898081D7
:1005500088608083EA89FB89808180688083EA895A
:10056000FB8980818F7D8083DF91CF91FF90EF9019
:10057000DF90CF900895CF92DF92EF92FF920F938A
:100580001F93CF93DF93E0902C06F0902D06E1149B
:10059000F10409F441C0C0913006D0913106209792
:1005A000D9F1870168018FEFC81AD80AF801808154
:1005B000082E000C990B0E94A619892B11F08601B8
:1005C000F1CF2197CE0DDF1D8881082E000C990BED
:1005D0000E94A619892B29F0C017D10710F0219786
:1005E000F3CFAE014F5F5F4F401B510B509331066D
:1005F00040933006E016F10620F4B801C7010E94CE
:100600003B1CE0912C06F0912D06809130069091D4
:100610003106E80FF91F1082DF91CF911F910F91E2
:10062000FF90EF90DF90CF900895FC0180912C0611
:1006300090912D06009761F06081718161157105BF
:1006400039F0448155810E944B1C21E0892B09F02F
:1006500020E0822F08950F931F93CF93DF93EC0137
:1006600088819981009729F02A813B8126173707D5
:1006700088F48B016F5F7F4F0E94571B009761F0DA
:10068000998388831B830A832C813D81232B11F45A
:10069000FC01108281E001C080E0DF91CF911F91C9
:1006A0000F910895EF92FF920F931F93CF93DF93D3
:1006B000EC017B018A01BA01CEDF288139818111E9
:1006C0000DC02115310519F0C9010E94CE1A1982F9
:1006D00018821D821C821B821A8206C01D830C8315
:1006E000B701C9010E94441CCE01DF91CF911F9137
:1006F0000F91FF90EF900895CF93DF93EC0186E088
:10070000CC32D807D1F060912C0670912D0661157E
:10071000710539F04091300650913106CE01C2DFAB
:100720000CC088819981009711F00E94CE1A19821D
:1007300018821D821C821B821A82CE01DF91CF910A
:100740000895CF93DF93EC0140E050E06AEB72E054
:10075000A9DFCE01DF91CF910895FC0180819181C5
:100760000C94CE1AFC01118210821382128215821F
:1007700014826115710549F0FB0101900020E9F731
:100780003197AF01461B570B8DCF08951F920F92E3
:100790000FB60F9211240BB60F922F933F934F93E6
:1007A0005F936F937F938F939F93AF93BF93EF93D9
:1007B000FF9380E495E0CADDFF91EF91BF91AF9187
:1007C0009F918F917F916F915F914F913F912F9169
:1007D0000F900BBE0F900FBE0F901F9018951F9299
:1007E0000F920FB60F9211240BB60F922F938F9387
:1007F0009F93EF93FF93E0915005F0915105808115
:10080000E0915605F091570582FD12C090818091CC
:1008100059058F5F8F7320915A05821751F0E0912F
:100820005905F0E0E05CFA4F958F8093590501C0BF
:100830008081FF91EF919F918F912F910F900BBE2F
:100840000F900FBE0F901F9018951F920F920FB62A
:100850000F9211240BB60F922F933F934F935F93F8
:100860006F937F938F939F93AF93BF93EF93FF9378
:100870008CEF9AE06BDDFF91EF91BF91AF919F916B
:100880008F917F916F915F914F913F912F910F9039
:100890000BBE0F900FBE0F901F9018951F920F92D6
:1008A0000FB60F9211240BB60F922F938F939F9335
:1008B000EF93FF93E0910C0BF0910D0B8081E09191
:1008C000120BF091130B82FD12C090818091150BD9
:1008D0008F5F8F732091160B821751F0E091150BEB
:1008E000F0E0E450F54F958F8093150B01C08081A7
:1008F000FF91EF919F918F912F910F900BBE0F90D1
:100900000FBE0F901F901895362F90E0FC01E85312
:10091000FE4F4491FC01EE57FE4F2491FC01E45C34
:10092000FE4F9491992309F46CC0442309F455C0F7
:1009300050E0FA013197E231F10508F04EC0882706
:10094000EE58FF4F8F4F0C941A1A809180008F77CA
:1009500007C0809180008F7D03C080918000877FD9
:10096000809380003AC084B58F7702C084B58F7DB4
:1009700084BD33C08091B0008F7703C08091B000F8
:100980008F7D8093B00029C0809190008F7707C041
:10099000809190008F7D03C080919000877F80932D
:1009A00090001BC08091A0008F7707C08091A000AD
:1009B0008F7D03C08091A000877F8093A0000DC031
:1009C000809120018F7707C0809120018F7D03C027
:1009D00080912001877F80932001E92FF0E0EE0FC6
:1009E000FF1FEE5DFE4FA591B4919FB7F8943111B2
:1009F00004C08C912095282302C0EC912E2B2C93BF
:100A00009FBF0895CF93DF9390E0FC01EE57FE4F18
:100A10002491FC01E45CFE4F8491882361F190E015
:100A2000880F991FFC01E85FFE4FC591D491FC012E
:100A3000EE5DFE4FA591B491611109C09FB7F89486
:100A40008881209582238883EC912E230BC062300D
:100A500061F49FB7F8948881322F3095832388837F
:100A6000EC912E2B2C939FBF06C08FB7F894E88192
:100A70002E2B28838FBFDF91CF9108953FB7F89435
:100A80008091F80A9091F90AA091FA0AB091FB0AB4
:100A900026B5A89B05C02F3F19F00196A11DB11DD9
:100AA0003FBFBA2FA92F982F8827820F911DA11D14
:100AB000B11DBC01CD0142E0660F771F881F991F51
:100AC0004A95D1F708958F929F92AF92BF92CF929D
:100AD000DF92EF92FF92D2DF4B015C0188EEC82ECD
:100AE00083E0D82EE12CF12CC9DFDC01CB01881981
:100AF0009909AA09BB09883E9340A105B105A0F355
:100B000021E0C21AD108E108F10888EE880E83E0DE
:100B1000981EA11CB11CC114D104E104F10421F7F9
:100B2000FF90EF90DF90CF90BF90AF909F908F900D
:100B300008952FB7F8946091F40A7091F50A8091A6
:100B4000F60A9091F70A2FBF08950F931F93CF9342
:100B5000DF93CDB7DEB72A970FB6F894DEBF0FBE8E
:100B6000CDBF8C0184E292E09A8389831B821C8230
:100B70001D821E821F82188619861A86D801ED9161
:100B8000FC910190F081E02DAE014F5F5F4F6AE074
:100B900070E0C8011995CDDFF80160877187828701
:100BA00093872A960FB6F894DEBF0FBECDBFDF91B4
:100BB000CF911F910F9108950F931F93BADF609308
:100BC00048057093490580934A0590934B0580E44E
:100BD00095E08EDB97FF1EC0ACDF009148051091B9
:100BE000490520914A0530914B05DC01CB01801B62
:100BF000910BA20BB30B0091440510914505209178
:100C000046053091470580179107A207B307F8F210
:100C10008FEF9FEF1F910F9108951F920F920FB6C4
:100C20000F9211242F933F938F939F93AF93BF9372
:100C30008091F40A9091F50AA091F60AB091F70A12
:100C40003091F30A23E0230F2D3720F40196A11DE4
:100C5000B11D05C026E8230F0296A11DB11D2093EA
:100C6000F30A8093F40A9093F50AA093F60AB093DE
:100C7000F70A8091F80A9091F90AA091FA0AB091C6
:100C8000FB0A0196A11DB11D8093F80A9093F90A01
:100C9000A093FA0AB093FB0ABF91AF919F918F91F5
:100CA0003F912F910F900FBE0F901F9018951F929C
:100CB0000F920FB60F9211240BB60F922F933F9302
:100CC0004F935F936F937F938F939F93AF93BF9354
:100CD000EF93FF93E0910E02F0910F021995FF91AF
:100CE000EF91BF91AF919F918F917F916F915F91A4
:100CF0004F913F912F910F900BBE0F900FBE0F9011
:100D00001F9018951F920F920FB60F9211240BB6D9
:100D10000F922F933F934F935F936F937F938F9394
:100D20009F93AF93BF93EF93FF93E0910C02F091E9
:100D30000D021995FF91EF91BF91AF919F918F9106
:100D40007F916F915F914F913F912F910F900BBECB
:100D50000F900FBE0F901F9018951F920F920FB615
:100D60000F9211240BB60F922F933F934F935F93E3
:100D70006F937F938F939F93AF93BF93EF93FF9363
:100D8000E0910202F09103021995FF91EF91BF915A
:100D9000AF919F918F917F916F915F914F913F9113
:100DA0002F910F900BBE0F900FBE0F901F901895B4
:100DB0001F920F920FB60F9211240BB60F922F9322
:100DC0003F934F935F936F937F938F939F93AF93D3
:100DD000BF93EF93FF93E0910002F0910102199508
:100DE000FF91EF91BF91AF919F918F917F916F9103
:100DF0005F914F913F912F910F900BBE0F900FBEBF
:100E00000F901F9018951F920F920FB60F921124FA
:100E10000BB60F922F933F934F935F936F937F93F4
:100E20008F939F93AF93BF93EF93FF93E0910A0249
:100E3000F0910B021995FF91EF91BF91AF919F91A6
:100E40008F917F916F915F914F913F912F910F9073
:100E50000BBE0F900FBE0F901F9018951F920F9210
:100E60000FB60F9211240BB60F922F933F934F930F
:100E70005F936F937F938F939F93AF93BF93EF9302
:100E8000FF93E0910802F09109021995FF91EF910B
:100E9000BF91AF919F918F917F916F915F914F9192
:100EA0003F912F910F900BBE0F900FBE0F901F9090
:100EB00018951F920F920FB60F9211240BB60F9236
:100EC0002F933F934F935F936F937F938F939F9352
:100ED000AF93BF93EF93FF93E0910602F091070267
:100EE0001995FF91EF91BF91AF919F918F917F9154
:100EF0006F915F914F913F912F910F900BBE0F908B
:100F00000FBE0F901F9018951F920F920FB60F9261
:100F100011240BB60F922F933F934F935F936F93D0
:100F20007F938F939F93AF93BF93EF93FF93E09142
:100F30000402F09105021995FF91EF91BF91AF91D5
:100F40009F918F917F916F915F914F913F912F91E1
:100F50000F900BBE0F900FBE0F901F901895FC01C5
:100F60009081903388F5818128E830E0281B310991
:100F700087FD3395220F331F220F331F621773072C
:100F800084F0828148E552E0481B510987FD539562
:100F9000440F551F440F551F9B01461757070CF46C
:100FA0009A0122503109220F331F4FB7F894892F2D
:100FB00090E0FC01EE0FFF1F8E0F9F1FFC01E0551C
:100FC000FB4F328321834FBF0895FC0182819381BF
:100FD0009C012C5434402132334020F4909317026A
:100FE00080931602089586E098E090930B02809318
:100FF0000A02E9E6F0E080818F7380688083EB9AD3
:101000003DDD70939C0B60939B0B089583EF97E0FD
:1010100090930B0280930A0280916900806C809308
:101020006900EB9A2BDD20919B0B30919C0B621B8E
:10103000730B7093110260931002809110029091D3
:101040001102893E93403CF0809110029091110270
:101050008C3D954084F080911002909111028D3D5D
:10106000954044F08091100290911102803D97408C
:101070002CF00895089510929D0B089581E08093BF
:101080009D0B08958AE099E09093030280930202F9
:10109000EAE6F0E080818C608083ED9AEFDC2091BD
:1010A000990B30919A0B621B730B70931302609330
:1010B00012020895FC01828193819C012C543440DA
:1010C0002132334020F4909319028093180208953E
:1010D00086E593E0089587E793E00895FB0120817A
:1010E00030E0FC0133832283FB014181342BFC017E
:1010F0003383228382E090E00895FC012281FB018A
:101100002083FC018381FB01818382E090E00895CC
:1011100087E893E0089584E892E0089588EA93E0F0
:10112000089589EC93E008958CED93E008958DEF98
:1011300093E0089586E194E0089587E394E00895AC
:10114000FC01DB014C9150E060E070E0428353838E
:101150006483758311968C911197582B4283538326
:101160006483758312968C911297682B4283538304
:101170006483758313968C911397782B42835383E2
:101180006483758314964C91149750E060E070E08E
:10119000468357836087718715968C911597582BD6
:1011A000468357836087718716968C911697682BB4
:1011B000468357836087718717968C91782B468377
:1011C00057836087718788E090E00895DC01FB0118
:1011D00012968C911297808313968C91139781832A
:1011E00014968C911497828315968C91159783830E
:1011F00016968C911697848317968C9117978583F2
:1012000018968C911897868319968C91878388E01D
:1012100090E0089582E498E09093030280930202A4
:10122000EAE6F0E08081837F88608083ED9A26DCA7
:1012300070939A0B6093990B089585E399E09093CE
:10124000010280930002EAE6F0E0808183608083FF
:10125000EC9A14DC20919E0B30919F0B621B730B58
:10126000709315026093140208958DE199E09093B4
:10127000010280930002EAE6F0E080818C7F8260C8
:101280008083EC9AFBDB70939F0B60939E0B089519
:101290004F925F926F927F928F929F92AF92BF9286
:1012A000EF92FF920F931F93CF93DF9300D01F9283
:1012B000CDB7DEB77C018B01CE0101960E948E1462
:1012C00089819A81AB81BC814C015D0124E0820E51
:1012D000911CA11CB11CA8014D5F5F4FFA0124E0D5
:1012E00030E02901612C712C481459046A047B04F4
:1012F00028F4618161932F5F3F4FF3CFF801E80F2E
:10130000F91F1382F7015383428304960F900F90C5
:101310000F900F90DF91CF911F910F91FF90EF9061
:10132000BF90AF909F908F907F906F905F904F9005
:1013300008954F925F926F927F928F929F92AF9299
:10134000BF92EF92FF920F931F93CF93DF9300D042
:101350001F92CDB7DEB77C018B01FB018191BF01EC
:10136000F7018283CE0101960E948E1489819A81B1
:10137000AB81BC814C015D01F5E08F0E911CA11C7D
:10138000B11CA8014C5F5F4FFA0125E030E0290154
:10139000612C712C481459046A047B0428F461817F
:1013A00061932F5F3F4FF3CFF801E80FF91F1482CD
:1013B000F7015483438305960F900F900F900F9081
:1013C000DF91CF911F910F91FF90EF90BF90AF9061
:1013D0009F908F907F906F905F904F9008954F9265
:1013E0005F926F927F928F929F92AF92BF92CF92B5
:1013F000DF92EF92FF920F931F93CF93DF93CDB7BE
:10140000DEB72C970FB6F894DEBF0FBECDBF7C01C0
:101410008B01DB018C9190E0F7019383828311961D
:101420002C91922B938382836E5F7F4FCE01019626
:101430000E948E1489809A80AB80BC802401350183
:10144000F6E04F0E511C611C711C98012B5F3F4F41
:10145000F90186E090E0AC0160E070E044155505CC
:101460006605770520F4418141930196F4CFF80198
:10147000E80DF91D1582D70115963C932E9314970C
:10148000B4016A5F7F4F600F711FCE0105960E9405
:101490008E14BAE08B0E911C4D805E806F80788434
:1014A000A401092C000C660B770B440D551D661D1D
:1014B000771DD801A80DB91DCD01801B910B5C01D2
:1014C000C12CD12CA416B506C606D70628F48D91DA
:1014D000FD0132978083F0CF5401A40CB51CB801F4
:1014E0006A0D7B1DFB0131971082C4010197800FAB
:1014F000911FF70197838683CE0109960E948E146F
:1015000095012C5F3F4F89859A85AB85BC85290164
:10151000032E000C66087708480E591E6A1E7B1EB3
:10152000F5013396E00FF11FA9014A01A12CB12C5E
:1015300084149504A604B70428F4618161934F5F75
:101540005F4FF3CF820F931FF801E80FF91FDF0100
:1015500011971C9221503109020F131FD7011996C0
:101560001C930E9318972181428150E060E070E057
:10157000BA0155274427522B2081422B2381722BFD
:10158000F701428753876487758704962C960FB6B8
:10159000F894DEBF0FBECDBFDF91CF911F910F91A9
:1015A000FF90EF90DF90CF90BF90AF909F908F9083
:1015B0007F906F905F904F900895EF92FF920F93FE
:1015C0001F93CF93DF937C018B01DC011296ED9189
:1015D000FC911397EF0109900020E9F72197CE1BAA
:1015E000DF0BAE0160E070E0C8010E94BC14F7019F
:1015F00062817381AE01C80104960E943B1CCE013A
:101600000496DF91CF911F910F91FF90EF90089575
:101610004F925F926F927F92AF92BF92CF92DF9282
:10162000EF92FF920F931F93CF93DF93EC018B0107
:101630008A81FB0180838B8181838C8182838D8170
:101640008383DB0140E050E0BA01E4E0F0E014966F
:10165000CA80DB80EC80FD80CF0104964C155D05CF
:101660006E057F05C8F42A853B85E20FF31F34978A
:10167000D080F18032812381DC921196FC92119707
:1016800012963C93129713962C931397FC014F5F7D
:101690005F4F6F4F7F4FDBCF5F01A00EB11E2C85D8
:1016A000F50120832D8521832E8522832F85238399
:1016B000D50140E050E0BA01CC84DD84EE84FF84A3
:1016C0009C012C5F3F4F4C155D056E057F05F8F4BE
:1016D000CD018A199B09EC88FD888E0D9F1DFC01A8
:1016E000D080E180F28083811496DC921497159665
:1016F000EC9215971696FC92169717968C9317975F
:10170000C9014F5F5F4F6F4F7F4F1496D5CFF801E0
:10171000E80FF91F8E8980838F898183888D82836A
:10172000898D83837901A12CB12C412C512C32015C
:101730008E899F89A88DB98D481659066A067B0641
:1017400080F5EC8DFD8DEA0DFB1DA081B181FD01C1
:1017500001900020E9F731976F01CA1ADB0AA60150
:1017600060E070E0C8018E0D9F1D0E94BC14F4E083
:10177000EF0EF11CEC8DFD8DEA0DFB1D608171817A
:10178000A601C8018E0D9F1D0E943B1CEC0CFD1C88
:101790008FEF481A580A680A780AE2E0AE0EB11CC8
:1017A000C7CFC701DF91CF911F910F91FF90EF90AD
:1017B000DF90CF90BF90AF907F906F905F904F90F1
:1017C0000895EF92FF920F931F93CF93DF938C01B5
:1017D0007B01DC0112962C911297FB012193CF0122
:1017E0001396ED91FC911497EF0109900020E9F711
:1017F0002197CE1BDF0BAE0160E070E00E94BC14AD
:10180000D80113966D917C911497AE01C70105968E
:101810000E943B1CCE010596DF91CF911F910F9145
:10182000FF90EF900895CF92DF92EF92FF920F9387
:101830001F93CF93DF937C018B01DC0112968C9177
:101840001297FB01808313968C91139781831496D2
:10185000ED91FC911597EF0109900020E9F7219790
:10186000CE1BDF0BAE0160E070E0C80102960E9463
:10187000BC14D70114966D917C911597AE01C801E7
:1018800006960E943B1CCE010696F701A681B78101
:10189000FD0101900020E9F731976F01CA1ADB0AB8
:1018A000A60160E070E0800F911F0E94BC142A9690
:1018B000D70116966D917C911797A601C8018C0FE0
:1018C0009D1F0E943B1CCC0DDD1DD7011896ED918C
:1018D000FC911997DF010D900020E9F711976D0138
:1018E000CE1ADF0AA60160E070E0C8018C0F9D1FD0
:1018F0000E94BC142496F70160857185A601C80179
:101900008C0F9D1F0E943B1CC6018C0F9D1FD70191
:101910001A966C911A971B964C911B971C963C91AA
:101920001C971D962C91F801E80FF91F60834183E5
:10193000328323830496DF91CF911F910F91FF9003
:10194000EF90DF90CF9008952F923F924F925F9249
:101950006F927F928F929F92AF92BF92CF92DF92BF
:10196000EF92FF920F931F93CF93DF93CDB7DEB724
:1019700060970FB6F894DEBF0FBECDBF8C016B0130
:10198000DB018D909D90AD90BC90FC018281938194
:10199000A481B58188159905AA05BB0570F4B40129
:1019A000660F771F660F771F828593850E94571BEE
:1019B000D8011B969C938E931A97F801828293828A
:1019C000A482B5829601812C912C540144E050E010
:1019D000B8016A5F7F4F2C5F3F4FF801828193818E
:1019E000A481B581FA0134961F0188169906AA06CA
:1019F000BB0650F5D9011196FC90119712968C9167
:101A000090E0A0E0B0E0DC01992788279F29F90148
:101A1000F0808F29F380BF29F80186839783A08700
:101A2000B187DA01A101149782859385A80FB91FA8
:101A300084E0FB0101900D928A95E1F7FFEF8F1A88
:101A40009F0AAF0ABF0AC7CF4601840E951ED40174
:101A50008C9111969C91119712964C901297512C43
:101A6000612C712C320155244424592A482A13969A
:101A70008C91782A5F01F80184859585A685B785C4
:101A800084159505A605B70570F4B201660F771F9A
:101A9000660F771F848995890E94571BD801559638
:101AA0009C938E935497F801448655866686778674
:101AB000C401412C512C32019801205F3F4FD801C5
:101AC0001C964D915D916D917C911F97F501349617
:101AD000441655066606770698F5DC011596FC90C7
:101AE000159716964C91169750E060E070E0BA0199
:101AF000552744275F291496FC9014974F29179671
:101B0000FC907F29D80150964D935D936D937C9303
:101B100053975F01AC014819590954960D90BC9137
:101B2000A02DA40FB51F44E0F90101900D924A9534
:101B3000E1F7BFEF4B1A5B0A6B0A7B0A0496BFCF33
:101B4000D601AA0DBB1D8C9111969C9111971296EE
:101B50008C901297912CA12CB12C5401992488249B
:101B6000992A882A13968C91B82A7F01F8018689D0
:101B70009789A08DB18D88159905AA05BB0560F4DC
:101B8000B401660F771F848D958D0E94571BD80175
:101B90005D969C938E935C97F801868A978AA08EB7
:101BA000B18E212C312C812C912C54019801265E70
:101BB0003F4F3A872987F80186899789A08DB18D93
:101BC00088169906AA06BB0608F05EC0B6016E0D1F
:101BD0007F1DCE010196A2D697012C5F3F4F388B17
:101BE0002F8749815A816B817C81C901330FAA0BF0
:101BF000BB0B2C013D01440E551E661E771E4B8605
:101C00005C866D867E8623E0E20EF11CF601EE0D09
:101C1000FF1D2F853889C901A0E0B0E04B845C84AA
:101C20006D847E8484159505A605B70528F4A181E9
:101C3000A1932F5F3F4FEFCF6F847888460D571DDC
:101C4000F601E40FF51F31971082C30101978C0D47
:101C50009D1DD8015B969C938E935A977A015C9652
:101C6000ED91FC915D97E20DF31DA985BA858D91EB
:101C70009C9191838083BFEF8B1A9B0AAB0ABB0AAE
:101C8000E2E02E0E311C97CFC70160960FB6F89494
:101C9000DEBF0FBECDBFDF91CF911F910F91FF909F
:101CA000EF90DF90CF90BF90AF909F908F907F90FC
:101CB0006F905F904F903F902F9008958A579B4F61
:101CC000FC018081089585E494E0089586E694E01F
:101CD0000895FC01848595850895AF92BF92CF92B7
:101CE000DF92EF92FF920F931F93CF93DF9300D079
:101CF0001F921F92CDB7DEB7643671053CF0FC0130
:101D0000EA57FB4F2081222309F477C0DA017B01D7
:101D10008C01BC01615E7D4FED91FC910190F081E1
:101D2000E02DCA011995680128EEC21A2DEFD20ADA
:101D30002FEFD6012C93F801E75EFD4F2EEF2083A5
:101D400031968083319690833196292F280F2095E4
:101D500020833196E0821696FC9245E050E020E028
:101D600030E0DC011696A417B50734F06191260F18
:101D7000311D4F5F5F4FF7CF7C01B8E0EB0EF11CD8
:101D8000800F911FFC01E15EFD4F20952083E1E073
:101D9000EE16E2E0FE06BCF45601C5018C199D0961
:101DA0008E159F056CF5D80112968D919C91139715
:101DB000F50161915F01DC01ED91FC910190F081F1
:101DC000E02D1995EACF80EB92E09A83898383E036
:101DD0008B8386E794E09D838C83D801ED91FC9101
:101DE0000190F081E02DAE014F5F5F4F67E070E042
:101DF000C80119958FEF9FEF04C080E090E001C00B
:101E0000C7010F900F900F900F900F90DF91CF911F
:101E10001F910F91FF90EF90DF90CF90BF90AF9008
:101E20000895CF92DF92EF92FF920F931F93CF937B
:101E3000DF936C018B017A01EC01C056D44F88818D
:101E400087FF04C0FB011182108224C02CE02C9D6E
:101E5000C0012D9D900D11242881AC01420F511D10
:101E600027FD5A952091A40B30E04217530794F4B4
:101E70002881AC01420F511D27FD5A959A01FA01A4
:101E8000EE0FFF1F2E0F3F1FF901E055FB4F208182
:101E900026FD19C088818F5F88832CE02C9DC001AE
:101EA0002D9D900D11242881AC01420F511D27FD5D
:101EB0005A952091A40B30E042175307BCF42881B7
:101EC0002C3044F113C02881820F911D27FD9A9573
:101ED000FC01EE0FFF1F8E0F9F1FFC01E055FB4F13
:101EE000808160E08F730E948404D4CFF8018081E8
:101EF0009181049680349C4918F480E49CE904C0E4
:101F0000F801808191810496F701918380838FEF9E
:101F1000888345C0F801408151812881BC01620F4E
:101F2000711D27FD7A959B01FB01EE0FFF1F2E0F00
:101F30003F1FF901E055FB4F21813281240F351FEE
:101F4000F701318320832881AC01420F511D27FD09
:101F50005A959A01FA01EE0FFF1F2E0F3F1FF9014C
:101F6000E055FB4F208126FF1AC02881820F911D6A
:101F700027FD9A95FC01EE0FFF1F8E0F9F1FFC019E
:101F8000E055FB4F808161E08F73DF91CF911F910E
:101F90000F91FF90EF90DF90CF900C948404DF912D
:101FA000CF911F910F91FF90EF90DF90CF90089508
:101FB0000F931F93CF93DF938C01EC012696CE01F4
:101FC0008DD8D8011A96ED91FC911B97CE01DF9127
:101FD000CF911F910F9119942F923F924F925F9240
:101FE0006F927F928F929F92AF92BF92CF92DF9229
:101FF000EF92FF920F931F93CF93DF93CDB7DEB78E
:10200000A6970FB6F894DEBF0FBECDBF8C010E941D
:1020100099054B015C01980125573B4F3E8B2D8B59
:10202000F90180819181A281B381A5019401281BCE
:10203000390B4A0B5B0BDA01C901893F9A42A105B2
:10204000B10510F035971082180144E8241A4BEFBF
:10205000340AD1018D919C91892B79F0F801E157D7
:10206000FB4F80819181A281B38188159905AA05D2
:10207000BB0518F4F1011182108298012C573B4FD7
:102080003A8B298BA80140585B4F5C8B4B8BC80166
:102090004896988F8F8BD801AA57BB4FBC8FAB8FB8
:1020A000F801EC56FB4FFE8FED8F215F3F4F38A3B9
:1020B0002F8F42505109588B4F8786599B4F9A8FCB
:1020C000898F1996BAA3A9A3A50194012C5E3F4F4D
:1020D0004F4F5F4F2BA33CA34DA35EA3F801848910
:1020E0009589A689B789892B8A2B8B2B81F4D801F6
:1020F00012968D919C911397DC01ED91FC910284D5
:10210000F385E02D19959C0197FF14C087C20E94AA
:102110009905DC01CB0188199909AA09BB09F801C5
:10212000C488D588E688F788C816D906EA06FB066B
:10213000F0F69BC2A989BA898D919C911197820F63
:10214000931F8D939C93F10140815181473051053C
:10215000D9F4A98DBA8D8D919C911197AC014F5FE7
:102160005F4F4D935C93F801E80FF91F208FEF85C7
:10217000F88980819181019791838083892B09F06F
:10218000ADCF88E090E032C04115510539F52F3FC1
:10219000310589F481E090E0F101918380832BA1E6
:1021A0003CA14DA15EA1A9A1BAA12D933D934D9350
:1021B0005C93139793CF0E949905DC01CB0188199A
:1021C0009909AA09BB0989389341A105B10508F409
:1021D00085CFF801EA57FB4F108247C241305105C5
:1021E000A9F42E3F310531F482E090E0D1018D93C6
:1021F0009C9374CFF10111821082AB8DBC8D8C91B8
:1022000081116CCFC8010E94A50568CF42305105ED
:1022100091F4EF85F88931832083A98DBA8D1D92C1
:102220001C9283E090E0F10191838083A989BA89AF
:102230002D933C9353CF4330510569F4322F22271D
:10224000EF85F88980819181280F391F31832083A0
:1022500084E090E0CBCF4430510581F460E071E040
:102260000E94071A8F3F910531F485E090E0F1015B
:102270009183808333CF1182108230CF4530510556
:1022800071F4EB89FC893183208386E090E0D101F1
:102290008D939C93E989FA89318320831FCF46303F
:1022A0005105A9F4322F2227AB89BC898D919C91CD
:1022B0001197280F391F2D933C9387E090E0F1018F
:1022C00091838083AF85B8898D919C9157CF483099
:1022D000510509F003CFF1011182108260E071E035
:1022E0000E94071A8F3F910509F0F8CEAB89BC898F
:1022F0008D919C91009709F0C6C0C8010E94A50568
:1023000084EA92E09A8389831C821B828AEB92E0A2
:102310009E838D8398878F839A8789871B861C86E7
:102320001D861E866801B8EECB1ABBEFDB0A78016A
:10233000E6EBEE1AEBEFFE0A412C22E0522E612C66
:10234000712CD601ED91FC913097A9F18481958192
:102350009C838B83808191819E838D8382819381F5
:10236000DC01ED91FC910480F581E02D19959887B1
:102370008F83D601ED91FC9182819381DC01ED91F7
:10238000FC910680F781E02D19959A8789874B8605
:102390005C866D867E86D601ED91FC9160857185A7
:1023A000D801ED91FC910190F081E02DAE014F5FDD
:1023B0005F4FC8011995B2E0CB0ED11CEC14FD049F
:1023C00009F0BFCF412C92E0592E612C712CF701FE
:1023D000A081B1811097E1F112968D919C91139794
:1023E0009C838B8314968D919C9115979E838D83EE
:1023F000ED91FC9111970480F581E02DCD011995A7
:1024000098878F83D7018D919C91DC01ED91FC9190
:102410000680F781E02D19959A8789874B865C861F
:102420006D867E86D801ED91FC91C080D180F70148
:1024300080819181DC01ED91FC910280F381E02D9E
:102440001995AE014F5F5F4FBC01C801F6011995A8
:10245000F2E0EF0EF11CE214F30409F0B8CFF8013A
:10246000EA57FB4F81E08083319680829182A2827D
:10247000B382AD89BE898D929D92AD92BC92139725
:102480008FEF9FEFF7C08A30910509F09DC084E27D
:1024900092E09A8389831B821C821D821E821F8286
:1024A000188619861A860E949905F801C084D1847D
:1024B000E284F3849B01AC012C193D094E095F09AC
:1024C00069017A016F89788DCE0101960E94A0087A
:1024D000C701B60128EE33E040E050E04CD7CB8096
:1024E000DC80ED80FE80C20ED31EE41EF51ECB8282
:1024F000DC82ED82FE829B01AC0160E472E48FE03D
:1025000090E06AD7CF80D884E984FA84DC01CB01DB
:102510008C0D9D1DAE1DBF1D8F839887A987BA871F
:102520000E949905CF80D884E984FA8436E3D31ACF
:1025300035E6E30A34ECF30A28EE33E040E050E0FD
:102540001AD729013A019B01AC0160E472E48FE0E3
:1025500090E042D7A7019601261B370B480B590B79
:10256000CA01B901CB80DC80ED80FE8031E0C31A66
:10257000D108E108F108A701960124193509460997
:10258000570929013A0120E03AEC4AE95BE3F3D626
:1025900073016201C20ED31EE41EF51ED8011C9603
:1025A000CD92DD92ED92FC921F97F801608B718BBA
:1025B000828B938B0E949905AD89BE896D937D9323
:1025C0008D939C9313978ACD8630910551F46F8932
:1025D000788D8D8D9E8DB8D981E0EF8DF8A18083A7
:1025E0007DCD8B30910521F4AB8DBC8D1C9276CDC9
:1025F000FC01EF53FE4FEE0FFF1FE00FF11F808134
:102600009181009709F46ACDDC01ED91FC91019074
:10261000F081E02D6F89788D199560CDF801EA572A
:10262000FB4F8081882321F17801B9E7EB1ABBEFDA
:10263000FB0AF70180819181A281B381A5019401F8
:10264000281B390B4A0B5B0BDA01C901853C994009
:10265000A105B10568F0C8010E94A505D7018D92BA
:102660009D92AD92BC92139703C08EEF9FEF02C074
:1026700080E090E0A6960FB6F894DEBF0FBECDBF07
:10268000DF91CF911F910F91FF90EF90DF90CF904E
:10269000BF90AF909F908F907F906F905F904F9082
:1026A0003F902F9008951F93CF93DF93EC01162F47
:1026B0008881803308F04DC061E0812F0E940205BF
:1026C0008881E82FF0E09F01220F331FE20FF31FF4
:1026D000E055FB4F1F739081907C192B108319825A
:1026E0001A826CE088D69CE0899FB001112440E0FA
:1026F00050E09B01240F351FF901EE0FFF1F2E0F35
:102700003F1FF901E055FB4F908196FD16C04F5FCA
:102710005F4F4C30510569F7813001F51092800010
:1027200082E0809381001092850010928400B19A1B
:1027300080916F00826080936F00E881F0E0CF01AC
:10274000880F991FE80FF91FE055FB4F80818064C7
:1027500080838881DF91CF911F910895823061F449
:102760001092900080939100109295001092940026
:1027700088BB80937100E1CF833069F41092A00090
:1027800082E08093A1001092A5001092A40089BB62
:1027900080937200D2CF8111D0CF1092200182E0BD
:1027A0008093210110922501109224018ABB80930D
:1027B0007300C3CF1F920F920FB60F9211240BB666
:1027C0000F922F933F934F935F936F937F938F93CA
:1027D0009F93AF93BF93EF93FF9348E251E064E27E
:1027E00071E080E090E01DDBFF91EF91BF91AF9130
:1027F0009F918F917F916F915F914F913F912F9119
:102800000F900BBE0F900FBE0F901F9018951F9248
:102810000F920FB60F9211240BB60F922F933F9386
:102820004F935F936F937F938F939F93AF93BF93D8
:10283000EF93FF9348EA50E064EA70E083E090E0B1
:10284000F0DAFF91EF91BF91AF919F918F917F91BE
:102850006F915F914F913F912F910F900BBE0F9011
:102860000FBE0F901F9018951F920F920FB60F92E8
:1028700011240BB60F922F933F934F935F936F9357
:102880007F938F939F93AF93BF93EF93FF9348E909
:1028900050E064E970E082E090E0C3DAFF91EF91EC
:1028A000BF91AF919F918F917F916F915F914F9168
:1028B0003F912F910F900BBE0F900FBE0F901F9066
:1028C00018951F920F920FB60F9211240BB60F920C
:1028D0002F933F934F935F936F937F938F939F9328
:1028E000AF93BF93EF93FF9348E850E064E870E044
:1028F00081E090E096DAFF91EF91BF91AF919F91C7
:102900008F917F916F915F914F913F912F910F9098
:102910000BBE0F900FBE0F901F901895CF92DF92B5
:10292000EF92FF92FC011082118212821382DB016E
:1029300020E030E04D9150E0022E02C0440F551FC0
:102940000A94E2F7052E000C660B770BC080D1804D
:10295000E280F3804C295D296E297F2940835183D1
:1029600062837383285F3F4F2032310519F7FF9050
:10297000EF90DF90CF900895CF92DF92EF92FF9289
:1029800020E030E06A017B01022E04C0F694E79457
:10299000D794C7940A94D2F7FC01C192CF01285F63
:1029A0003F4F2032310571F7FF90EF90DF90CF90CD
:1029B0000895EF92FF920F931F93CF93DF9310929E
:1029C00043051092420548EE53E060E070E040930A
:1029D000440550934505609346057093470580E391
:1029E00092E0909341058093400525E331E03093D8
:1029F0004D0520934C0524E331E030934F0520939F
:102A00004E0520E331E0309351052093500521E33A
:102A100031E0309353052093520522E331E03093A7
:102A200055052093540526E331E030935705209354
:102A300056051092590510925A0510925B05109296
:102A40005C051092FF0A1092FE0A4093000B50930F
:102A5000010B6093020B7093030B9093FD0A80931C
:102A6000FC0A85EC90E09093090B8093080B84ECB2
:102A700090E090930B0B80930A0B80EC90E0909386
:102A80000D0B80930C0B81EC90E090930F0B8093D7
:102A90000E0B82EC90E09093110B8093100B86EC60
:102AA00090E09093130B8093120B1092150B1092E1
:102AB000160B1092170B1092180B8EE492E0909365
:102AC0004206809341068CEF9AE0909344068093EF
:102AD000430680E091EEA0E0B0E08093450690933D
:102AE0004606A0934706B09348061092C70A82E4B0
:102AF00092E09093D60A8093D50A1092D70A10924A
:102B0000D80A1092D90A1092DA0A1092E00A1092AA
:102B1000DF0A1092E10A1092E20A1092E30A109280
:102B2000E40A1092EA0A1092E90A1092EB0A109253
:102B3000EC0A1092ED0A1092EE0A1092F20A10922C
:102B4000F10A89E59AE0EBE8FAE0DC011D921D92BA
:102B5000EA17FB07D9F72DEB3AE0119211922E17E5
:102B60003F07D9F7A9E5B6E0E9E5F8E01D92EA17D5
:102B7000FB07E1F711928E179F07E1F710925506B8
:102B80001092560610925706109258066AEB72E0A1
:102B900086E296E00E94B2036AEB72E08CE296E075
:102BA0000E94B2036AEB72E082E396E00E94B203F5
:102BB0006AEB72E088E396E00E94B20310923E0650
:102BC00010923F061092400680E895E2A0E0B0E047
:102BD00080931E0690931F06A0932006B0932106B3
:102BE00084E690E0909323068093220680E092E0B2
:102BF00090932506809324068CE296E00E94A10320
:102C000082E396E00E94A10388E396E00E94A1037C
:102C100040911E0650911F0660912006709121067A
:102C200080E495E00E94580280912206909123064C
:102C3000092E000CAA0BBB0B80934405909345050D
:102C4000A0934605B09347058BEB92E00E943602B5
:102C500080E495E00E9414028DEE92E00E9436021C
:102C600080E495E00E9414028CEF92E00E9436020C
:102C700080E495E00E94140260912406709125067C
:102C80008CE296E00E942B03609124067091250649
:102C900088E396E00E942B038BE196E02BD38CE730
:102CA000E82E82E0F82EF0920E06E0920D0604E681
:102CB00012E0109314060093130610921606109259
:102CC00015068AE598E09093180680931706C1E0F0
:102CD000D0E0D0931A06C09319068CE093E090934D
:102CE0001206809311068AE096E004D3F092FD0567
:102CF000E092FC051093030600930206109205066D
:102D00001092040685EE97E09093070680930606DE
:102D1000D0930906C093080684E293E090930106DD
:102D20008093000689EF95E0E5D228E532E0309304
:102D3000F6052093F5058AEB92E09093F8058093D1
:102D4000F7054CE353E05093EC054093EB0545EF5A
:102D500055E05093EE054093ED051092F405109266
:102D6000F3053093E8052093E7059093EA058093F7
:102D7000E90582E493E09093DE058093DD0587EE1C
:102D800095E09093E0058093DF051092E6051092A0
:102D9000E505DF91CF911F910F91FF90EF9008957E
:102DA000CF93DF93CDB7DEB728970FB6F894DEBF89
:102DB0000FBECDBF789484B5826084BD84B5816038
:102DC00084BD85B5826085BD85B5816085BD8091F6
:102DD0006E00816080936E0010928100809181006E
:102DE0008260809381008091810081608093810066
:102DF000809180008160809380008091B100846028
:102E00008093B1008091B00081608093B000809188
:102E10009100826080939100809191008160809305
:102E20009100809190008160809390008091A1003A
:102E300082608093A1008091A10081608093A100B5
:102E40008091A00081608093A00080912101826028
:102E500080932101809121018160809321018091E3
:102E6000200181608093200180917A0084608093AA
:102E70007A0080917A00826080937A0080917A0053
:102E8000816080937A0080917A00806880937A00D4
:102E90001092C10061E084E00E94020561E085E0DB
:102EA0000E94020561E086E00E94020560E082E087
:102EB0000E94020560E083E00E94020560E082E17A
:102EC0000E94020585E399E090930102809300023D
:102ED00080916A00836080936A00EC9A8AE099E0AE
:102EE000909303028093020280916A008C60809329
:102EF0006A00ED9A83EF97E090930B0280930A02A9
:102F000080916900806C80936900EB9A64E070E0C6
:102F10008BE196E0C8DB65E070E08AE096E0C3DB19
:102F200066E070E089EF95E0BEDB40914506509188
:102F3000460660914706709148068091430690913D
:102F400044060E9458021092BE0A1092BD0A1092C6
:102F5000C00A1092BF0A1092C40A1092C30A1092BB
:102F6000C20A1092C10AABE8BAE0FD0180E090E02D
:102F700021913191232B81F4FC01EE0FFF1FE557C6
:102F8000F54F2CEF35E0318320838C599F4F909380
:102F9000FF058093FE0504C001968931910541F734
:102FA00080E090E02D913D91232B81F4FC01EE0F08
:102FB000FF1FE557F54F2DE036E0318320838C5914
:102FC0009F4F9093100680930F0604C0019689319D
:102FD000910541F7A9E5BAE0FD0180E090E021917B
:102FE0003191232BB1F4FC01EE0FFF1FE75AF54F8F
:102FF0002BEE35E03183208383589F4F9093F0056B
:103000008093EF0581E496E09093F2058093F105BB
:1030100004C001968931910511F780E090E02D916F
:103020003D91232BB1F4FC01EE0FFF1FE75AF54F42
:103030002DED35E03183208383589F4F9093E20537
:103040008093E10581E496E09093E4058093E305A5
:1030500004C001968931910511F761E08DE00E946D
:10306000020560E08DE00E94840468E077E08AE079
:1030700096E00E94AF070E94630560EB74E08AE06F
:1030800096E00E94AF070E9463056CED75E08AE050
:1030900096E00E94AF070E946305FF24F39410920C
:1030A000400680E495E00E949A01181619060CF07B
:1030B000B5C06AEB72E0CE0101960E94B2030E9495
:1030C000DC0597FD1DC08A309105D1F08F831886ED
:1030D0000D811E810F5F1F4FB801CE0101960E9426
:1030E0002B03882361F329813A818D819E81BE0162
:1030F000695F7F4F820F931FC7D31E830D83DFCF7E
:1031000080912C0690912D060097B9F069817A8103
:103110006115710589F040912E0650912F062D8181
:103120003E814217530740F0AFD38D819E8190932B
:1031300031068093300617C031D289819A819093ED
:103140002D0680932C068B819C8190932F06809373
:103150002E068D819E8190933106809330061A82CF
:1031600019821C821B821E821D82CE0101960E9442
:10317000AD0368E473E0CE0101960E94B203209192
:103180003006309131068D819E812817390730F045
:10319000CE0101960E941503182F01C010E0CE0148
:1031A00001960E94AD03112349F00E94BB0282E305
:1031B00096E00E947C03F0923E0622C06FE473E02A
:1031C000CE0101960E94B203209130063091310663
:1031D0008D819E812817390728F0CE0101960E9423
:1031E0001503182FCE0101960E94AD03112341F063
:1031F0000E94BB0288E396E00E947C03F0923F06A7
:1032000080913E06882351F080913F06882331F05B
:10321000F092400610923E0610923F0680914006C2
:103220008823D1F180913806909139069093F80562
:103230008093F7058091F1059091F2056091EF057B
:103240007091F005DC01ED91FC910190F081E02D91
:1032500045EF55E0199581E496E00E94EC0F8091CE
:103260003206909133069093EA058093E9058091A8
:10327000E3059091E4056091E1057091E205DC01C0
:10328000ED91FC910190F081E02D47EE55E019950C
:1032900081E496E00E94EC0F80919D0B882389F0D9
:1032A00061E08DE00E94840460911802709119021F
:1032B0008BE196E00E94AF076091160270911702B1
:1032C00010C060E08DE00E9484046091140270914F
:1032D00015028BE196E00E94AF0760911202709197
:1032E00013028AE096E00E94AF0781E496E00E9414
:1032F000EC0FD5CEFC019091A40B9033A0F481E0AB
:10330000890F8093A40B9083892F90E0FC01EE0F2E
:10331000FF1F8E0F9F1FFC01E055FB4F88EB9BE0CA
:103320009283818308958FEF8083089588E396E0E8
:103330000E94AD0382E396E00E94AD038CE296E02A
:103340000E94AD0386E296E00C94AD03911106C095
:10335000803219F089508550D0F708959927882731
:1033600008952BD0A59F900DB49F900DA49F800D24
:10337000911D11240895A1E21A2EAA1BBB1BFD0169
:103380000DC0AA1FBB1FEE1FFF1FA217B307E40744
:10339000F50720F0A21BB30BE40BF50B661F771F9C
:1033A000881F991F1A9469F760957095809590957C
:1033B0009B01AC01BD01CF010895A29FB001B39F55
:1033C000C001A39F700D811D1124911DB29F700D2E
:1033D000811D1124911D0895DB018F939F93C1DFFF
:1033E000BF91AF91A29F800D911DA39F900DB29FA1
:1033F000900D11240895991B79E004C0991F961728
:1034000008F0961B881F7A95C9F78095089597FB59
:10341000072E16F4009406D077FD08D013D007FCD1
:1034200005D03EF4909581959F4F089570956195D4
:103430007F4F0895EE0FFF1F881F8BBF0790F691F7
:10344000E02D1994AA1BBB1B51E107C0AA1FBB1F8B
:10345000A617B70710F0A61BB70B881F991F5A9520
:10346000A9F780959095BC01CD0108950F931F9306
:10347000CF93DF938230910510F482E090E0E091E9
:10348000A70BF091A80B20E030E0A0E0B0E030976F
:1034900019F1408151810281138148175907C8F001
:1034A0008417950769F4109731F012960C931297D0
:1034B00013961C9327C00093A70B1093A80B22C050
:1034C0002115310519F04217530718F49A01BD016F
:1034D000EF01DF01F801DBCF21153105F9F0281BE1
:1034E000390B2430310580F48A819B816115710587
:1034F00021F0FB019383828304C09093A80B8093F7
:10350000A70BFE01329644C0FE01E20FF31F819328
:10351000919322503109398328833AC02091A50B19
:103520003091A60B232B41F420911C0230911D02F7
:103530003093A60B2093A50B20911A0230911B0209
:103540002115310541F42DB73EB740911E0250912F
:103550001F02241B350BE091A50BF091A60BE2177F
:10356000F307A0F42E1B3F0B2817390778F0AC01A6
:103570004E5F5F4F2417350748F04E0F5F1F509383
:10358000A60B4093A50B8193919302C0E0E0F0E07D
:10359000CF01DF91CF911F910F910895CF93DF93CA
:1035A000009709F481C0FC01329713821282A09126
:1035B000A70BB091A80B109781F420813181820F65
:1035C000931F2091A50B3091A60B2817390751F5B1
:1035D000F093A60BE093A50B67C0ED0120E030E06F
:1035E000CE17DF0740F44A815B819E0141155105EA
:1035F000F1F0EA01F5CFD383C28340815181840F7A
:10360000951FC817D90759F488819981840F951F90
:103610000296918380838A819B8193838283211583
:10362000310529F4F093A80BE093A70B3DC0E90105
:10363000FB83EA8349915991C40FD51FEC17FD070D
:1036400061F480819181840F951F0296E90199832D
:103650008883828193819B838A83E0E0F0E01296E5
:103660008D919C911397009719F0FD01DC01F7CF24
:103670008D919C9111979D012E5F3F4F820F931F5B
:103680002091A50B3091A60B2817390769F43097C4
:1036900029F41092A80B1092A70B02C01382128279
:1036A000B093A60BA093A50BDF91CF9108956F92D5
:1036B0007F928F929F92AF92BF92CF92DF92EF92C2
:1036C000FF920F931F93CF93DF93009781F4CB0169
:1036D000DF91CF911F910F91FF90EF90DF90CF90EE
:1036E000BF90AF909F908F907F906F90BFCEFC0166
:1036F000E60FF71F9C0122503109E217F30708F487
:10370000A5C0EC01D9010D911C911197061717075F
:10371000A8F00530110508F497C0C8010497861772
:10372000970708F491C002501109061B170B01936B
:1037300011936D937C93CF0131DF86C05B01A01A9A
:10374000B10A4C01800E911EA091A70BB091A80B5D
:10375000612C712CE12CF12C109709F446C08D914D
:103760009C911197A815B905B1F56C0142E0C40E02
:10377000D11CCA14DB0478F14C018A189B0864013F
:1037800042E0C40ED11C1296BC9012971396AC91D5
:10379000B5E0CB16D10440F0B282A383918280823F
:1037A000D9016D937C9309C00E5F1F4F800F911F4D
:1037B000F90191838083EB2DFA2FE114F10431F0AC
:1037C000D7011396FC93EE9312973EC0F093A80B8B
:1037D000E093A70B39C06816790608F43C017D0117
:1037E00012960D90BC91A02DB7CF8091A50B909112
:1037F000A60B88169906E1F466167706C8F4809140
:103800001A0290911B02009741F48DB79EB7409128
:103810001E0250911F02841B950BE817F907B0F4A4
:10382000F093A60BE093A50BF901718360830CC0A4
:10383000CB011CDE7C01009749F0A801BE011BD022
:10384000CE01ACDEC70104C0CE0102C080E090E032
:10385000DF91CF911F910F91FF90EF90DF90CF906C
:10386000BF90AF909F908F907F906F90089581E070
:1038700090E0F8941EC0FB01DC0102C001900D92A3
:1038800041505040D8F70895FB01DC0101900D92A2
:103890000020E1F70895FB01DC014150504030F079
:1038A0008D910190801919F40020B9F7881B990BAC
:1038B000089511E0C8E0D1E000E005C0802FFE01CE
:1038C000B9DD2196011DC930D10780E00807B1F7A5
:0438D000F894FFCF9A
:1038D400350235023502350235023502350235022C
:1038E4004C04DC05DC05DC05DC050000A90B8000CC
:1038F40000000000E608A0089D089A0800000000E7
:10390400C8013C01690114029A0178018C0100008C
:103914000000080BA40C8B088808000000006D0E42
:10392400EC0F5E0E00000000DD0A48096B08680811
:10393400000000007D086E08660E630E00000000A3
:10394400560256025602560200000000D80F690EB5
:10395400660E630E726F7373657269616C5F6D736B
:1039640067732F52657175657374506172616D0070
:1039740000000000130CEF099708940800000000F1
:10398400E10B990991088E080D0A0024504D544BFF
:103994003331342C302C312C302C312C302C302C35
:1039A400302C302C302C302C302C302C302C302C33
:1039B400302C302C302C302C302A32380024504714
:1039C400434D442C33332C302A36440024504D5478
:1039D4004B3232302C3230302A3243007468726FEA
:1039E40074746C655F736572766F5F706F736974FE
:1039F400696F6E007374656572696E675F73657273
:103A0400766F5F706F736974696F6E006770726D43
:103A1400630067706767610024475047474100248B
:103A24004750524D43003939326365386131363875
:103A340037636563386338626438383365633733B2
:103A4400636134316431007374645F6D7367732F21
:103A5400537472696E67003966306539386264611F
:103A640036353938313938366464663533616661E0
:103A74003761343065343900313161626437333150
:103A84006332353933333236316364363138336235
:103A9400643132643632393500726F73736572691A
:103AA400616C5F6D7367732F4C6F670030616435B1
:103AB40031663838666334343839326638633130C5
:103AC40036383430373736343630303500726F7329
:103AD40073657269616C5F6D7367732F546F70697E
:103AE40063496E666F006364373136366337346317
:103AF400353532633331316662636332666535610D
:103B0400376263323839007374645F6D7367732F7F
:103B140054696D65003164663739656466323038DE
:103B2400623632396665366238313932336135345A
:103B34003435353264007374645F6D7367732F5565
:103B4400496E743136004D65737361676520667222
:103B54006F6D206465766963652064726F7070654B
:103B6400643A206D657373616765206C6172676583
:103B740072207468616E206275666665722E00003C
:00000001FF
